{
  "contractName": "DolphinPod",
  "abi": [
    {
      "inputs": [
        {
          "internalType": "contract eeee",
          "name": "_eeee",
          "type": "address"
        },
        {
          "internalType": "uint256",
          "name": "_eeeePerBlock",
          "type": "uint256"
        },
        {
          "internalType": "uint256",
          "name": "_durationInBlocks",
          "type": "uint256"
        },
        {
          "internalType": "uint256",
          "name": "_minElapsedBlocksBeforeStart",
          "type": "uint256"
        },
        {
          "internalType": "uint256",
          "name": "_startBlock",
          "type": "uint256"
        }
      ],
      "stateMutability": "nonpayable",
      "type": "constructor"
    },
    {
      "anonymous": false,
      "inputs": [
        {
          "indexed": true,
          "internalType": "address",
          "name": "user",
          "type": "address"
        },
        {
          "indexed": true,
          "internalType": "uint256",
          "name": "pid",
          "type": "uint256"
        },
        {
          "indexed": false,
          "internalType": "uint256",
          "name": "amount",
          "type": "uint256"
        }
      ],
      "name": "Deposit",
      "type": "event"
    },
    {
      "anonymous": false,
      "inputs": [
        {
          "indexed": true,
          "internalType": "address",
          "name": "user",
          "type": "address"
        },
        {
          "indexed": true,
          "internalType": "uint256",
          "name": "pid",
          "type": "uint256"
        },
        {
          "indexed": false,
          "internalType": "uint256",
          "name": "amount",
          "type": "uint256"
        }
      ],
      "name": "EmergencyWithdraw",
      "type": "event"
    },
    {
      "anonymous": false,
      "inputs": [
        {
          "indexed": true,
          "internalType": "address",
          "name": "previousOwner",
          "type": "address"
        },
        {
          "indexed": true,
          "internalType": "address",
          "name": "newOwner",
          "type": "address"
        }
      ],
      "name": "OwnershipTransferred",
      "type": "event"
    },
    {
      "anonymous": false,
      "inputs": [
        {
          "indexed": false,
          "internalType": "uint256",
          "name": "_eeeePerBlock",
          "type": "uint256"
        },
        {
          "indexed": false,
          "internalType": "uint256",
          "name": "_durationInBlocks",
          "type": "uint256"
        },
        {
          "indexed": false,
          "internalType": "uint256",
          "name": "_minElapsedBlocksBeforeStart",
          "type": "uint256"
        },
        {
          "indexed": false,
          "internalType": "uint256",
          "name": "_startBlock",
          "type": "uint256"
        }
      ],
      "name": "Schedule",
      "type": "event"
    },
    {
      "anonymous": false,
      "inputs": [
        {
          "indexed": true,
          "internalType": "address",
          "name": "user",
          "type": "address"
        },
        {
          "indexed": true,
          "internalType": "uint256",
          "name": "pid",
          "type": "uint256"
        },
        {
          "indexed": false,
          "internalType": "uint256",
          "name": "amount",
          "type": "uint256"
        }
      ],
      "name": "Withdraw",
      "type": "event"
    },
    {
      "inputs": [],
      "name": "dolphinToken",
      "outputs": [
        {
          "internalType": "contract eeee",
          "name": "",
          "type": "address"
        }
      ],
      "stateMutability": "view",
      "type": "function"
    },
    {
      "inputs": [],
      "name": "durationInBlocks",
      "outputs": [
        {
          "internalType": "uint256",
          "name": "",
          "type": "uint256"
        }
      ],
      "stateMutability": "view",
      "type": "function"
    },
    {
      "inputs": [],
      "name": "eeeePerBlock",
      "outputs": [
        {
          "internalType": "uint256",
          "name": "",
          "type": "uint256"
        }
      ],
      "stateMutability": "view",
      "type": "function"
    },
    {
      "inputs": [],
      "name": "minElapsedBlocksBeforeStart",
      "outputs": [
        {
          "internalType": "uint256",
          "name": "",
          "type": "uint256"
        }
      ],
      "stateMutability": "view",
      "type": "function"
    },
    {
      "inputs": [],
      "name": "owner",
      "outputs": [
        {
          "internalType": "address",
          "name": "",
          "type": "address"
        }
      ],
      "stateMutability": "view",
      "type": "function"
    },
    {
      "inputs": [
        {
          "internalType": "uint256",
          "name": "",
          "type": "uint256"
        }
      ],
      "name": "poolInfo",
      "outputs": [
        {
          "internalType": "contract IERC20",
          "name": "stakedToken",
          "type": "address"
        },
        {
          "internalType": "uint256",
          "name": "allocPoint",
          "type": "uint256"
        },
        {
          "internalType": "uint256",
          "name": "lastRewardBlock",
          "type": "uint256"
        },
        {
          "internalType": "uint256",
          "name": "accEEEEPerShareTimes1e12",
          "type": "uint256"
        }
      ],
      "stateMutability": "view",
      "type": "function"
    },
    {
      "inputs": [],
      "name": "renounceOwnership",
      "outputs": [],
      "stateMutability": "nonpayable",
      "type": "function"
    },
    {
      "inputs": [],
      "name": "startBlock",
      "outputs": [
        {
          "internalType": "uint256",
          "name": "",
          "type": "uint256"
        }
      ],
      "stateMutability": "view",
      "type": "function"
    },
    {
      "inputs": [
        {
          "internalType": "contract IERC20",
          "name": "",
          "type": "address"
        }
      ],
      "name": "supportedToken",
      "outputs": [
        {
          "internalType": "bool",
          "name": "",
          "type": "bool"
        }
      ],
      "stateMutability": "view",
      "type": "function"
    },
    {
      "inputs": [],
      "name": "totalAllocPoint",
      "outputs": [
        {
          "internalType": "uint256",
          "name": "",
          "type": "uint256"
        }
      ],
      "stateMutability": "view",
      "type": "function"
    },
    {
      "inputs": [
        {
          "internalType": "address",
          "name": "newOwner",
          "type": "address"
        }
      ],
      "name": "transferOwnership",
      "outputs": [],
      "stateMutability": "nonpayable",
      "type": "function"
    },
    {
      "inputs": [
        {
          "internalType": "uint256",
          "name": "",
          "type": "uint256"
        },
        {
          "internalType": "address",
          "name": "",
          "type": "address"
        }
      ],
      "name": "userInfo",
      "outputs": [
        {
          "internalType": "uint256",
          "name": "amount",
          "type": "uint256"
        },
        {
          "internalType": "uint256",
          "name": "rewardDebt",
          "type": "uint256"
        }
      ],
      "stateMutability": "view",
      "type": "function"
    },
    {
      "inputs": [],
      "name": "poolLength",
      "outputs": [
        {
          "internalType": "uint256",
          "name": "",
          "type": "uint256"
        }
      ],
      "stateMutability": "view",
      "type": "function"
    },
    {
      "inputs": [
        {
          "internalType": "uint256",
          "name": "_block",
          "type": "uint256"
        }
      ],
      "name": "setStartBlock",
      "outputs": [],
      "stateMutability": "nonpayable",
      "type": "function"
    },
    {
      "inputs": [
        {
          "internalType": "uint256",
          "name": "_allocPoint",
          "type": "uint256"
        },
        {
          "internalType": "contract IERC20",
          "name": "_stakedToken",
          "type": "address"
        },
        {
          "internalType": "bool",
          "name": "_withUpdate",
          "type": "bool"
        }
      ],
      "name": "add",
      "outputs": [],
      "stateMutability": "nonpayable",
      "type": "function"
    },
    {
      "inputs": [
        {
          "internalType": "uint256",
          "name": "_pid",
          "type": "uint256"
        },
        {
          "internalType": "uint256",
          "name": "_allocPoint",
          "type": "uint256"
        },
        {
          "internalType": "bool",
          "name": "_withUpdate",
          "type": "bool"
        }
      ],
      "name": "set",
      "outputs": [],
      "stateMutability": "nonpayable",
      "type": "function"
    },
    {
      "inputs": [
        {
          "internalType": "uint256",
          "name": "_from",
          "type": "uint256"
        },
        {
          "internalType": "uint256",
          "name": "_to",
          "type": "uint256"
        }
      ],
      "name": "getMultiplier",
      "outputs": [
        {
          "internalType": "uint256",
          "name": "multiplier",
          "type": "uint256"
        }
      ],
      "stateMutability": "view",
      "type": "function"
    },
    {
      "inputs": [
        {
          "internalType": "uint256",
          "name": "_pid",
          "type": "uint256"
        },
        {
          "internalType": "address",
          "name": "_user",
          "type": "address"
        }
      ],
      "name": "pendingEEEE",
      "outputs": [
        {
          "internalType": "uint256",
          "name": "",
          "type": "uint256"
        }
      ],
      "stateMutability": "view",
      "type": "function"
    },
    {
      "inputs": [],
      "name": "massUpdatePools",
      "outputs": [],
      "stateMutability": "nonpayable",
      "type": "function"
    },
    {
      "inputs": [
        {
          "internalType": "uint256",
          "name": "_pid",
          "type": "uint256"
        }
      ],
      "name": "updatePool",
      "outputs": [],
      "stateMutability": "nonpayable",
      "type": "function"
    },
    {
      "inputs": [
        {
          "internalType": "uint256",
          "name": "_pid",
          "type": "uint256"
        },
        {
          "internalType": "uint256",
          "name": "_amount",
          "type": "uint256"
        }
      ],
      "name": "deposit",
      "outputs": [],
      "stateMutability": "nonpayable",
      "type": "function"
    },
    {
      "inputs": [
        {
          "internalType": "uint256",
          "name": "_pid",
          "type": "uint256"
        },
        {
          "internalType": "uint256",
          "name": "_amount",
          "type": "uint256"
        }
      ],
      "name": "withdraw",
      "outputs": [],
      "stateMutability": "nonpayable",
      "type": "function"
    },
    {
      "inputs": [
        {
          "internalType": "uint256",
          "name": "_pid",
          "type": "uint256"
        }
      ],
      "name": "emergencyWithdraw",
      "outputs": [],
      "stateMutability": "nonpayable",
      "type": "function"
    }
  ],
  "bytecode": "0x61010060405260006003553480156200001757600080fd5b5060405162002bde38038062002bde833981810160405260a08110156200003d57600080fd5b810190808051906020019092919080519060200190929190805190602001909291908051906020019092919080519060200190929190505050600062000088620002c760201b60201c565b9050806000806101000a81548173ffffffffffffffffffffffffffffffffffffffff021916908373ffffffffffffffffffffffffffffffffffffffff1602179055508073ffffffffffffffffffffffffffffffffffffffff16600073ffffffffffffffffffffffffffffffffffffffff167f8be0079c531659141344cd1fd0a4f28419497f9722a3daafe3b4186f6b6457e060405160405180910390a3508473ffffffffffffffffffffffffffffffffffffffff1660808173ffffffffffffffffffffffffffffffffffffffff1660601b8152505060008311620001d4576040517f08c379a00000000000000000000000000000000000000000000000000000000081526004018080602001828103825260108152602001807f696e76616c6964206475726174696f6e0000000000000000000000000000000081525060200191505060405180910390fd5b8360a081815250508260c08181525050806004819055508160e08181525050600454824301106200026d576040517f08c379a00000000000000000000000000000000000000000000000000000000081526004018080602001828103825260178152602001807f6e6f7420656e6f756768206e6f7469636520676976656e00000000000000000081525060200191505060405180910390fd5b7f7cebe3677d71456c7c3bc8ce60fda30f3327e156f4240e5d1c16e59f3d8c3f2b848484846040518085815260200184815260200183815260200182815260200194505050505060405180910390a15050505050620002cf565b600033905090565b60805160601c60a05160c05160e05161289f6200033f600039806113ee5280611b5e5280611ca85250806113725280611c875280611cf952508061098d5280610d4d52806115975280611c66525080610d9b52806111885280611ec95280611f955280612067525061289f6000f3fe608060405234801561001057600080fd5b506004361061014d5760003560e01c806364d64f41116100c3578063b58cb9a81161007c578063b58cb9a8146104b8578063e2bbb1581461051a578063e2c6e43814610552578063f2fde38b146105ac578063f35e4a6e146105f0578063f9f90a601461061e5761014d565b806364d64f4114610373578063715018a6146103a75780638da5cb5b146103b15780638dbb1e3a146103e557806393f1a40b14610431578063a1b8f77c1461049a5761014d565b8063441a3e7011610115578063441a3e701461027357806348cd4cb1146102ab57806351eb05a6146102c95780635312ea8e146102f7578063630b5ba11461032557806364482f791461032f5761014d565b8063081e3eda146101525780631526fe271461017057806317caf6f1146101dd5780631eaaa045146101fb578063269c1fab14610255575b600080fd5b61015a61063c565b6040518082815260200191505060405180910390f35b61019c6004803603602081101561018657600080fd5b8101908080359060200190929190505050610649565b604051808573ffffffffffffffffffffffffffffffffffffffff16815260200184815260200183815260200182815260200194505050505060405180910390f35b6101e56106a6565b6040518082815260200191505060405180910390f35b6102536004803603606081101561021157600080fd5b8101908080359060200190929190803573ffffffffffffffffffffffffffffffffffffffff1690602001909291908035151590602001909291905050506106ac565b005b61025d61098b565b6040518082815260200191505060405180910390f35b6102a96004803603604081101561028957600080fd5b8101908080359060200190929190803590602001909291905050506109af565b005b6102b3610c0d565b6040518082815260200191505060405180910390f35b6102f5600480360360208110156102df57600080fd5b8101908080359060200190929190505050610c13565b005b6103236004803603602081101561030d57600080fd5b8101908080359060200190929190505050610edd565b005b61032d61100f565b005b6103716004803603606081101561034557600080fd5b81019080803590602001909291908035906020019092919080351515906020019092919050505061103c565b005b61037b611186565b604051808273ffffffffffffffffffffffffffffffffffffffff16815260200191505060405180910390f35b6103af6111aa565b005b6103b9611330565b604051808273ffffffffffffffffffffffffffffffffffffffff16815260200191505060405180910390f35b61041b600480360360408110156103fb57600080fd5b810190808035906020019092919080359060200190929190505050611359565b6040518082815260200191505060405180910390f35b61047d6004803603604081101561044757600080fd5b8101908080359060200190929190803573ffffffffffffffffffffffffffffffffffffffff1690602001909291905050506113bb565b604051808381526020018281526020019250505060405180910390f35b6104a26113ec565b6040518082815260200191505060405180910390f35b610504600480360360408110156104ce57600080fd5b8101908080359060200190929190803573ffffffffffffffffffffffffffffffffffffffff169060200190929190505050611410565b6040518082815260200191505060405180910390f35b6105506004803603604081101561053057600080fd5b810190808035906020019092919080359060200190929190505050611674565b005b6105946004803603602081101561056857600080fd5b81019080803573ffffffffffffffffffffffffffffffffffffffff169060200190929190505050611868565b60405180821515815260200191505060405180910390f35b6105ee600480360360208110156105c257600080fd5b81019080803573ffffffffffffffffffffffffffffffffffffffff169060200190929190505050611888565b005b61061c6004803603602081101561060657600080fd5b8101908080359060200190929190505050611a93565b005b610626611cf7565b6040518082815260200191505060405180910390f35b6000600180549050905090565b6001818154811061065657fe5b90600052602060002090600402016000915090508060000160009054906101000a900473ffffffffffffffffffffffffffffffffffffffff16908060010154908060020154908060030154905084565b60035481565b6106b4611d1b565b73ffffffffffffffffffffffffffffffffffffffff1660008054906101000a900473ffffffffffffffffffffffffffffffffffffffff1673ffffffffffffffffffffffffffffffffffffffff1614610774576040517f08c379a00000000000000000000000000000000000000000000000000000000081526004018080602001828103825260208152602001807f4f776e61626c653a2063616c6c6572206973206e6f7420746865206f776e657281525060200191505060405180910390fd5b600560008373ffffffffffffffffffffffffffffffffffffffff1673ffffffffffffffffffffffffffffffffffffffff16815260200190815260200160002060009054906101000a900460ff1615610834576040517f08c379a00000000000000000000000000000000000000000000000000000000081526004018080602001828103825260148152602001807f6164643a206475706c696361746520746f6b656e00000000000000000000000081525060200191505060405180910390fd5b6001600560008473ffffffffffffffffffffffffffffffffffffffff1673ffffffffffffffffffffffffffffffffffffffff16815260200190815260200160002060006101000a81548160ff021916908315150217905550801561089b5761089a61100f565b5b60004390506108b584600354611d2390919063ffffffff16565b600381905550600160405180608001604052808573ffffffffffffffffffffffffffffffffffffffff1681526020018681526020018381526020016000815250908060018154018082558091505060019003906000526020600020906004020160009091909190915060008201518160000160006101000a81548173ffffffffffffffffffffffffffffffffffffffff021916908373ffffffffffffffffffffffffffffffffffffffff160217905550602082015181600101556040820151816002015560608201518160030155505050505050565b7f000000000000000000000000000000000000000000000000000000000000000081565b6000600183815481106109be57fe5b9060005260206000209060040201905060006002600085815260200190815260200160002060003373ffffffffffffffffffffffffffffffffffffffff1673ffffffffffffffffffffffffffffffffffffffff16815260200190815260200160002090508281600001541015610a9c576040517f08c379a00000000000000000000000000000000000000000000000000000000081526004018080602001828103825260128152602001807f77697468647261773a206e6f7420676f6f64000000000000000000000000000081525060200191505060405180910390fd5b610aa584610c13565b6000610aef8260010154610ae164e8d4a51000610ad387600301548760000154611dab90919063ffffffff16565b611e3190919063ffffffff16565b611e7b90919063ffffffff16565b90506000811115610b0557610b043382611ec5565b5b6000841115610b7d57610b25848360000154611e7b90919063ffffffff16565b8260000181905550610b7c33858560000160009054906101000a900473ffffffffffffffffffffffffffffffffffffffff1673ffffffffffffffffffffffffffffffffffffffff166121389092919063ffffffff16565b5b610baf64e8d4a51000610ba185600301548560000154611dab90919063ffffffff16565b611e3190919063ffffffff16565b8260010181905550843373ffffffffffffffffffffffffffffffffffffffff167ff279e6a1f5e320cca91135676d9cb6e44ca8a08c0b88342bcdb1144f6511b568866040518082815260200191505060405180910390a35050505050565b60045481565b600060018281548110610c2257fe5b9060005260206000209060040201905080600201544311610c435750610eda565b60008160000160009054906101000a900473ffffffffffffffffffffffffffffffffffffffff1673ffffffffffffffffffffffffffffffffffffffff166370a08231306040518263ffffffff1660e01b8152600401808273ffffffffffffffffffffffffffffffffffffffff16815260200191505060206040518083038186803b158015610cd057600080fd5b505afa158015610ce4573d6000803e3d6000fd5b505050506040513d6020811015610cfa57600080fd5b810190808051906020019092919050505090506000811415610d26574382600201819055505050610eda565b6000610d36836002015443611359565b90506000610d97600354610d898660010154610d7b7f000000000000000000000000000000000000000000000000000000000000000087611dab90919063ffffffff16565b611dab90919063ffffffff16565b611e3190919063ffffffff16565b90507f000000000000000000000000000000000000000000000000000000000000000073ffffffffffffffffffffffffffffffffffffffff166323b872dd3330846040518463ffffffff1660e01b8152600401808473ffffffffffffffffffffffffffffffffffffffff1681526020018373ffffffffffffffffffffffffffffffffffffffff1681526020018281526020019350505050602060405180830381600087803b158015610e4857600080fd5b505af1158015610e5c573d6000803e3d6000fd5b505050506040513d6020811015610e7257600080fd5b810190808051906020019092919050505050610ec4610eb184610ea364e8d4a5100085611dab90919063ffffffff16565b611e3190919063ffffffff16565b8560030154611d2390919063ffffffff16565b8460030181905550438460020181905550505050505b50565b600060018281548110610eec57fe5b9060005260206000209060040201905060006002600084815260200190815260200160002060003373ffffffffffffffffffffffffffffffffffffffff1673ffffffffffffffffffffffffffffffffffffffff1681526020019081526020016000209050610fa33382600001548460000160009054906101000a900473ffffffffffffffffffffffffffffffffffffffff1673ffffffffffffffffffffffffffffffffffffffff166121389092919063ffffffff16565b823373ffffffffffffffffffffffffffffffffffffffff167fbb757047c2b5f3974fe26b7c10f732e7bce710b0952a71082702781e62ae059583600001546040518082815260200191505060405180910390a36000816000018190555060008160010181905550505050565b6000600180549050905060005b818110156110385761102d81610c13565b80600101905061101c565b5050565b611044611d1b565b73ffffffffffffffffffffffffffffffffffffffff1660008054906101000a900473ffffffffffffffffffffffffffffffffffffffff1673ffffffffffffffffffffffffffffffffffffffff1614611104576040517f08c379a00000000000000000000000000000000000000000000000000000000081526004018080602001828103825260208152602001807f4f776e61626c653a2063616c6c6572206973206e6f7420746865206f776e657281525060200191505060405180910390fd5b80156111135761111261100f565b5b6111588261114a6001868154811061112757fe5b906000526020600020906004020160010154600354611e7b90919063ffffffff16565b611d2390919063ffffffff16565b600381905550816001848154811061116c57fe5b906000526020600020906004020160010181905550505050565b7f000000000000000000000000000000000000000000000000000000000000000081565b6111b2611d1b565b73ffffffffffffffffffffffffffffffffffffffff1660008054906101000a900473ffffffffffffffffffffffffffffffffffffffff1673ffffffffffffffffffffffffffffffffffffffff1614611272576040517f08c379a00000000000000000000000000000000000000000000000000000000081526004018080602001828103825260208152602001807f4f776e61626c653a2063616c6c6572206973206e6f7420746865206f776e657281525060200191505060405180910390fd5b600073ffffffffffffffffffffffffffffffffffffffff1660008054906101000a900473ffffffffffffffffffffffffffffffffffffffff1673ffffffffffffffffffffffffffffffffffffffff167f8be0079c531659141344cd1fd0a4f28419497f9722a3daafe3b4186f6b6457e060405160405180910390a360008060006101000a81548173ffffffffffffffffffffffffffffffffffffffff021916908373ffffffffffffffffffffffffffffffffffffffff160217905550565b60008060009054906101000a900473ffffffffffffffffffffffffffffffffffffffff16905090565b600080611368846004546121da565b9050600061139a847f0000000000000000000000000000000000000000000000000000000000000000600454016121f4565b9050808210156113ae5781810392506113b3565b600092505b505092915050565b6002602052816000526040600020602052806000526040600020600091509150508060000154908060010154905082565b7f000000000000000000000000000000000000000000000000000000000000000081565b6000806001848154811061142057fe5b9060005260206000209060040201905060006002600086815260200190815260200160002060008573ffffffffffffffffffffffffffffffffffffffff1673ffffffffffffffffffffffffffffffffffffffff168152602001908152602001600020905060008260030154905060008360000160009054906101000a900473ffffffffffffffffffffffffffffffffffffffff1673ffffffffffffffffffffffffffffffffffffffff166370a08231306040518263ffffffff1660e01b8152600401808273ffffffffffffffffffffffffffffffffffffffff16815260200191505060206040518083038186803b15801561151a57600080fd5b505afa15801561152e573d6000803e3d6000fd5b505050506040513d602081101561154457600080fd5b8101908080519060200190929190505050905083600201544311801561156b575060008114155b15611624576000611580856002015443611359565b905060006115e16003546115d388600101546115c57f000000000000000000000000000000000000000000000000000000000000000087611dab90919063ffffffff16565b611dab90919063ffffffff16565b611e3190919063ffffffff16565b905061161f6116108461160264e8d4a5100085611dab90919063ffffffff16565b611e3190919063ffffffff16565b85611d2390919063ffffffff16565b935050505b611668836001015461165a64e8d4a5100061164c868860000154611dab90919063ffffffff16565b611e3190919063ffffffff16565b611e7b90919063ffffffff16565b94505050505092915050565b60006001838154811061168357fe5b9060005260206000209060040201905060006002600085815260200190815260200160002060003373ffffffffffffffffffffffffffffffffffffffff1673ffffffffffffffffffffffffffffffffffffffff16815260200190815260200160002090506116f084610c13565b60008160000154111561175f576000611747826001015461173964e8d4a5100061172b87600301548760000154611dab90919063ffffffff16565b611e3190919063ffffffff16565b611e7b90919063ffffffff16565b9050600081111561175d5761175c3382611ec5565b5b505b60008311156117d9576117b93330858560000160009054906101000a900473ffffffffffffffffffffffffffffffffffffffff1673ffffffffffffffffffffffffffffffffffffffff1661220d909392919063ffffffff16565b6117d0838260000154611d2390919063ffffffff16565b81600001819055505b61180b64e8d4a510006117fd84600301548460000154611dab90919063ffffffff16565b611e3190919063ffffffff16565b8160010181905550833373ffffffffffffffffffffffffffffffffffffffff167f90890809c654f11d6e72a28fa60149770a0d11ec6c92319d6ceb2bb0a4ea1a15856040518082815260200191505060405180910390a350505050565b60056020528060005260406000206000915054906101000a900460ff1681565b611890611d1b565b73ffffffffffffffffffffffffffffffffffffffff1660008054906101000a900473ffffffffffffffffffffffffffffffffffffffff1673ffffffffffffffffffffffffffffffffffffffff1614611950576040517f08c379a00000000000000000000000000000000000000000000000000000000081526004018080602001828103825260208152602001807f4f776e61626c653a2063616c6c6572206973206e6f7420746865206f776e657281525060200191505060405180910390fd5b600073ffffffffffffffffffffffffffffffffffffffff168173ffffffffffffffffffffffffffffffffffffffff1614156119d6576040517f08c379a00000000000000000000000000000000000000000000000000000000081526004018080602001828103825260268152602001806127ad6026913960400191505060405180910390fd5b8073ffffffffffffffffffffffffffffffffffffffff1660008054906101000a900473ffffffffffffffffffffffffffffffffffffffff1673ffffffffffffffffffffffffffffffffffffffff167f8be0079c531659141344cd1fd0a4f28419497f9722a3daafe3b4186f6b6457e060405160405180910390a3806000806101000a81548173ffffffffffffffffffffffffffffffffffffffff021916908373ffffffffffffffffffffffffffffffffffffffff16021790555050565b611a9b611d1b565b73ffffffffffffffffffffffffffffffffffffffff1660008054906101000a900473ffffffffffffffffffffffffffffffffffffffff1673ffffffffffffffffffffffffffffffffffffffff1614611b5b576040517f08c379a00000000000000000000000000000000000000000000000000000000081526004018080602001828103825260208152602001807f4f776e61626c653a2063616c6c6572206973206e6f7420746865206f776e657281525060200191505060405180910390fd5b807f0000000000000000000000000000000000000000000000000000000000000000430110611bd5576040517f08c379a00000000000000000000000000000000000000000000000000000000081526004018080602001828103825260268152602001806127d36026913960400191505060405180910390fd5b600454431015611beb5780600481905550611c43565b6000611c42576040517f08c379a00000000000000000000000000000000000000000000000000000000081526004018080602001828103825260268152602001806127f96026913960400191505060405180910390fd5b5b7f7cebe3677d71456c7c3bc8ce60fda30f3327e156f4240e5d1c16e59f3d8c3f2b7f00000000000000000000000000000000000000000000000000000000000000007f00000000000000000000000000000000000000000000000000000000000000007f00000000000000000000000000000000000000000000000000000000000000006004546040518085815260200184815260200183815260200182815260200194505050505060405180910390a150565b7f000000000000000000000000000000000000000000000000000000000000000081565b600033905090565b600080828401905083811015611da1576040517f08c379a000000000000000000000000000000000000000000000000000000000815260040180806020018281038252601b8152602001807f536166654d6174683a206164646974696f6e206f766572666c6f77000000000081525060200191505060405180910390fd5b8091505092915050565b600080831415611dbe5760009050611e2b565b6000828402905082848281611dcf57fe5b0414611e26576040517f08c379a000000000000000000000000000000000000000000000000000000000815260040180806020018281038252602181526020018061281f6021913960400191505060405180910390fd5b809150505b92915050565b6000611e7383836040518060400160405280601a81526020017f536166654d6174683a206469766973696f6e206279207a65726f0000000000008152506122ce565b905092915050565b6000611ebd83836040518060400160405280601e81526020017f536166654d6174683a207375627472616374696f6e206f766572666c6f770000815250612394565b905092915050565b60007f000000000000000000000000000000000000000000000000000000000000000073ffffffffffffffffffffffffffffffffffffffff166370a08231306040518263ffffffff1660e01b8152600401808273ffffffffffffffffffffffffffffffffffffffff16815260200191505060206040518083038186803b158015611f4e57600080fd5b505afa158015611f62573d6000803e3d6000fd5b505050506040513d6020811015611f7857600080fd5b8101908080519060200190929190505050905080821115612065577f000000000000000000000000000000000000000000000000000000000000000073ffffffffffffffffffffffffffffffffffffffff1663a9059cbb84836040518363ffffffff1660e01b8152600401808373ffffffffffffffffffffffffffffffffffffffff16815260200182815260200192505050602060405180830381600087803b15801561202457600080fd5b505af1158015612038573d6000803e3d6000fd5b505050506040513d602081101561204e57600080fd5b810190808051906020019092919050505050612133565b7f000000000000000000000000000000000000000000000000000000000000000073ffffffffffffffffffffffffffffffffffffffff1663a9059cbb84846040518363ffffffff1660e01b8152600401808373ffffffffffffffffffffffffffffffffffffffff16815260200182815260200192505050602060405180830381600087803b1580156120f657600080fd5b505af115801561210a573d6000803e3d6000fd5b505050506040513d602081101561212057600080fd5b8101908080519060200190929190505050505b505050565b6121d58363a9059cbb60e01b8484604051602401808373ffffffffffffffffffffffffffffffffffffffff16815260200182815260200192505050604051602081830303815290604052907bffffffffffffffffffffffffffffffffffffffffffffffffffffffff19166020820180517bffffffffffffffffffffffffffffffffffffffffffffffffffffffff8381831617835250505050612454565b505050565b6000818310156121ea57816121ec565b825b905092915050565b60008183106122035781612205565b825b905092915050565b6122c8846323b872dd60e01b858585604051602401808473ffffffffffffffffffffffffffffffffffffffff1681526020018373ffffffffffffffffffffffffffffffffffffffff1681526020018281526020019350505050604051602081830303815290604052907bffffffffffffffffffffffffffffffffffffffffffffffffffffffff19166020820180517bffffffffffffffffffffffffffffffffffffffffffffffffffffffff8381831617835250505050612454565b50505050565b6000808311829061237a576040517f08c379a00000000000000000000000000000000000000000000000000000000081526004018080602001828103825283818151815260200191508051906020019080838360005b8381101561233f578082015181840152602081019050612324565b50505050905090810190601f16801561236c5780820380516001836020036101000a031916815260200191505b509250505060405180910390fd5b50600083858161238657fe5b049050809150509392505050565b6000838311158290612441576040517f08c379a00000000000000000000000000000000000000000000000000000000081526004018080602001828103825283818151815260200191508051906020019080838360005b838110156124065780820151818401526020810190506123eb565b50505050905090810190601f1680156124335780820380516001836020036101000a031916815260200191505b509250505060405180910390fd5b5060008385039050809150509392505050565b60606124b6826040518060400160405280602081526020017f5361666545524332303a206c6f772d6c6576656c2063616c6c206661696c65648152508573ffffffffffffffffffffffffffffffffffffffff166125439092919063ffffffff16565b905060008151111561253e578080602001905160208110156124d757600080fd5b810190808051906020019092919050505061253d576040517f08c379a000000000000000000000000000000000000000000000000000000000815260040180806020018281038252602a815260200180612840602a913960400191505060405180910390fd5b5b505050565b6060612552848460008561255b565b90509392505050565b606061256685612761565b6125d8576040517f08c379a000000000000000000000000000000000000000000000000000000000815260040180806020018281038252601d8152602001807f416464726573733a2063616c6c20746f206e6f6e2d636f6e747261637400000081525060200191505060405180910390fd5b600060608673ffffffffffffffffffffffffffffffffffffffff1685876040518082805190602001908083835b602083106126285780518252602082019150602081019050602083039250612605565b6001836020036101000a03801982511681845116808217855250505050505090500191505060006040518083038185875af1925050503d806000811461268a576040519150601f19603f3d011682016040523d82523d6000602084013e61268f565b606091505b509150915081156126a4578092505050612759565b6000815111156126b75780518082602001fd5b836040517f08c379a00000000000000000000000000000000000000000000000000000000081526004018080602001828103825283818151815260200191508051906020019080838360005b8381101561271e578082015181840152602081019050612703565b50505050905090810190601f16801561274b5780820380516001836020036101000a031916815260200191505b509250505060405180910390fd5b949350505050565b60008060007fc5d2460186f7233c927e7db2dcc703c0e500b653ca82273b7bfad8045d85a47060001b9050833f91508082141580156127a357506000801b8214155b9250505091905056fe4f776e61626c653a206e6577206f776e657220697320746865207a65726f20616464726573737365745374617274426c6f636b3a206e6f7420656e6f756768206e6f7469636520676976656e7365745374617274426c6f636b3a206661726d696e6720616c72656164792073746172746564536166654d6174683a206d756c7469706c69636174696f6e206f766572666c6f775361666545524332303a204552433230206f7065726174696f6e20646964206e6f742073756363656564a2646970667358221220072b7693cb5d58df23f2c6fc54bab83b49fcc87fe477ca87ddd44c5506134ab464736f6c634300060c0033",
  "immutableReferences": {
    "44": [
      {
        "length": 32,
        "start": 3483
      },
      {
        "length": 32,
        "start": 4488
      },
      {
        "length": 32,
        "start": 7881
      },
      {
        "length": 32,
        "start": 8085
      },
      {
        "length": 32,
        "start": 8295
      }
    ],
    "46": [
      {
        "length": 32,
        "start": 2445
      },
      {
        "length": 32,
        "start": 3405
      },
      {
        "length": 32,
        "start": 5527
      },
      {
        "length": 32,
        "start": 7270
      }
    ],
    "48": [
      {
        "length": 32,
        "start": 4978
      },
      {
        "length": 32,
        "start": 7303
      },
      {
        "length": 32,
        "start": 7417
      }
    ],
    "50": [
      {
        "length": 32,
        "start": 5102
      },
      {
        "length": 32,
        "start": 7006
      },
      {
        "length": 32,
        "start": 7336
      }
    ]
  },
  "source": "// SPDX-License-Identifier: MIT\npragma solidity 0.6.12;\n\n// Adapted from SushiSwap's MasterChef contract\nimport \"@openzeppelin/contracts/token/ERC20/IERC20.sol\";\nimport \"@openzeppelin/contracts/token/ERC20/SafeERC20.sol\";\nimport \"@openzeppelin/contracts/utils/EnumerableSet.sol\";\nimport \"@openzeppelin/contracts/math/SafeMath.sol\";\nimport \"@openzeppelin/contracts/math/Math.sol\";\nimport \"@openzeppelin/contracts/access/Ownable.sol\";\nimport \"./eeee.sol\";\n\n// DolphinPod is the games master of her majesty the Cetacean Queen's games. He shares the bounty with the dolphins and he is a fair guy.\n//\n// Note that it's ownable and the owner wields tremendous power. The ownership\n// will be burned once the EEEE has been sufficiently\n// distributed and the opening ceremony of the games takes place.\n//\n// Have fun reading it. Hopefully it's bug-free. God save the Cetacean Queen.\n\ncontract DolphinPod is Ownable {\n    using SafeMath for uint256;\n    using SafeERC20 for IERC20;\n\n    // Info of each user.\n    struct UserInfo {\n        uint256 amount;     // How many ERC20/LP tokens the user has provided.\n        uint256 rewardDebt; // Reward debt. See explanation below.\n        //\n        // We do some fancy math here. Basically, any point in time, the amount of EEEEs\n        // entitled to a user but is pending to be distributed is:\n        //\n        //   pending reward = (user.amount * pool.accEEEEPerShareTimes1e12) - user.rewardDebt\n        //\n        // Whenever a user deposits or withdraws LP tokens to a pool. Here's what happens:\n        //   Step 1. The pool's `accEEEEPerShareTimes1e12` (and `lastRewardBlock`) gets updated.\n        //   Step 2. User receives the pending reward sent to his/her address.\n        //   Step 3. User's `amount` gets updated.\n        //   Step 4. User's `rewardDebt` gets updated to reflect the reward already sent in Step 2.\n    }\n\n    // Info of each pool.\n    struct PoolInfo {\n        IERC20 stakedToken;       // Address of staked ERC20 and LP token contract.\n        uint256 allocPoint;       // How many allocation points assigned to this pool. Weighting of EEEEs to distribute per block vs. other pools.\n        uint256 lastRewardBlock;  // Last block number that EEEEs distribution occurs.\n        uint256 accEEEEPerShareTimes1e12; // Accumulated EEEEs per share, times 1e12. See below.\n    }\n\n\n\n    // Info of each pool.\n    PoolInfo[] public poolInfo;\n    // Info of each user that stakes ERC20 & LP tokens.\n    mapping (uint256 => mapping (address => UserInfo)) public userInfo;\n    // Total allocation poitns. Must be the sum of all allocation points in all pools.\n    uint256 public totalAllocPoint = 0;\n\n    // Farming of EEEE is enabled over a fixed number of blocks.\n    // The start block is configurable until it has passed, at which point it cannot be changed.\n    // When altering the start time the owner cannot start a farming sooner than 9200 blocks (~48 hours) in the future.\n    eeee public immutable dolphinToken;\n    uint256 public immutable eeeePerBlock; // Number of tokens minted per block, in phase1, accross all pools\n    uint256 public immutable durationInBlocks; // E.g. ~46000 = one week\n    uint256 public immutable minElapsedBlocksBeforeStart; // \n    uint256 public startBlock;\n    \n\n    // YYY_EEEE\n    mapping (IERC20 => bool) public supportedToken;\n\n    event Deposit(address indexed user, uint256 indexed pid, uint256 amount);\n    event Withdraw(address indexed user, uint256 indexed pid, uint256 amount);\n    event EmergencyWithdraw(address indexed user, uint256 indexed pid, uint256 amount);\n    event Schedule(uint256 _eeeePerBlock,\n        uint256 _durationInBlocks,\n        uint256 _minElapsedBlocksBeforeStart,\n        uint256 _startBlock);\n\n    constructor (\n        eeee _eeee,\n        uint256 _eeeePerBlock, // 5e17wei = 0.5 eeee per block\n        uint256 _durationInBlocks,\n        uint256 _minElapsedBlocksBeforeStart,\n        uint256 _startBlock\n    ) public\n      validPhases {\n        dolphinToken = _eeee;\n        require(_durationInBlocks > 0, \"invalid duration\");\n        eeeePerBlock = _eeeePerBlock; // 5e17wei = 0.5 eeee per block\n        durationInBlocks = _durationInBlocks;\n        startBlock = _startBlock;\n        minElapsedBlocksBeforeStart = _minElapsedBlocksBeforeStart;\n        require(block.number + _minElapsedBlocksBeforeStart < startBlock, \"not enough notice given\");\n\n        emit Schedule(_eeeePerBlock,\n                        _durationInBlocks,\n                        _minElapsedBlocksBeforeStart,\n                        _startBlock);\n    }\n\n    modifier validPhases {\n        _;\n    }\n\n    function poolLength() external view returns (uint256) {\n        return poolInfo.length;\n    }\n\n    // Change the start block for dolphin farming, as long as it hasn't started already\n    function setStartBlock(uint256 _block) public onlyOwner validPhases {\n        require(block.number + minElapsedBlocksBeforeStart < _block, \"setStartBlock: not enough notice given\");\n\n        if (block.number < startBlock) {\n            startBlock = _block;\n        } else {\n            require(false, \"setStartBlock: farming already started\");\n        }\n\n        emit Schedule(eeeePerBlock,\n                durationInBlocks,\n                minElapsedBlocksBeforeStart,\n                startBlock);\n    }\n\n\n    // Add a new erc20 or lp to the pool and update total allocation points accordingly. Can only be called by the owner.\n    function add(uint256 _allocPoint, IERC20 _stakedToken, bool _withUpdate) public onlyOwner {\n\n        // Each LP token can only be added once\n        require(!supportedToken[_stakedToken], \"add: duplicate token\");\n        supportedToken[_stakedToken] = true;\n\n        // Update rewards for other pools (best to do this if rewards are already active)\n        if (_withUpdate) {\n            massUpdatePools();\n        }\n\n\n        uint256 lastRewardBlock = block.number;\n        totalAllocPoint = totalAllocPoint.add(_allocPoint);\n        poolInfo.push(PoolInfo({\n            stakedToken: _stakedToken,\n            allocPoint: _allocPoint,\n            lastRewardBlock: lastRewardBlock,\n            accEEEEPerShareTimes1e12: 0\n        }));\n    }\n\n    // Update the given pool's EEEE allocation point, and the total allocaiton points. Can only be called by the owner.\n    function set(uint256 _pid, uint256 _allocPoint, bool _withUpdate) public onlyOwner {\n        if (_withUpdate) {\n            massUpdatePools();\n        }\n        totalAllocPoint = totalAllocPoint.sub(poolInfo[_pid].allocPoint).add(_allocPoint);\n        poolInfo[_pid].allocPoint = _allocPoint;\n    }\n\n\n\n    // Return reward multiplier over the given _from to _to block.\n    // This is just the number of blocks where rewards were active, unless a bonus was in effect for some or all of the block range.\n     function getMultiplier(uint256 _from, uint256 _to) public view returns (uint256 multiplier) {\n        uint256 effectiveFrom = Math.max(_from, startBlock);\n        uint256 effectiveTo = Math.min(_to, startBlock + durationInBlocks);\n\n        if (effectiveFrom < effectiveTo) {\n            multiplier = effectiveTo - effectiveFrom;\n        } else {    \n            multiplier = 0;\n        }\n    }\n\n    // View function to see pending EEEEs on frontend.\n    function pendingEEEE(uint256 _pid, address _user) external view returns (uint256) {\n        PoolInfo storage pool = poolInfo[_pid];\n        UserInfo storage user = userInfo[_pid][_user];\n        uint256 accEEEEPerShareTimes1e12 = pool.accEEEEPerShareTimes1e12;\n        uint256 stakedSupply = pool.stakedToken.balanceOf(address(this));\n        if (block.number > pool.lastRewardBlock && stakedSupply != 0) {\n            uint256 multiplier = getMultiplier(pool.lastRewardBlock, block.number);\n            uint256 eeeeReward = multiplier.mul(eeeePerBlock).mul(pool.allocPoint).div(totalAllocPoint);\n            accEEEEPerShareTimes1e12 = accEEEEPerShareTimes1e12.add(eeeeReward.mul(1e12).div(stakedSupply));\n        }\n        return user.amount.mul(accEEEEPerShareTimes1e12).div(1e12).sub(user.rewardDebt);\n    }\n\n    // Update reward variables for all pools. Be careful of gas spending!\n    function massUpdatePools() public {\n        uint256 length = poolInfo.length;\n        for (uint256 pid = 0; pid < length; ++pid) {\n            updatePool(pid);\n        }\n    }\n\n    // Update reward variables of the given pool to be up-to-date.\n    function updatePool(uint256 _pid) public {\n        PoolInfo storage pool = poolInfo[_pid];\n        if (block.number <= pool.lastRewardBlock) {\n            return;\n        }\n        uint256 stakedSupply = pool.stakedToken.balanceOf(address(this));\n        if (stakedSupply == 0) {\n            pool.lastRewardBlock = block.number;\n            return;\n        }\n        // multiplier = count of blocks since last reward calc (perhaps scaled up for bonuses)\n        uint256 multiplier = getMultiplier(pool.lastRewardBlock, block.number);\n\n        // eeeeReward = (scaled block count) * (rewards per block) * (this pool's % share of all block rewards)\n        uint256 eeeeReward = multiplier.mul(eeeePerBlock).mul(pool.allocPoint).div(totalAllocPoint);\n\n        // transfer 100% of eeeeReward to DolphinPod || TODO: Change to transfer from?\n        dolphinToken.transferFrom(msg.sender, address(this), eeeeReward);\n\n        // Update the reward that each ERC20 / LP token in this pool is due (same for each ERC20 / LP token since last reward calc)\n        pool.accEEEEPerShareTimes1e12 = pool.accEEEEPerShareTimes1e12.add(eeeeReward.mul(1e12).div(stakedSupply));\n        pool.lastRewardBlock = block.number;\n    }\n\n    // Deposit ERC20 / LP tokens to DolphinPod for EEEE allocation.\n    function deposit(uint256 _pid, uint256 _amount) public {\n        PoolInfo storage pool = poolInfo[_pid];\n        UserInfo storage user = userInfo[_pid][msg.sender];\n        updatePool(_pid);\n        if (user.amount > 0) {\n            uint256 pending = user.amount.mul(pool.accEEEEPerShareTimes1e12).div(1e12).sub(user.rewardDebt);\n            if(pending > 0) {\n                safeEEEETransfer(msg.sender, pending);\n            }\n        }\n        if(_amount > 0) {\n            pool.stakedToken.safeTransferFrom(address(msg.sender), address(this), _amount);\n            user.amount = user.amount.add(_amount);\n        }\n        user.rewardDebt = user.amount.mul(pool.accEEEEPerShareTimes1e12).div(1e12);\n        emit Deposit(msg.sender, _pid, _amount);\n    }\n\n    // Withdraw ERC20 / LP tokens from DolphinPod.\n    function withdraw(uint256 _pid, uint256 _amount) public {\n        PoolInfo storage pool = poolInfo[_pid];\n        UserInfo storage user = userInfo[_pid][msg.sender];\n        require(user.amount >= _amount, \"withdraw: not good\");\n        updatePool(_pid);\n        uint256 pending = user.amount.mul(pool.accEEEEPerShareTimes1e12).div(1e12).sub(user.rewardDebt);\n        if(pending > 0) {\n            safeEEEETransfer(msg.sender, pending);\n        }\n        if(_amount > 0) {\n            user.amount = user.amount.sub(_amount);\n            pool.stakedToken.safeTransfer(address(msg.sender), _amount);\n        }\n        user.rewardDebt = user.amount.mul(pool.accEEEEPerShareTimes1e12).div(1e12);\n        emit Withdraw(msg.sender, _pid, _amount);\n    }\n\n    // Withdraw without caring about rewards. EMERGENCY ONLY.\n    function emergencyWithdraw(uint256 _pid) public {\n        PoolInfo storage pool = poolInfo[_pid];\n        UserInfo storage user = userInfo[_pid][msg.sender];\n        pool.stakedToken.safeTransfer(address(msg.sender), user.amount);\n        emit EmergencyWithdraw(msg.sender, _pid, user.amount);\n        user.amount = 0;\n        user.rewardDebt = 0;\n    }\n\n    // Safe eeee transfer function, just in case rounding errors cause us not to have enough EEEEs.\n    function safeEEEETransfer(address _to, uint256 _amount) internal {\n        uint256 eeeeBal = dolphinToken.balanceOf(address(this));\n        if (_amount > eeeeBal) {\n            dolphinToken.transfer(_to, eeeeBal);\n        } else {\n            dolphinToken.transfer(_to, _amount);\n        }\n    }\n}\n",
  "sourcePath": "/mnt/c/dev/dolphinsWTF/contracts/DolphinPod.sol",
  "compiler": {
    "name": "solc",
    "version": "0.6.12+commit.27d51765.Emscripten.clang"
  },
  "schemaVersion": "3.3.2",
  "updatedAt": "2020-11-18T06:27:31.315Z",
  "devdoc": {
    "kind": "dev",
    "methods": {
      "owner()": {
        "details": "Returns the address of the current owner."
      },
      "renounceOwnership()": {
        "details": "Leaves the contract without owner. It will not be possible to call `onlyOwner` functions anymore. Can only be called by the current owner. NOTE: Renouncing ownership will leave the contract without an owner, thereby removing any functionality that is only available to the owner."
      },
      "transferOwnership(address)": {
        "details": "Transfers ownership of the contract to a new account (`newOwner`). Can only be called by the current owner."
      }
    },
    "version": 1
  },
  "userdoc": {
    "kind": "user",
    "methods": {},
    "version": 1
  }
}