{
  "contractName": "DolphinPod",
  "abi": [
    {
      "inputs": [
        {
          "internalType": "contract IERC20",
          "name": "eeee",
          "type": "address"
        },
        {
          "internalType": "uint256",
          "name": "_eeeePerBlock",
          "type": "uint256"
        },
        {
          "internalType": "uint256",
          "name": "_durationInBlocks",
          "type": "uint256"
        },
        {
          "internalType": "uint256",
          "name": "_minElapsedBlocksBeforeStart",
          "type": "uint256"
        },
        {
          "internalType": "uint256",
          "name": "_startBlock",
          "type": "uint256"
        }
      ],
      "stateMutability": "nonpayable",
      "type": "constructor"
    },
    {
      "anonymous": false,
      "inputs": [
        {
          "indexed": true,
          "internalType": "address",
          "name": "user",
          "type": "address"
        },
        {
          "indexed": true,
          "internalType": "uint256",
          "name": "pid",
          "type": "uint256"
        },
        {
          "indexed": false,
          "internalType": "uint256",
          "name": "amount",
          "type": "uint256"
        }
      ],
      "name": "Deposit",
      "type": "event"
    },
    {
      "anonymous": false,
      "inputs": [
        {
          "indexed": true,
          "internalType": "address",
          "name": "user",
          "type": "address"
        },
        {
          "indexed": true,
          "internalType": "uint256",
          "name": "pid",
          "type": "uint256"
        },
        {
          "indexed": false,
          "internalType": "uint256",
          "name": "amount",
          "type": "uint256"
        }
      ],
      "name": "EmergencyWithdraw",
      "type": "event"
    },
    {
      "anonymous": false,
      "inputs": [
        {
          "indexed": true,
          "internalType": "address",
          "name": "previousOwner",
          "type": "address"
        },
        {
          "indexed": true,
          "internalType": "address",
          "name": "newOwner",
          "type": "address"
        }
      ],
      "name": "OwnershipTransferred",
      "type": "event"
    },
    {
      "anonymous": false,
      "inputs": [
        {
          "indexed": false,
          "internalType": "uint256",
          "name": "_eeeePerBlock",
          "type": "uint256"
        },
        {
          "indexed": false,
          "internalType": "uint256",
          "name": "_durationInBlocks",
          "type": "uint256"
        },
        {
          "indexed": false,
          "internalType": "uint256",
          "name": "_minElapsedBlocksBeforeStart",
          "type": "uint256"
        },
        {
          "indexed": false,
          "internalType": "uint256",
          "name": "_startBlock",
          "type": "uint256"
        }
      ],
      "name": "Schedule",
      "type": "event"
    },
    {
      "anonymous": false,
      "inputs": [
        {
          "indexed": true,
          "internalType": "address",
          "name": "user",
          "type": "address"
        },
        {
          "indexed": true,
          "internalType": "uint256",
          "name": "pid",
          "type": "uint256"
        },
        {
          "indexed": false,
          "internalType": "uint256",
          "name": "amount",
          "type": "uint256"
        }
      ],
      "name": "Withdraw",
      "type": "event"
    },
    {
      "inputs": [],
      "name": "dolphinToken",
      "outputs": [
        {
          "internalType": "contract IERC20",
          "name": "",
          "type": "address"
        }
      ],
      "stateMutability": "view",
      "type": "function",
      "constant": true
    },
    {
      "inputs": [],
      "name": "durationInBlocks",
      "outputs": [
        {
          "internalType": "uint256",
          "name": "",
          "type": "uint256"
        }
      ],
      "stateMutability": "view",
      "type": "function",
      "constant": true
    },
    {
      "inputs": [],
      "name": "eeeePerBlock",
      "outputs": [
        {
          "internalType": "uint256",
          "name": "",
          "type": "uint256"
        }
      ],
      "stateMutability": "view",
      "type": "function",
      "constant": true
    },
    {
      "inputs": [],
      "name": "minElapsedBlocksBeforeStart",
      "outputs": [
        {
          "internalType": "uint256",
          "name": "",
          "type": "uint256"
        }
      ],
      "stateMutability": "view",
      "type": "function",
      "constant": true
    },
    {
      "inputs": [],
      "name": "owner",
      "outputs": [
        {
          "internalType": "address",
          "name": "",
          "type": "address"
        }
      ],
      "stateMutability": "view",
      "type": "function",
      "constant": true
    },
    {
      "inputs": [
        {
          "internalType": "uint256",
          "name": "",
          "type": "uint256"
        }
      ],
      "name": "poolInfo",
      "outputs": [
        {
          "internalType": "contract IERC20",
          "name": "stakedToken",
          "type": "address"
        },
        {
          "internalType": "uint256",
          "name": "allocPoint",
          "type": "uint256"
        },
        {
          "internalType": "uint256",
          "name": "lastRewardBlock",
          "type": "uint256"
        },
        {
          "internalType": "uint256",
          "name": "accEEEEPerShareTimes1e12",
          "type": "uint256"
        }
      ],
      "stateMutability": "view",
      "type": "function",
      "constant": true
    },
    {
      "inputs": [],
      "name": "renounceOwnership",
      "outputs": [],
      "stateMutability": "nonpayable",
      "type": "function"
    },
    {
      "inputs": [],
      "name": "startBlock",
      "outputs": [
        {
          "internalType": "uint256",
          "name": "",
          "type": "uint256"
        }
      ],
      "stateMutability": "view",
      "type": "function",
      "constant": true
    },
    {
      "inputs": [
        {
          "internalType": "contract IERC20",
          "name": "",
          "type": "address"
        }
      ],
      "name": "supportedToken",
      "outputs": [
        {
          "internalType": "bool",
          "name": "",
          "type": "bool"
        }
      ],
      "stateMutability": "view",
      "type": "function",
      "constant": true
    },
    {
      "inputs": [],
      "name": "totalAllocPoint",
      "outputs": [
        {
          "internalType": "uint256",
          "name": "",
          "type": "uint256"
        }
      ],
      "stateMutability": "view",
      "type": "function",
      "constant": true
    },
    {
      "inputs": [
        {
          "internalType": "address",
          "name": "newOwner",
          "type": "address"
        }
      ],
      "name": "transferOwnership",
      "outputs": [],
      "stateMutability": "nonpayable",
      "type": "function"
    },
    {
      "inputs": [
        {
          "internalType": "uint256",
          "name": "",
          "type": "uint256"
        },
        {
          "internalType": "address",
          "name": "",
          "type": "address"
        }
      ],
      "name": "userInfo",
      "outputs": [
        {
          "internalType": "uint256",
          "name": "amount",
          "type": "uint256"
        },
        {
          "internalType": "uint256",
          "name": "rewardDebt",
          "type": "uint256"
        }
      ],
      "stateMutability": "view",
      "type": "function",
      "constant": true
    },
    {
      "inputs": [],
      "name": "poolLength",
      "outputs": [
        {
          "internalType": "uint256",
          "name": "",
          "type": "uint256"
        }
      ],
      "stateMutability": "view",
      "type": "function",
      "constant": true
    },
    {
      "inputs": [
        {
          "internalType": "uint256",
          "name": "_block",
          "type": "uint256"
        }
      ],
      "name": "setStartBlock",
      "outputs": [],
      "stateMutability": "nonpayable",
      "type": "function"
    },
    {
      "inputs": [
        {
          "internalType": "uint256",
          "name": "_allocPoint",
          "type": "uint256"
        },
        {
          "internalType": "contract IERC20",
          "name": "_stakedToken",
          "type": "address"
        },
        {
          "internalType": "bool",
          "name": "_withUpdate",
          "type": "bool"
        }
      ],
      "name": "add",
      "outputs": [],
      "stateMutability": "nonpayable",
      "type": "function"
    },
    {
      "inputs": [
        {
          "internalType": "uint256",
          "name": "_pid",
          "type": "uint256"
        },
        {
          "internalType": "uint256",
          "name": "_allocPoint",
          "type": "uint256"
        },
        {
          "internalType": "bool",
          "name": "_withUpdate",
          "type": "bool"
        }
      ],
      "name": "set",
      "outputs": [],
      "stateMutability": "nonpayable",
      "type": "function"
    },
    {
      "inputs": [
        {
          "internalType": "uint256",
          "name": "_from",
          "type": "uint256"
        },
        {
          "internalType": "uint256",
          "name": "_to",
          "type": "uint256"
        }
      ],
      "name": "getMultiplier",
      "outputs": [
        {
          "internalType": "uint256",
          "name": "multiplier",
          "type": "uint256"
        }
      ],
      "stateMutability": "view",
      "type": "function",
      "constant": true
    },
    {
      "inputs": [
        {
          "internalType": "uint256",
          "name": "_pid",
          "type": "uint256"
        },
        {
          "internalType": "address",
          "name": "_user",
          "type": "address"
        }
      ],
      "name": "pendingEEEE",
      "outputs": [
        {
          "internalType": "uint256",
          "name": "",
          "type": "uint256"
        }
      ],
      "stateMutability": "view",
      "type": "function",
      "constant": true
    },
    {
      "inputs": [],
      "name": "massUpdatePools",
      "outputs": [],
      "stateMutability": "nonpayable",
      "type": "function"
    },
    {
      "inputs": [
        {
          "internalType": "uint256",
          "name": "_pid",
          "type": "uint256"
        }
      ],
      "name": "updatePool",
      "outputs": [],
      "stateMutability": "nonpayable",
      "type": "function"
    },
    {
      "inputs": [
        {
          "internalType": "uint256",
          "name": "_pid",
          "type": "uint256"
        },
        {
          "internalType": "uint256",
          "name": "_amount",
          "type": "uint256"
        }
      ],
      "name": "deposit",
      "outputs": [],
      "stateMutability": "nonpayable",
      "type": "function"
    },
    {
      "inputs": [
        {
          "internalType": "uint256",
          "name": "_pid",
          "type": "uint256"
        },
        {
          "internalType": "uint256",
          "name": "_amount",
          "type": "uint256"
        }
      ],
      "name": "withdraw",
      "outputs": [],
      "stateMutability": "nonpayable",
      "type": "function"
    },
    {
      "inputs": [
        {
          "internalType": "uint256",
          "name": "_pid",
          "type": "uint256"
        }
      ],
      "name": "emergencyWithdraw",
      "outputs": [],
      "stateMutability": "nonpayable",
      "type": "function"
    },
    {
      "inputs": [],
      "name": "cleanUpFarm",
      "outputs": [],
      "stateMutability": "nonpayable",
      "type": "function"
    }
  ],
  "bytecode": "0x61010060405260006003553480156200001757600080fd5b5060405162002c3d38038062002c3d833981810160405260a08110156200003d57600080fd5b810190808051906020019092919080519060200190929190805190602001909291908051906020019092919080519060200190929190505050600062000088620002c760201b60201c565b9050806000806101000a81548173ffffffffffffffffffffffffffffffffffffffff021916908373ffffffffffffffffffffffffffffffffffffffff1602179055508073ffffffffffffffffffffffffffffffffffffffff16600073ffffffffffffffffffffffffffffffffffffffff167f8be0079c531659141344cd1fd0a4f28419497f9722a3daafe3b4186f6b6457e060405160405180910390a3508473ffffffffffffffffffffffffffffffffffffffff1660808173ffffffffffffffffffffffffffffffffffffffff1660601b8152505060008311620001d4576040517f08c379a00000000000000000000000000000000000000000000000000000000081526004018080602001828103825260108152602001807f696e76616c6964206475726174696f6e0000000000000000000000000000000081525060200191505060405180910390fd5b8360a081815250508260c08181525050806004819055508160e08181525050600454824301106200026d576040517f08c379a00000000000000000000000000000000000000000000000000000000081526004018080602001828103825260178152602001807f6e6f7420656e6f756768206e6f7469636520676976656e00000000000000000081525060200191505060405180910390fd5b7f7cebe3677d71456c7c3bc8ce60fda30f3327e156f4240e5d1c16e59f3d8c3f2b848484846040518085815260200184815260200183815260200182815260200194505050505060405180910390a15050505050620002cf565b600033905090565b60805160601c60a05160c05160e0516128f9620003446000398061154c5280611cbc5280611e0652508061072a52806114d05280611de55280611e57525080610bd65280610f9652806116f55280611dc45250806107ca52806112e65280611e855280611f565280611fa652506128f96000f3fe608060405234801561001057600080fd5b50600436106101585760003560e01c806364d64f41116100c3578063b58cb9a81161007c578063b58cb9a8146104cd578063e2bbb1581461052f578063e2c6e43814610567578063f2fde38b146105c1578063f35e4a6e14610605578063f9f90a601461063357610158565b806364d64f4114610388578063715018a6146103bc5780638da5cb5b146103c65780638dbb1e3a146103fa57806393f1a40b14610446578063a1b8f77c146104af57610158565b8063441a3e7011610115578063441a3e701461028857806348cd4cb1146102c057806351eb05a6146102de5780635312ea8e1461030c578063630b5ba11461033a57806364482f791461034457610158565b8063081e3eda1461015d5780630e8d3ccd1461017b5780631526fe271461018557806317caf6f1146101f25780631eaaa04514610210578063269c1fab1461026a575b600080fd5b610165610651565b6040518082815260200191505060405180910390f35b61018361065e565b005b6101b16004803603602081101561019b57600080fd5b8101908080359060200190929190505050610892565b604051808573ffffffffffffffffffffffffffffffffffffffff16815260200184815260200183815260200182815260200194505050505060405180910390f35b6101fa6108ef565b6040518082815260200191505060405180910390f35b6102686004803603606081101561022657600080fd5b8101908080359060200190929190803573ffffffffffffffffffffffffffffffffffffffff1690602001909291908035151590602001909291905050506108f5565b005b610272610bd4565b6040518082815260200191505060405180910390f35b6102be6004803603604081101561029e57600080fd5b810190808035906020019092919080359060200190929190505050610bf8565b005b6102c8610e56565b6040518082815260200191505060405180910390f35b61030a600480360360208110156102f457600080fd5b8101908080359060200190929190505050610e5c565b005b6103386004803603602081101561032257600080fd5b810190808035906020019092919050505061103b565b005b61034261116d565b005b6103866004803603606081101561035a57600080fd5b81019080803590602001909291908035906020019092919080351515906020019092919050505061119a565b005b6103906112e4565b604051808273ffffffffffffffffffffffffffffffffffffffff16815260200191505060405180910390f35b6103c4611308565b005b6103ce61148e565b604051808273ffffffffffffffffffffffffffffffffffffffff16815260200191505060405180910390f35b6104306004803603604081101561041057600080fd5b8101908080359060200190929190803590602001909291905050506114b7565b6040518082815260200191505060405180910390f35b6104926004803603604081101561045c57600080fd5b8101908080359060200190929190803573ffffffffffffffffffffffffffffffffffffffff169060200190929190505050611519565b604051808381526020018281526020019250505060405180910390f35b6104b761154a565b6040518082815260200191505060405180910390f35b610519600480360360408110156104e357600080fd5b8101908080359060200190929190803573ffffffffffffffffffffffffffffffffffffffff16906020019092919050505061156e565b6040518082815260200191505060405180910390f35b6105656004803603604081101561054557600080fd5b8101908080359060200190929190803590602001909291905050506117d2565b005b6105a96004803603602081101561057d57600080fd5b81019080803573ffffffffffffffffffffffffffffffffffffffff1690602001909291905050506119c6565b60405180821515815260200191505060405180910390f35b610603600480360360208110156105d757600080fd5b81019080803573ffffffffffffffffffffffffffffffffffffffff1690602001909291905050506119e6565b005b6106316004803603602081101561061b57600080fd5b8101908080359060200190929190505050611bf1565b005b61063b611e55565b6040518082815260200191505060405180910390f35b6000600180549050905090565b610666611e79565b73ffffffffffffffffffffffffffffffffffffffff1660008054906101000a900473ffffffffffffffffffffffffffffffffffffffff1673ffffffffffffffffffffffffffffffffffffffff1614610726576040517f08c379a00000000000000000000000000000000000000000000000000000000081526004018080602001828103825260208152602001807f4f776e61626c653a2063616c6c6572206973206e6f7420746865206f776e657281525060200191505060405180910390fd5b60007f00000000000000000000000000000000000000000000000000000000000000006004540190508043116107c4576040517f08c379a000000000000000000000000000000000000000000000000000000000815260040180806020018281038252601b8152602001807f6661726d696e67206861736e27742066696e697368656420796574000000000081525060200191505060405180910390fd5b61088f337f000000000000000000000000000000000000000000000000000000000000000073ffffffffffffffffffffffffffffffffffffffff166370a08231306040518263ffffffff1660e01b8152600401808273ffffffffffffffffffffffffffffffffffffffff16815260200191505060206040518083038186803b15801561084f57600080fd5b505afa158015610863573d6000803e3d6000fd5b505050506040513d602081101561087957600080fd5b8101908080519060200190929190505050611e81565b50565b6001818154811061089f57fe5b90600052602060002090600402016000915090508060000160009054906101000a900473ffffffffffffffffffffffffffffffffffffffff16908060010154908060020154908060030154905084565b60035481565b6108fd611e79565b73ffffffffffffffffffffffffffffffffffffffff1660008054906101000a900473ffffffffffffffffffffffffffffffffffffffff1673ffffffffffffffffffffffffffffffffffffffff16146109bd576040517f08c379a00000000000000000000000000000000000000000000000000000000081526004018080602001828103825260208152602001807f4f776e61626c653a2063616c6c6572206973206e6f7420746865206f776e657281525060200191505060405180910390fd5b600560008373ffffffffffffffffffffffffffffffffffffffff1673ffffffffffffffffffffffffffffffffffffffff16815260200190815260200160002060009054906101000a900460ff1615610a7d576040517f08c379a00000000000000000000000000000000000000000000000000000000081526004018080602001828103825260148152602001807f6164643a206475706c696361746520746f6b656e00000000000000000000000081525060200191505060405180910390fd5b6001600560008473ffffffffffffffffffffffffffffffffffffffff1673ffffffffffffffffffffffffffffffffffffffff16815260200190815260200160002060006101000a81548160ff0219169083151502179055508015610ae457610ae361116d565b5b6000439050610afe84600354611ff090919063ffffffff16565b600381905550600160405180608001604052808573ffffffffffffffffffffffffffffffffffffffff1681526020018681526020018381526020016000815250908060018154018082558091505060019003906000526020600020906004020160009091909190915060008201518160000160006101000a81548173ffffffffffffffffffffffffffffffffffffffff021916908373ffffffffffffffffffffffffffffffffffffffff160217905550602082015181600101556040820151816002015560608201518160030155505050505050565b7f000000000000000000000000000000000000000000000000000000000000000081565b600060018381548110610c0757fe5b9060005260206000209060040201905060006002600085815260200190815260200160002060003373ffffffffffffffffffffffffffffffffffffffff1673ffffffffffffffffffffffffffffffffffffffff16815260200190815260200160002090508281600001541015610ce5576040517f08c379a00000000000000000000000000000000000000000000000000000000081526004018080602001828103825260128152602001807f77697468647261773a206e6f7420676f6f64000000000000000000000000000081525060200191505060405180910390fd5b610cee84610e5c565b6000610d388260010154610d2a64e8d4a51000610d1c8760030154876000015461207890919063ffffffff16565b6120fe90919063ffffffff16565b61214890919063ffffffff16565b90506000811115610d4e57610d4d3382611e81565b5b6000841115610dc657610d6e84836000015461214890919063ffffffff16565b8260000181905550610dc533858560000160009054906101000a900473ffffffffffffffffffffffffffffffffffffffff1673ffffffffffffffffffffffffffffffffffffffff166121929092919063ffffffff16565b5b610df864e8d4a51000610dea8560030154856000015461207890919063ffffffff16565b6120fe90919063ffffffff16565b8260010181905550843373ffffffffffffffffffffffffffffffffffffffff167ff279e6a1f5e320cca91135676d9cb6e44ca8a08c0b88342bcdb1144f6511b568866040518082815260200191505060405180910390a35050505050565b60045481565b600060018281548110610e6b57fe5b9060005260206000209060040201905080600201544311610e8c5750611038565b60008160000160009054906101000a900473ffffffffffffffffffffffffffffffffffffffff1673ffffffffffffffffffffffffffffffffffffffff166370a08231306040518263ffffffff1660e01b8152600401808273ffffffffffffffffffffffffffffffffffffffff16815260200191505060206040518083038186803b158015610f1957600080fd5b505afa158015610f2d573d6000803e3d6000fd5b505050506040513d6020811015610f4357600080fd5b810190808051906020019092919050505090506000811415610f6f574382600201819055505050611038565b6000610f7f8360020154436114b7565b90506000610fe0600354610fd28660010154610fc47f00000000000000000000000000000000000000000000000000000000000000008761207890919063ffffffff16565b61207890919063ffffffff16565b6120fe90919063ffffffff16565b905061102261100f8461100164e8d4a510008561207890919063ffffffff16565b6120fe90919063ffffffff16565b8560030154611ff090919063ffffffff16565b8460030181905550438460020181905550505050505b50565b60006001828154811061104a57fe5b9060005260206000209060040201905060006002600084815260200190815260200160002060003373ffffffffffffffffffffffffffffffffffffffff1673ffffffffffffffffffffffffffffffffffffffff16815260200190815260200160002090506111013382600001548460000160009054906101000a900473ffffffffffffffffffffffffffffffffffffffff1673ffffffffffffffffffffffffffffffffffffffff166121929092919063ffffffff16565b823373ffffffffffffffffffffffffffffffffffffffff167fbb757047c2b5f3974fe26b7c10f732e7bce710b0952a71082702781e62ae059583600001546040518082815260200191505060405180910390a36000816000018190555060008160010181905550505050565b6000600180549050905060005b818110156111965761118b81610e5c565b80600101905061117a565b5050565b6111a2611e79565b73ffffffffffffffffffffffffffffffffffffffff1660008054906101000a900473ffffffffffffffffffffffffffffffffffffffff1673ffffffffffffffffffffffffffffffffffffffff1614611262576040517f08c379a00000000000000000000000000000000000000000000000000000000081526004018080602001828103825260208152602001807f4f776e61626c653a2063616c6c6572206973206e6f7420746865206f776e657281525060200191505060405180910390fd5b80156112715761127061116d565b5b6112b6826112a86001868154811061128557fe5b90600052602060002090600402016001015460035461214890919063ffffffff16565b611ff090919063ffffffff16565b60038190555081600184815481106112ca57fe5b906000526020600020906004020160010181905550505050565b7f000000000000000000000000000000000000000000000000000000000000000081565b611310611e79565b73ffffffffffffffffffffffffffffffffffffffff1660008054906101000a900473ffffffffffffffffffffffffffffffffffffffff1673ffffffffffffffffffffffffffffffffffffffff16146113d0576040517f08c379a00000000000000000000000000000000000000000000000000000000081526004018080602001828103825260208152602001807f4f776e61626c653a2063616c6c6572206973206e6f7420746865206f776e657281525060200191505060405180910390fd5b600073ffffffffffffffffffffffffffffffffffffffff1660008054906101000a900473ffffffffffffffffffffffffffffffffffffffff1673ffffffffffffffffffffffffffffffffffffffff167f8be0079c531659141344cd1fd0a4f28419497f9722a3daafe3b4186f6b6457e060405160405180910390a360008060006101000a81548173ffffffffffffffffffffffffffffffffffffffff021916908373ffffffffffffffffffffffffffffffffffffffff160217905550565b60008060009054906101000a900473ffffffffffffffffffffffffffffffffffffffff16905090565b6000806114c684600454612234565b905060006114f8847f00000000000000000000000000000000000000000000000000000000000000006004540161224e565b90508082101561150c578181039250611511565b600092505b505092915050565b6002602052816000526040600020602052806000526040600020600091509150508060000154908060010154905082565b7f000000000000000000000000000000000000000000000000000000000000000081565b6000806001848154811061157e57fe5b9060005260206000209060040201905060006002600086815260200190815260200160002060008573ffffffffffffffffffffffffffffffffffffffff1673ffffffffffffffffffffffffffffffffffffffff168152602001908152602001600020905060008260030154905060008360000160009054906101000a900473ffffffffffffffffffffffffffffffffffffffff1673ffffffffffffffffffffffffffffffffffffffff166370a08231306040518263ffffffff1660e01b8152600401808273ffffffffffffffffffffffffffffffffffffffff16815260200191505060206040518083038186803b15801561167857600080fd5b505afa15801561168c573d6000803e3d6000fd5b505050506040513d60208110156116a257600080fd5b810190808051906020019092919050505090508360020154431180156116c9575060008114155b156117825760006116de8560020154436114b7565b9050600061173f60035461173188600101546117237f00000000000000000000000000000000000000000000000000000000000000008761207890919063ffffffff16565b61207890919063ffffffff16565b6120fe90919063ffffffff16565b905061177d61176e8461176064e8d4a510008561207890919063ffffffff16565b6120fe90919063ffffffff16565b85611ff090919063ffffffff16565b935050505b6117c683600101546117b864e8d4a510006117aa86886000015461207890919063ffffffff16565b6120fe90919063ffffffff16565b61214890919063ffffffff16565b94505050505092915050565b6000600183815481106117e157fe5b9060005260206000209060040201905060006002600085815260200190815260200160002060003373ffffffffffffffffffffffffffffffffffffffff1673ffffffffffffffffffffffffffffffffffffffff168152602001908152602001600020905061184e84610e5c565b6000816000015411156118bd5760006118a5826001015461189764e8d4a510006118898760030154876000015461207890919063ffffffff16565b6120fe90919063ffffffff16565b61214890919063ffffffff16565b905060008111156118bb576118ba3382611e81565b5b505b6000831115611937576119173330858560000160009054906101000a900473ffffffffffffffffffffffffffffffffffffffff1673ffffffffffffffffffffffffffffffffffffffff16612267909392919063ffffffff16565b61192e838260000154611ff090919063ffffffff16565b81600001819055505b61196964e8d4a5100061195b8460030154846000015461207890919063ffffffff16565b6120fe90919063ffffffff16565b8160010181905550833373ffffffffffffffffffffffffffffffffffffffff167f90890809c654f11d6e72a28fa60149770a0d11ec6c92319d6ceb2bb0a4ea1a15856040518082815260200191505060405180910390a350505050565b60056020528060005260406000206000915054906101000a900460ff1681565b6119ee611e79565b73ffffffffffffffffffffffffffffffffffffffff1660008054906101000a900473ffffffffffffffffffffffffffffffffffffffff1673ffffffffffffffffffffffffffffffffffffffff1614611aae576040517f08c379a00000000000000000000000000000000000000000000000000000000081526004018080602001828103825260208152602001807f4f776e61626c653a2063616c6c6572206973206e6f7420746865206f776e657281525060200191505060405180910390fd5b600073ffffffffffffffffffffffffffffffffffffffff168173ffffffffffffffffffffffffffffffffffffffff161415611b34576040517f08c379a00000000000000000000000000000000000000000000000000000000081526004018080602001828103825260268152602001806128076026913960400191505060405180910390fd5b8073ffffffffffffffffffffffffffffffffffffffff1660008054906101000a900473ffffffffffffffffffffffffffffffffffffffff1673ffffffffffffffffffffffffffffffffffffffff167f8be0079c531659141344cd1fd0a4f28419497f9722a3daafe3b4186f6b6457e060405160405180910390a3806000806101000a81548173ffffffffffffffffffffffffffffffffffffffff021916908373ffffffffffffffffffffffffffffffffffffffff16021790555050565b611bf9611e79565b73ffffffffffffffffffffffffffffffffffffffff1660008054906101000a900473ffffffffffffffffffffffffffffffffffffffff1673ffffffffffffffffffffffffffffffffffffffff1614611cb9576040517f08c379a00000000000000000000000000000000000000000000000000000000081526004018080602001828103825260208152602001807f4f776e61626c653a2063616c6c6572206973206e6f7420746865206f776e657281525060200191505060405180910390fd5b807f0000000000000000000000000000000000000000000000000000000000000000430110611d33576040517f08c379a000000000000000000000000000000000000000000000000000000000815260040180806020018281038252602681526020018061282d6026913960400191505060405180910390fd5b600454431015611d495780600481905550611da1565b6000611da0576040517f08c379a00000000000000000000000000000000000000000000000000000000081526004018080602001828103825260268152602001806128536026913960400191505060405180910390fd5b5b7f7cebe3677d71456c7c3bc8ce60fda30f3327e156f4240e5d1c16e59f3d8c3f2b7f00000000000000000000000000000000000000000000000000000000000000007f00000000000000000000000000000000000000000000000000000000000000007f00000000000000000000000000000000000000000000000000000000000000006004546040518085815260200184815260200183815260200182815260200194505050505060405180910390a150565b7f000000000000000000000000000000000000000000000000000000000000000081565b600033905090565b60007f000000000000000000000000000000000000000000000000000000000000000073ffffffffffffffffffffffffffffffffffffffff166370a08231306040518263ffffffff1660e01b8152600401808273ffffffffffffffffffffffffffffffffffffffff16815260200191505060206040518083038186803b158015611f0a57600080fd5b505afa158015611f1e573d6000803e3d6000fd5b505050506040513d6020811015611f3457600080fd5b8101908080519060200190929190505050905080821115611f9f57611f9a83827f000000000000000000000000000000000000000000000000000000000000000073ffffffffffffffffffffffffffffffffffffffff166121929092919063ffffffff16565b611feb565b611fea83837f000000000000000000000000000000000000000000000000000000000000000073ffffffffffffffffffffffffffffffffffffffff166121929092919063ffffffff16565b5b505050565b60008082840190508381101561206e576040517f08c379a000000000000000000000000000000000000000000000000000000000815260040180806020018281038252601b8152602001807f536166654d6174683a206164646974696f6e206f766572666c6f77000000000081525060200191505060405180910390fd5b8091505092915050565b60008083141561208b57600090506120f8565b600082840290508284828161209c57fe5b04146120f3576040517f08c379a00000000000000000000000000000000000000000000000000000000081526004018080602001828103825260218152602001806128796021913960400191505060405180910390fd5b809150505b92915050565b600061214083836040518060400160405280601a81526020017f536166654d6174683a206469766973696f6e206279207a65726f000000000000815250612328565b905092915050565b600061218a83836040518060400160405280601e81526020017f536166654d6174683a207375627472616374696f6e206f766572666c6f7700008152506123ee565b905092915050565b61222f8363a9059cbb60e01b8484604051602401808373ffffffffffffffffffffffffffffffffffffffff16815260200182815260200192505050604051602081830303815290604052907bffffffffffffffffffffffffffffffffffffffffffffffffffffffff19166020820180517bffffffffffffffffffffffffffffffffffffffffffffffffffffffff83818316178352505050506124ae565b505050565b6000818310156122445781612246565b825b905092915050565b600081831061225d578161225f565b825b905092915050565b612322846323b872dd60e01b858585604051602401808473ffffffffffffffffffffffffffffffffffffffff1681526020018373ffffffffffffffffffffffffffffffffffffffff1681526020018281526020019350505050604051602081830303815290604052907bffffffffffffffffffffffffffffffffffffffffffffffffffffffff19166020820180517bffffffffffffffffffffffffffffffffffffffffffffffffffffffff83818316178352505050506124ae565b50505050565b600080831182906123d4576040517f08c379a00000000000000000000000000000000000000000000000000000000081526004018080602001828103825283818151815260200191508051906020019080838360005b8381101561239957808201518184015260208101905061237e565b50505050905090810190601f1680156123c65780820380516001836020036101000a031916815260200191505b509250505060405180910390fd5b5060008385816123e057fe5b049050809150509392505050565b600083831115829061249b576040517f08c379a00000000000000000000000000000000000000000000000000000000081526004018080602001828103825283818151815260200191508051906020019080838360005b83811015612460578082015181840152602081019050612445565b50505050905090810190601f16801561248d5780820380516001836020036101000a031916815260200191505b509250505060405180910390fd5b5060008385039050809150509392505050565b6060612510826040518060400160405280602081526020017f5361666545524332303a206c6f772d6c6576656c2063616c6c206661696c65648152508573ffffffffffffffffffffffffffffffffffffffff1661259d9092919063ffffffff16565b90506000815111156125985780806020019051602081101561253157600080fd5b8101908080519060200190929190505050612597576040517f08c379a000000000000000000000000000000000000000000000000000000000815260040180806020018281038252602a81526020018061289a602a913960400191505060405180910390fd5b5b505050565b60606125ac84846000856125b5565b90509392505050565b60606125c0856127bb565b612632576040517f08c379a000000000000000000000000000000000000000000000000000000000815260040180806020018281038252601d8152602001807f416464726573733a2063616c6c20746f206e6f6e2d636f6e747261637400000081525060200191505060405180910390fd5b600060608673ffffffffffffffffffffffffffffffffffffffff1685876040518082805190602001908083835b60208310612682578051825260208201915060208101905060208303925061265f565b6001836020036101000a03801982511681845116808217855250505050505090500191505060006040518083038185875af1925050503d80600081146126e4576040519150601f19603f3d011682016040523d82523d6000602084013e6126e9565b606091505b509150915081156126fe5780925050506127b3565b6000815111156127115780518082602001fd5b836040517f08c379a00000000000000000000000000000000000000000000000000000000081526004018080602001828103825283818151815260200191508051906020019080838360005b8381101561277857808201518184015260208101905061275d565b50505050905090810190601f1680156127a55780820380516001836020036101000a031916815260200191505b509250505060405180910390fd5b949350505050565b60008060007fc5d2460186f7233c927e7db2dcc703c0e500b653ca82273b7bfad8045d85a47060001b9050833f91508082141580156127fd57506000801b8214155b9250505091905056fe4f776e61626c653a206e6577206f776e657220697320746865207a65726f20616464726573737365745374617274426c6f636b3a206e6f7420656e6f756768206e6f7469636520676976656e7365745374617274426c6f636b3a206661726d696e6720616c72656164792073746172746564536166654d6174683a206d756c7469706c69636174696f6e206f766572666c6f775361666545524332303a204552433230206f7065726174696f6e20646964206e6f742073756363656564a264697066735822122017a4d4abdd4009a3ff6cf0fc4f426f3b19f61b4de774d66d6409aa2176acac6064736f6c634300060c0033",
  "immutableReferences": {
    "44": [
      {
        "length": 32,
        "start": 1994
      },
      {
        "length": 32,
        "start": 4838
      },
      {
        "length": 32,
        "start": 7813
      },
      {
        "length": 32,
        "start": 8022
      },
      {
        "length": 32,
        "start": 8102
      }
    ],
    "46": [
      {
        "length": 32,
        "start": 3030
      },
      {
        "length": 32,
        "start": 3990
      },
      {
        "length": 32,
        "start": 5877
      },
      {
        "length": 32,
        "start": 7620
      }
    ],
    "48": [
      {
        "length": 32,
        "start": 1834
      },
      {
        "length": 32,
        "start": 5328
      },
      {
        "length": 32,
        "start": 7653
      },
      {
        "length": 32,
        "start": 7767
      }
    ],
    "50": [
      {
        "length": 32,
        "start": 5452
      },
      {
        "length": 32,
        "start": 7356
      },
      {
        "length": 32,
        "start": 7686
      }
    ]
  },
  "source": "// SPDX-License-Identifier: MIT\npragma solidity 0.6.12;\n\n\n// TODO - add a sweep function to withdraw any remaining eeee\n\n// Adapted from SushiSwap's MasterChef contract\nimport \"@openzeppelin/contracts/token/ERC20/IERC20.sol\";\nimport \"@openzeppelin/contracts/token/ERC20/SafeERC20.sol\";\nimport \"@openzeppelin/contracts/utils/EnumerableSet.sol\";\nimport \"@openzeppelin/contracts/math/SafeMath.sol\";\nimport \"@openzeppelin/contracts/math/Math.sol\";\nimport \"@openzeppelin/contracts/access/Ownable.sol\";\nimport \"./eeee.sol\";\n\n// DolphinPod is the games master of her majesty the Cetacean Queen's games. He shares the bounty with the dolphins and he is a fair guy.\n//\n// Note that it's ownable and the owner wields tremendous power. The ownership\n// will be burned once the EEEE has been sufficiently\n// distributed and the opening ceremony of the games takes place.\n//\n// Have fun reading it. Hopefully it's bug-free. God save the Cetacean Queen.\n//\n//////////////////////////////////////////////////////////////////////\n//                                       __                         //\n//                                   _.-~  )  ___ dolphinPods ____  //\n//                        _..--~~~~,'   ,-/     _                   //\n//                     .-'. . . .'   ,-','    ,' )                  //\n//                   ,'. . . _   ,--~,-'__..-'  ,'                  //\n//                 ,'. . .  (@)' ---~~~~      ,'                    //\n//                /. . . . '~~             ,-'                      //\n//               /. . . . .             ,-'                         //\n//              ; . . . .  - .        ,'                            //\n//             : . . . .       _     /                              //\n//            . . . . .          `-.:                               //\n//           . . . ./  - .          )                               //\n//          .  . . |  _____..---.._/ ____ dolphins.wtf ____         //\n//~---~~~~-~~---~~~~----~~~~-~~~~-~~---~~~~----~~~~~~---~~~~-~~---~~//\n//                                                                  //\n//////////////////////////////////////////////////////////////////////\n\ncontract DolphinPod is Ownable {\n    using SafeMath for uint256;\n    using SafeERC20 for IERC20;\n\n    // Info of each user.\n    struct UserInfo {\n        uint256 amount;     // How many ERC20/LP tokens the user has provided.\n        uint256 rewardDebt; // Reward debt. See explanation below.\n        //\n        // We do some fancy math here. Basically, any point in time, the amount of EEEEs\n        // entitled to a user but is pending to be distributed is:\n        //\n        //   pending reward = (user.amount * pool.accEEEEPerShareTimes1e12) - user.rewardDebt\n        //\n        // Whenever a user deposits or withdraws LP tokens to a pool. Here's what happens:\n        //   Step 1. The pool's `accEEEEPerShareTimes1e12` (and `lastRewardBlock`) gets updated.\n        //   Step 2. User receives the pending reward sent to his/her address.\n        //   Step 3. User's `amount` gets updated.\n        //   Step 4. User's `rewardDebt` gets updated to reflect the reward already sent in Step 2.\n    }\n\n    // Info of each pool.\n    struct PoolInfo {\n        IERC20 stakedToken;       // Address of staked ERC20 and LP token contract.\n        uint256 allocPoint;       // How many allocation points assigned to this pool. Weighting of EEEEs to distribute per block vs. other pools.\n        uint256 lastRewardBlock;  // Last block number that EEEEs distribution occurs.\n        uint256 accEEEEPerShareTimes1e12; // Accumulated EEEEs per share, times 1e12. See below.\n    }\n\n\n\n    // Info of each pool.\n    PoolInfo[] public poolInfo;\n    // Info of each user that stakes ERC20 & LP tokens.\n    mapping (uint256 => mapping (address => UserInfo)) public userInfo;\n    // Total allocation poitns. Must be the sum of all allocation points in all pools.\n    uint256 public totalAllocPoint = 0;\n\n    // Farming of EEEE is enabled over a fixed number of blocks.\n    // The start block is configurable until it has passed, at which point it cannot be changed.\n    // When altering the start time the owner cannot start a farming sooner than 9200 blocks (~48 hours) in the future.\n    IERC20  public immutable dolphinToken;\n    uint256 public immutable eeeePerBlock; // Number of tokens minted per block, in phase1, accross all pools\n    uint256 public immutable durationInBlocks; // E.g. ~46000 = one week\n    uint256 public immutable minElapsedBlocksBeforeStart; // \n    uint256 public startBlock;\n    \n\n    // YYY_EEEE\n    mapping (IERC20 => bool) public supportedToken;\n\n    event Deposit(address indexed user, uint256 indexed pid, uint256 amount);\n    event Withdraw(address indexed user, uint256 indexed pid, uint256 amount);\n    event EmergencyWithdraw(address indexed user, uint256 indexed pid, uint256 amount);\n    event Schedule(uint256 _eeeePerBlock,\n        uint256 _durationInBlocks,\n        uint256 _minElapsedBlocksBeforeStart,\n        uint256 _startBlock);\n\n    constructor (\n        IERC20 eeee,\n        uint256 _eeeePerBlock, // 5e17wei = 0.5 eeee per block\n        uint256 _durationInBlocks,\n        uint256 _minElapsedBlocksBeforeStart,\n        uint256 _startBlock\n    ) public\n      validPhases {\n        dolphinToken = eeee;\n        require(_durationInBlocks > 0, \"invalid duration\");\n        eeeePerBlock = _eeeePerBlock; // 5e17wei = 0.5 eeee per block\n        durationInBlocks = _durationInBlocks;\n        startBlock = _startBlock;\n        minElapsedBlocksBeforeStart = _minElapsedBlocksBeforeStart;\n        require(block.number + _minElapsedBlocksBeforeStart < startBlock, \"not enough notice given\");\n\n        emit Schedule(_eeeePerBlock,\n                        _durationInBlocks,\n                        _minElapsedBlocksBeforeStart,\n                        _startBlock);\n    }\n\n    modifier validPhases {\n        _;\n    }\n\n    function poolLength() external view returns (uint256) {\n        return poolInfo.length;\n    }\n\n    // Change the start block for dolphin farming, as long as it hasn't started already\n    function setStartBlock(uint256 _block) public onlyOwner validPhases {\n        require(block.number + minElapsedBlocksBeforeStart < _block, \"setStartBlock: not enough notice given\");\n\n        if (block.number < startBlock) {\n            startBlock = _block;\n        } else {\n            require(false, \"setStartBlock: farming already started\");\n        }\n\n        emit Schedule(eeeePerBlock,\n                durationInBlocks,\n                minElapsedBlocksBeforeStart,\n                startBlock);\n    }\n\n\n    // Add a new erc20 or lp to the pool and update total allocation points accordingly. Can only be called by the owner.\n    function add(uint256 _allocPoint, IERC20 _stakedToken, bool _withUpdate) public onlyOwner {\n\n        // Each LP token can only be added once\n        require(!supportedToken[_stakedToken], \"add: duplicate token\");\n        supportedToken[_stakedToken] = true;\n\n        // Update rewards for other pools (best to do this if rewards are already active)\n        if (_withUpdate) {\n            massUpdatePools();\n        }\n\n\n        uint256 lastRewardBlock = block.number;\n        totalAllocPoint = totalAllocPoint.add(_allocPoint);\n        poolInfo.push(PoolInfo({\n            stakedToken: _stakedToken,\n            allocPoint: _allocPoint,\n            lastRewardBlock: lastRewardBlock,\n            accEEEEPerShareTimes1e12: 0\n        }));\n    }\n\n    // Update the given pool's EEEE allocation point, and the total allocaiton points. Can only be called by the owner.\n    function set(uint256 _pid, uint256 _allocPoint, bool _withUpdate) public onlyOwner {\n        if (_withUpdate) {\n            massUpdatePools();\n        }\n        totalAllocPoint = totalAllocPoint.sub(poolInfo[_pid].allocPoint).add(_allocPoint);\n        poolInfo[_pid].allocPoint = _allocPoint;\n    }\n\n\n\n    // Return reward multiplier over the given _from to _to block.\n    // This is just the number of blocks where rewards were active, unless a bonus was in effect for some or all of the block range.\n     function getMultiplier(uint256 _from, uint256 _to) public view returns (uint256 multiplier) {\n        uint256 effectiveFrom = Math.max(_from, startBlock);\n        uint256 effectiveTo = Math.min(_to, startBlock + durationInBlocks);\n\n        if (effectiveFrom < effectiveTo) {\n            multiplier = effectiveTo - effectiveFrom;\n        } else {    \n            multiplier = 0;\n        }\n    }\n\n    // View function to see pending EEEEs on frontend.\n    function pendingEEEE(uint256 _pid, address _user) external view returns (uint256) {\n        PoolInfo storage pool = poolInfo[_pid];\n        UserInfo storage user = userInfo[_pid][_user];\n        uint256 accEEEEPerShareTimes1e12 = pool.accEEEEPerShareTimes1e12;\n        uint256 stakedSupply = pool.stakedToken.balanceOf(address(this));\n        if (block.number > pool.lastRewardBlock && stakedSupply != 0) {\n            uint256 multiplier = getMultiplier(pool.lastRewardBlock, block.number);\n            uint256 eeeeReward = multiplier.mul(eeeePerBlock).mul(pool.allocPoint).div(totalAllocPoint);\n            accEEEEPerShareTimes1e12 = accEEEEPerShareTimes1e12.add(eeeeReward.mul(1e12).div(stakedSupply));\n        }\n        return user.amount.mul(accEEEEPerShareTimes1e12).div(1e12).sub(user.rewardDebt);\n    }\n\n    // Update reward variables for all pools. Be careful of gas spending!\n    function massUpdatePools() public {\n        uint256 length = poolInfo.length;\n        for (uint256 pid = 0; pid < length; ++pid) {\n            updatePool(pid);\n        }\n    }\n\n    // Update reward variables of the given pool to be up-to-date.\n    function updatePool(uint256 _pid) public {\n        PoolInfo storage pool = poolInfo[_pid];\n        if (block.number <= pool.lastRewardBlock) {\n            return;\n        }\n        uint256 stakedSupply = pool.stakedToken.balanceOf(address(this));\n        if (stakedSupply == 0) {\n            pool.lastRewardBlock = block.number;\n            return;\n        }\n        // multiplier = count of blocks since last reward calc (perhaps scaled up for bonuses)\n        uint256 multiplier = getMultiplier(pool.lastRewardBlock, block.number);\n\n        // eeeeReward = (scaled block count) * (rewards per block) * (this pool's % share of all block rewards)\n        uint256 eeeeReward = multiplier.mul(eeeePerBlock).mul(pool.allocPoint).div(totalAllocPoint);\n\n        // Update the reward that each ERC20 / LP token in this pool is due (same for each ERC20 / LP token since last reward calc)\n        pool.accEEEEPerShareTimes1e12 = pool.accEEEEPerShareTimes1e12.add(eeeeReward.mul(1e12).div(stakedSupply));\n        pool.lastRewardBlock = block.number;\n    }\n\n    // Deposit ERC20 / LP tokens to DolphinPod for EEEE allocation.\n    function deposit(uint256 _pid, uint256 _amount) public {\n        PoolInfo storage pool = poolInfo[_pid];\n        UserInfo storage user = userInfo[_pid][msg.sender];\n        updatePool(_pid);\n        if (user.amount > 0) {\n            uint256 pending = user.amount.mul(pool.accEEEEPerShareTimes1e12).div(1e12).sub(user.rewardDebt);\n            if(pending > 0) {\n                safeEEEETransfer(msg.sender, pending);\n            }\n        }\n        if(_amount > 0) {\n            pool.stakedToken.safeTransferFrom(address(msg.sender), address(this), _amount);\n            user.amount = user.amount.add(_amount);\n        }\n        user.rewardDebt = user.amount.mul(pool.accEEEEPerShareTimes1e12).div(1e12);\n        emit Deposit(msg.sender, _pid, _amount);\n    }\n\n    // Withdraw ERC20 / LP tokens from DolphinPod.\n    function withdraw(uint256 _pid, uint256 _amount) public {\n        PoolInfo storage pool = poolInfo[_pid];\n        UserInfo storage user = userInfo[_pid][msg.sender];\n        require(user.amount >= _amount, \"withdraw: not good\");\n        updatePool(_pid);\n        uint256 pending = user.amount.mul(pool.accEEEEPerShareTimes1e12).div(1e12).sub(user.rewardDebt);\n        if(pending > 0) {\n            safeEEEETransfer(msg.sender, pending);\n        }\n        if(_amount > 0) {\n            user.amount = user.amount.sub(_amount);\n            pool.stakedToken.safeTransfer(address(msg.sender), _amount);\n        }\n        user.rewardDebt = user.amount.mul(pool.accEEEEPerShareTimes1e12).div(1e12);\n        emit Withdraw(msg.sender, _pid, _amount);\n    }\n\n    // Withdraw without caring about rewards. EMERGENCY ONLY.\n    function emergencyWithdraw(uint256 _pid) public {\n        PoolInfo storage pool = poolInfo[_pid];\n        UserInfo storage user = userInfo[_pid][msg.sender];\n        pool.stakedToken.safeTransfer(address(msg.sender), user.amount);\n        emit EmergencyWithdraw(msg.sender, _pid, user.amount);\n        user.amount = 0;\n        user.rewardDebt = 0;\n    }\n\n    // Safe eeee transfer function, just in case rounding errors cause us not to have enough EEEEs.\n    function safeEEEETransfer(address _to, uint256 _amount) internal {\n        uint256 eeeeBal = dolphinToken.balanceOf(address(this));\n        if (_amount > eeeeBal) {\n            dolphinToken.safeTransfer(_to, eeeeBal);\n        } else {\n            dolphinToken.safeTransfer(_to, _amount);\n        }\n    }\n\n    // Allows dev to sweep any tokens left in the contract, but only after farming has completed\n     function cleanUpFarm() public onlyOwner {\n        uint256 farmingEndBlock = startBlock + durationInBlocks;  \n        require(block.number > farmingEndBlock, \"farming hasn't finished yet\");\n        safeEEEETransfer(msg.sender, dolphinToken.balanceOf(address(this)));\n    }\n}\n",
  "sourcePath": "/mnt/c/dev/dolphinsWTF/contracts/DolphinPod.sol",
  "compiler": {
    "name": "solc",
    "version": "0.6.12+commit.27d51765.Emscripten.clang"
  },
  "schemaVersion": "3.3.2",
  "updatedAt": "2020-11-19T16:17:29.123Z",
  "networkType": "ethereum",
  "devdoc": {
    "kind": "dev",
    "methods": {
      "owner()": {
        "details": "Returns the address of the current owner."
      },
      "renounceOwnership()": {
        "details": "Leaves the contract without owner. It will not be possible to call `onlyOwner` functions anymore. Can only be called by the current owner. NOTE: Renouncing ownership will leave the contract without an owner, thereby removing any functionality that is only available to the owner."
      },
      "transferOwnership(address)": {
        "details": "Transfers ownership of the contract to a new account (`newOwner`). Can only be called by the current owner."
      }
    },
    "version": 1
  },
  "userdoc": {
    "kind": "user",
    "methods": {},
    "version": 1
  }
}