{
  "contractName": "eeee",
  "abi": [
    {
      "inputs": [],
      "stateMutability": "nonpayable",
      "type": "constructor"
    },
    {
      "anonymous": false,
      "inputs": [
        {
          "indexed": true,
          "internalType": "address",
          "name": "owner",
          "type": "address"
        },
        {
          "indexed": true,
          "internalType": "address",
          "name": "spender",
          "type": "address"
        },
        {
          "indexed": false,
          "internalType": "uint256",
          "name": "value",
          "type": "uint256"
        }
      ],
      "name": "Approval",
      "type": "event"
    },
    {
      "anonymous": false,
      "inputs": [
        {
          "indexed": true,
          "internalType": "address",
          "name": "previousOwner",
          "type": "address"
        },
        {
          "indexed": true,
          "internalType": "address",
          "name": "newOwner",
          "type": "address"
        }
      ],
      "name": "OwnershipTransferred",
      "type": "event"
    },
    {
      "anonymous": false,
      "inputs": [
        {
          "indexed": true,
          "internalType": "address",
          "name": "from",
          "type": "address"
        },
        {
          "indexed": true,
          "internalType": "address",
          "name": "to",
          "type": "address"
        },
        {
          "indexed": false,
          "internalType": "uint256",
          "name": "value",
          "type": "uint256"
        }
      ],
      "name": "Transfer",
      "type": "event"
    },
    {
      "inputs": [],
      "name": "_UniLP",
      "outputs": [
        {
          "internalType": "address",
          "name": "",
          "type": "address"
        }
      ],
      "stateMutability": "view",
      "type": "function",
      "constant": true
    },
    {
      "inputs": [],
      "name": "_bottlenose",
      "outputs": [
        {
          "internalType": "uint256",
          "name": "",
          "type": "uint256"
        }
      ],
      "stateMutability": "view",
      "type": "function",
      "constant": true
    },
    {
      "inputs": [],
      "name": "_coolDownTime",
      "outputs": [
        {
          "internalType": "uint256",
          "name": "",
          "type": "uint256"
        }
      ],
      "stateMutability": "view",
      "type": "function",
      "constant": true
    },
    {
      "inputs": [],
      "name": "_devCanEat",
      "outputs": [
        {
          "internalType": "bool",
          "name": "",
          "type": "bool"
        }
      ],
      "stateMutability": "view",
      "type": "function",
      "constant": true
    },
    {
      "inputs": [],
      "name": "_devFoodBucket",
      "outputs": [
        {
          "internalType": "uint256",
          "name": "",
          "type": "uint256"
        }
      ],
      "stateMutability": "view",
      "type": "function",
      "constant": true
    },
    {
      "inputs": [],
      "name": "_feeLevel1",
      "outputs": [
        {
          "internalType": "uint256",
          "name": "",
          "type": "uint256"
        }
      ],
      "stateMutability": "view",
      "type": "function",
      "constant": true
    },
    {
      "inputs": [],
      "name": "_feeLevel2",
      "outputs": [
        {
          "internalType": "uint256",
          "name": "",
          "type": "uint256"
        }
      ],
      "stateMutability": "view",
      "type": "function",
      "constant": true
    },
    {
      "inputs": [],
      "name": "_flipper",
      "outputs": [
        {
          "internalType": "uint256",
          "name": "",
          "type": "uint256"
        }
      ],
      "stateMutability": "view",
      "type": "function",
      "constant": true
    },
    {
      "inputs": [],
      "name": "_gameStarted",
      "outputs": [
        {
          "internalType": "bool",
          "name": "",
          "type": "bool"
        }
      ],
      "stateMutability": "view",
      "type": "function",
      "constant": true
    },
    {
      "inputs": [],
      "name": "_isAnarchy",
      "outputs": [
        {
          "internalType": "bool",
          "name": "",
          "type": "bool"
        }
      ],
      "stateMutability": "view",
      "type": "function",
      "constant": true
    },
    {
      "inputs": [],
      "name": "_lastUpdated",
      "outputs": [
        {
          "internalType": "uint256",
          "name": "",
          "type": "uint256"
        }
      ],
      "stateMutability": "view",
      "type": "function",
      "constant": true
    },
    {
      "inputs": [],
      "name": "_lpMin",
      "outputs": [
        {
          "internalType": "uint256",
          "name": "",
          "type": "uint256"
        }
      ],
      "stateMutability": "view",
      "type": "function",
      "constant": true
    },
    {
      "inputs": [],
      "name": "_orca",
      "outputs": [
        {
          "internalType": "uint256",
          "name": "",
          "type": "uint256"
        }
      ],
      "stateMutability": "view",
      "type": "function",
      "constant": true
    },
    {
      "inputs": [],
      "name": "_owner",
      "outputs": [
        {
          "internalType": "address",
          "name": "",
          "type": "address"
        }
      ],
      "stateMutability": "view",
      "type": "function",
      "constant": true
    },
    {
      "inputs": [],
      "name": "_peter",
      "outputs": [
        {
          "internalType": "uint256",
          "name": "",
          "type": "uint256"
        }
      ],
      "stateMutability": "view",
      "type": "function",
      "constant": true
    },
    {
      "inputs": [],
      "name": "_river",
      "outputs": [
        {
          "internalType": "uint256",
          "name": "",
          "type": "uint256"
        }
      ],
      "stateMutability": "view",
      "type": "function",
      "constant": true
    },
    {
      "inputs": [],
      "name": "_snatchPool",
      "outputs": [
        {
          "internalType": "uint256",
          "name": "",
          "type": "uint256"
        }
      ],
      "stateMutability": "view",
      "type": "function",
      "constant": true
    },
    {
      "inputs": [],
      "name": "_snatchRate",
      "outputs": [
        {
          "internalType": "uint256",
          "name": "",
          "type": "uint256"
        }
      ],
      "stateMutability": "view",
      "type": "function",
      "constant": true
    },
    {
      "inputs": [
        {
          "internalType": "address",
          "name": "owner",
          "type": "address"
        },
        {
          "internalType": "address",
          "name": "spender",
          "type": "address"
        }
      ],
      "name": "allowance",
      "outputs": [
        {
          "internalType": "uint256",
          "name": "",
          "type": "uint256"
        }
      ],
      "stateMutability": "view",
      "type": "function",
      "constant": true
    },
    {
      "inputs": [
        {
          "internalType": "address",
          "name": "spender",
          "type": "address"
        },
        {
          "internalType": "uint256",
          "name": "amount",
          "type": "uint256"
        }
      ],
      "name": "approve",
      "outputs": [
        {
          "internalType": "bool",
          "name": "",
          "type": "bool"
        }
      ],
      "stateMutability": "nonpayable",
      "type": "function"
    },
    {
      "inputs": [
        {
          "internalType": "address",
          "name": "account",
          "type": "address"
        }
      ],
      "name": "balanceOf",
      "outputs": [
        {
          "internalType": "uint256",
          "name": "",
          "type": "uint256"
        }
      ],
      "stateMutability": "view",
      "type": "function",
      "constant": true
    },
    {
      "inputs": [],
      "name": "cap",
      "outputs": [
        {
          "internalType": "uint256",
          "name": "",
          "type": "uint256"
        }
      ],
      "stateMutability": "view",
      "type": "function",
      "constant": true
    },
    {
      "inputs": [],
      "name": "decimals",
      "outputs": [
        {
          "internalType": "uint8",
          "name": "",
          "type": "uint8"
        }
      ],
      "stateMutability": "view",
      "type": "function",
      "constant": true
    },
    {
      "inputs": [
        {
          "internalType": "address",
          "name": "spender",
          "type": "address"
        },
        {
          "internalType": "uint256",
          "name": "subtractedValue",
          "type": "uint256"
        }
      ],
      "name": "decreaseAllowance",
      "outputs": [
        {
          "internalType": "bool",
          "name": "",
          "type": "bool"
        }
      ],
      "stateMutability": "nonpayable",
      "type": "function"
    },
    {
      "inputs": [
        {
          "internalType": "address",
          "name": "spender",
          "type": "address"
        },
        {
          "internalType": "uint256",
          "name": "addedValue",
          "type": "uint256"
        }
      ],
      "name": "increaseAllowance",
      "outputs": [
        {
          "internalType": "bool",
          "name": "",
          "type": "bool"
        }
      ],
      "stateMutability": "nonpayable",
      "type": "function"
    },
    {
      "inputs": [],
      "name": "name",
      "outputs": [
        {
          "internalType": "string",
          "name": "",
          "type": "string"
        }
      ],
      "stateMutability": "view",
      "type": "function",
      "constant": true
    },
    {
      "inputs": [],
      "name": "owner",
      "outputs": [
        {
          "internalType": "address",
          "name": "",
          "type": "address"
        }
      ],
      "stateMutability": "view",
      "type": "function",
      "constant": true
    },
    {
      "inputs": [],
      "name": "renounceOwnership",
      "outputs": [],
      "stateMutability": "nonpayable",
      "type": "function"
    },
    {
      "inputs": [],
      "name": "symbol",
      "outputs": [
        {
          "internalType": "string",
          "name": "",
          "type": "string"
        }
      ],
      "stateMutability": "view",
      "type": "function",
      "constant": true
    },
    {
      "inputs": [],
      "name": "totalSupply",
      "outputs": [
        {
          "internalType": "uint256",
          "name": "",
          "type": "uint256"
        }
      ],
      "stateMutability": "view",
      "type": "function",
      "constant": true
    },
    {
      "inputs": [
        {
          "internalType": "address",
          "name": "recipient",
          "type": "address"
        },
        {
          "internalType": "uint256",
          "name": "amount",
          "type": "uint256"
        }
      ],
      "name": "transfer",
      "outputs": [
        {
          "internalType": "bool",
          "name": "",
          "type": "bool"
        }
      ],
      "stateMutability": "nonpayable",
      "type": "function"
    },
    {
      "inputs": [
        {
          "internalType": "address",
          "name": "sender",
          "type": "address"
        },
        {
          "internalType": "address",
          "name": "recipient",
          "type": "address"
        },
        {
          "internalType": "uint256",
          "name": "amount",
          "type": "uint256"
        }
      ],
      "name": "transferFrom",
      "outputs": [
        {
          "internalType": "bool",
          "name": "",
          "type": "bool"
        }
      ],
      "stateMutability": "nonpayable",
      "type": "function"
    },
    {
      "inputs": [
        {
          "internalType": "address",
          "name": "newOwner",
          "type": "address"
        }
      ],
      "name": "transferOwnership",
      "outputs": [],
      "stateMutability": "nonpayable",
      "type": "function"
    },
    {
      "inputs": [],
      "name": "uniLPBalance",
      "outputs": [
        {
          "internalType": "uint256",
          "name": "",
          "type": "uint256"
        }
      ],
      "stateMutability": "view",
      "type": "function",
      "constant": true
    },
    {
      "inputs": [],
      "name": "amILP",
      "outputs": [
        {
          "internalType": "bool",
          "name": "",
          "type": "bool"
        }
      ],
      "stateMutability": "view",
      "type": "function",
      "constant": true
    },
    {
      "inputs": [],
      "name": "amIOrca",
      "outputs": [
        {
          "internalType": "bool",
          "name": "",
          "type": "bool"
        }
      ],
      "stateMutability": "view",
      "type": "function",
      "constant": true
    },
    {
      "inputs": [],
      "name": "amIRiver",
      "outputs": [
        {
          "internalType": "bool",
          "name": "",
          "type": "bool"
        }
      ],
      "stateMutability": "view",
      "type": "function",
      "constant": true
    },
    {
      "inputs": [],
      "name": "amIBottlenose",
      "outputs": [
        {
          "internalType": "bool",
          "name": "",
          "type": "bool"
        }
      ],
      "stateMutability": "view",
      "type": "function",
      "constant": true
    },
    {
      "inputs": [],
      "name": "amIFlipper",
      "outputs": [
        {
          "internalType": "bool",
          "name": "",
          "type": "bool"
        }
      ],
      "stateMutability": "view",
      "type": "function",
      "constant": true
    },
    {
      "inputs": [],
      "name": "amIPeter",
      "outputs": [
        {
          "internalType": "bool",
          "name": "",
          "type": "bool"
        }
      ],
      "stateMutability": "view",
      "type": "function",
      "constant": true
    },
    {
      "inputs": [],
      "name": "dolphinhoodLevel",
      "outputs": [
        {
          "internalType": "string",
          "name": "",
          "type": "string"
        }
      ],
      "stateMutability": "view",
      "type": "function",
      "constant": true
    },
    {
      "inputs": [],
      "name": "snatchFood",
      "outputs": [],
      "stateMutability": "nonpayable",
      "type": "function"
    },
    {
      "inputs": [
        {
          "internalType": "uint256",
          "name": "EEEEtoSnatchPool",
          "type": "uint256"
        }
      ],
      "name": "fundSnatch",
      "outputs": [],
      "stateMutability": "nonpayable",
      "type": "function"
    },
    {
      "inputs": [
        {
          "internalType": "uint256",
          "name": "EEEEtoDevFood",
          "type": "uint256"
        }
      ],
      "name": "fundDev",
      "outputs": [],
      "stateMutability": "nonpayable",
      "type": "function"
    },
    {
      "inputs": [],
      "name": "checkSnatchBalance",
      "outputs": [
        {
          "internalType": "uint256",
          "name": "",
          "type": "uint256"
        }
      ],
      "stateMutability": "view",
      "type": "function",
      "constant": true
    },
    {
      "inputs": [],
      "name": "checkDevBalance",
      "outputs": [
        {
          "internalType": "uint256",
          "name": "",
          "type": "uint256"
        }
      ],
      "stateMutability": "view",
      "type": "function",
      "constant": true
    },
    {
      "inputs": [],
      "name": "startGame",
      "outputs": [],
      "stateMutability": "nonpayable",
      "type": "function"
    },
    {
      "inputs": [],
      "name": "endGame",
      "outputs": [],
      "stateMutability": "nonpayable",
      "type": "function"
    },
    {
      "inputs": [],
      "name": "readGameStatus",
      "outputs": [
        {
          "internalType": "bool",
          "name": "",
          "type": "bool"
        }
      ],
      "stateMutability": "view",
      "type": "function",
      "constant": true
    },
    {
      "inputs": [],
      "name": "allowDevToEat",
      "outputs": [],
      "stateMutability": "nonpayable",
      "type": "function"
    },
    {
      "inputs": [
        {
          "internalType": "uint256",
          "name": "newSnatchRate",
          "type": "uint256"
        }
      ],
      "name": "changeSnatchRate",
      "outputs": [],
      "stateMutability": "nonpayable",
      "type": "function"
    },
    {
      "inputs": [
        {
          "internalType": "uint256",
          "name": "newSnatchRate",
          "type": "uint256"
        }
      ],
      "name": "changeSnatchRateHigh",
      "outputs": [],
      "stateMutability": "nonpayable",
      "type": "function"
    },
    {
      "inputs": [
        {
          "internalType": "uint256",
          "name": "newCoolDown",
          "type": "uint256"
        }
      ],
      "name": "updateCoolDown",
      "outputs": [],
      "stateMutability": "nonpayable",
      "type": "function"
    },
    {
      "inputs": [
        {
          "internalType": "uint256",
          "name": "updatedThreshold",
          "type": "uint256"
        }
      ],
      "name": "updateOrca",
      "outputs": [],
      "stateMutability": "nonpayable",
      "type": "function"
    },
    {
      "inputs": [
        {
          "internalType": "uint256",
          "name": "updatedThreshold",
          "type": "uint256"
        }
      ],
      "name": "updateRiver",
      "outputs": [],
      "stateMutability": "nonpayable",
      "type": "function"
    },
    {
      "inputs": [
        {
          "internalType": "uint256",
          "name": "updatedThreshold",
          "type": "uint256"
        }
      ],
      "name": "updateBottlenose",
      "outputs": [],
      "stateMutability": "nonpayable",
      "type": "function"
    },
    {
      "inputs": [],
      "name": "activateAnarchy",
      "outputs": [],
      "stateMutability": "nonpayable",
      "type": "function"
    },
    {
      "inputs": [],
      "name": "feedDev",
      "outputs": [],
      "stateMutability": "nonpayable",
      "type": "function"
    },
    {
      "inputs": [
        {
          "internalType": "uint256",
          "name": "newFeeLevel1",
          "type": "uint256"
        },
        {
          "internalType": "uint256",
          "name": "newFeeLevel2",
          "type": "uint256"
        }
      ],
      "name": "changeFunctionFees",
      "outputs": [],
      "stateMutability": "nonpayable",
      "type": "function"
    },
    {
      "inputs": [
        {
          "internalType": "address",
          "name": "addrUniV2LP",
          "type": "address"
        },
        {
          "internalType": "uint256",
          "name": "lpMin",
          "type": "uint256"
        }
      ],
      "name": "setLP",
      "outputs": [],
      "stateMutability": "nonpayable",
      "type": "function"
    },
    {
      "inputs": [
        {
          "internalType": "address",
          "name": "_to",
          "type": "address"
        },
        {
          "internalType": "uint256",
          "name": "amount",
          "type": "uint256"
        }
      ],
      "name": "mint",
      "outputs": [],
      "stateMutability": "nonpayable",
      "type": "function"
    }
  ],
  "bytecode": "0x60806040523480156200001157600080fd5b506908e890a7c0e2a43400006040518060400160405280600c81526020017f646f6c7068696e732e77746600000000000000000000000000000000000000008152506040518060400160405280600481526020017f45454545000000000000000000000000000000000000000000000000000000008152508160039080519060200190620000a192919062000806565b508060049080519060200190620000ba92919062000806565b506012600560006101000a81548160ff021916908360ff16021790555050506000811162000150576040517f08c379a00000000000000000000000000000000000000000000000000000000081526004018080602001828103825260158152602001807f45524332304361707065643a206361702069732030000000000000000000000081525060200191505060405180910390fd5b806006819055505060006200016a620003d560201b60201c565b905080600760006101000a81548173ffffffffffffffffffffffffffffffffffffffff021916908373ffffffffffffffffffffffffffffffffffffffff1602179055508073ffffffffffffffffffffffffffffffffffffffff16600073ffffffffffffffffffffffffffffffffffffffff167f8be0079c531659141344cd1fd0a4f28419497f9722a3daafe3b4186f6b6457e060405160405180910390a3506000600760146101000a81548160ff021916908315150217905550610e106009819055506000600d60006101000a81548160ff0219169083151502179055506000600d60016101000a81548160ff0219169083151502179055506001600a819055506803bd913e6c1df40000600e819055506816ce3f1e16bf150000600f819055506872073b9671bb69000060108190555068e40e772ce376d200006011819055506904744853e071521a000060128190555060016015819055506000601460006101000a81548173ffffffffffffffffffffffffffffffffffffffff021916908373ffffffffffffffffffffffffffffffffffffffff160217905550670de0b6b3a7640000601681905550674563918244f4000060178190555033601360006101000a81548173ffffffffffffffffffffffffffffffffffffffff021916908373ffffffffffffffffffffffffffffffffffffffff16021790555062000381336908e890a7c0e2a4340000620003dd60201b60201c565b6908e890a7c0e2a4340000601860003373ffffffffffffffffffffffffffffffffffffffff1673ffffffffffffffffffffffffffffffffffffffff16815260200190815260200160002081905550620008ac565b600033905090565b601360009054906101000a900473ffffffffffffffffffffffffffffffffffffffff1673ffffffffffffffffffffffffffffffffffffffff163373ffffffffffffffffffffffffffffffffffffffff161462000485576040517f08c379a0000000000000000000000000000000000000000000000000000000008152600401808060200182810382526023815260200180620053fb6023913960400191505060405180910390fd5b6200049782826200049b60201b60201c565b5050565b600073ffffffffffffffffffffffffffffffffffffffff168273ffffffffffffffffffffffffffffffffffffffff1614156200053f576040517f08c379a000000000000000000000000000000000000000000000000000000000815260040180806020018281038252601f8152602001807f45524332303a206d696e7420746f20746865207a65726f20616464726573730081525060200191505060405180910390fd5b62000553600083836200067960201b60201c565b6200056f816002546200076e60201b6200380f1790919060201c565b600281905550620005cd816000808573ffffffffffffffffffffffffffffffffffffffff1673ffffffffffffffffffffffffffffffffffffffff168152602001908152602001600020546200076e60201b6200380f1790919060201c565b6000808473ffffffffffffffffffffffffffffffffffffffff1673ffffffffffffffffffffffffffffffffffffffff168152602001908152602001600020819055508173ffffffffffffffffffffffffffffffffffffffff16600073ffffffffffffffffffffffffffffffffffffffff167fddf252ad1be2c89b69c2b068fc378daa952ba7f163c4a11628f55a4df523b3ef836040518082815260200191505060405180910390a35050565b62000691838383620007f760201b620038971760201c565b600073ffffffffffffffffffffffffffffffffffffffff168373ffffffffffffffffffffffffffffffffffffffff1614156200076957600654620006f382620006df620007fc60201b60201c565b6200076e60201b6200380f1790919060201c565b111562000768576040517f08c379a00000000000000000000000000000000000000000000000000000000081526004018080602001828103825260198152602001807f45524332304361707065643a206361702065786365656465640000000000000081525060200191505060405180910390fd5b5b505050565b600080828401905083811015620007ed576040517f08c379a000000000000000000000000000000000000000000000000000000000815260040180806020018281038252601b8152602001807f536166654d6174683a206164646974696f6e206f766572666c6f77000000000081525060200191505060405180910390fd5b8091505092915050565b505050565b6000600254905090565b828054600181600116156101000203166002900490600052602060002090601f016020900481019282601f106200084957805160ff19168380011785556200087a565b828001600101855582156200087a579182015b82811115620008795782518255916020019190600101906200085c565b5b5090506200088991906200088d565b5090565b5b80821115620008a85760008160009055506001016200088e565b5090565b614b3f80620008bc6000396000f3fe608060405234801561001057600080fd5b50600436106103af5760003560e01c80636cbc2ded116101f4578063bbfacbc71161011a578063d8b77346116100ad578063e35fb5d81161007c578063e35fb5d814610e6e578063eda5546814610e8c578063f2fde38b14610e96578063f3c7454314610eda576103af565b8063d8b7734614610d8a578063d8eeccc314610daa578063db5ca09d14610dd8578063dd62ed3e14610df6576103af565b8063c7f89159116100e9578063c7f8915914610d0c578063c9540fd914610d2a578063cdd6015314610d48578063d65ab5f214610d80576103af565b8063bbfacbc714610c7c578063bfa73f3614610c9a578063c4a46e3c14610cce578063c520b54c14610cee576103af565b80638a5b4aec11610192578063a457c2d711610161578063a457c2d714610b62578063a9059cbb14610bc6578063aee66ee014610c2a578063b2bdfa7b14610c48576103af565b80638a5b4aec14610a0a5780638c73426314610a8d5780638da5cb5b14610aab57806395d89b4114610adf576103af565b806378dcd952116101ce57806378dcd952146109945780637d1c2b52146109c25780637f7432e0146109e257806382c518fe14610a00576103af565b80636cbc2ded1461092857806370a0823114610932578063715018a61461098a576103af565b80633686cf79116102d95780634c6762a2116102775780635c0ebd62116102465780635c0ebd62146108905780635d90b87c146108ae5780636284f02d146108cc5780636648cb1d146108fa576103af565b80634c6762a21461080457806350f0e4321461083257806359170dbd1461085057806359994c9814610870576103af565b806340c10f19116102b357806340c10f1914610758578063435c0878146107a657806345207bb2146107c65780634837f83c146107e6576103af565b80633686cf7914610686578063379990d6146106a657806339509351146106f4576103af565b806316033f501161035157806323b872dd1161032057806323b872dd146105955780632a47c85e14610619578063313ce56714610647578063355274ea14610668576103af565b806316033f501461050b57806318160ddd1461052b578063197f41ce146105495780631ef7a59d14610567576103af565b80630b2cbb051161038d5780630b2cbb05146104a55780631233e4b6146104af578063123dda3f146104cd57806314d7794a146104eb576103af565b806306fdde03146103b457806307f89d5a14610437578063095ea7b314610441575b600080fd5b6103bc610f08565b6040518080602001828103825283818151815260200191508051906020019080838360005b838110156103fc5780820151818401526020810190506103e1565b50505050905090810190601f1680156104295780820380516001836020036101000a031916815260200191505b509250505060405180910390f35b61043f610faa565b005b61048d6004803603604081101561045757600080fd5b81019080803573ffffffffffffffffffffffffffffffffffffffff16906020019092919080359060200190929190505050611139565b60405180821515815260200191505060405180910390f35b6104ad611157565b005b6104b7611320565b6040518082815260200191505060405180910390f35b6104d5611326565b6040518082815260200191505060405180910390f35b6104f361132c565b60405180821515815260200191505060405180910390f35b610513611343565b60405180821515815260200191505060405180910390f35b6105336113a2565b6040518082815260200191505060405180910390f35b6105516113ac565b6040518082815260200191505060405180910390f35b6105936004803603602081101561057d57600080fd5b81019080803590602001909291905050506113b6565b005b610601600480360360608110156105ab57600080fd5b81019080803573ffffffffffffffffffffffffffffffffffffffff169060200190929190803573ffffffffffffffffffffffffffffffffffffffff169060200190929190803590602001909291905050506114c6565b60405180821515815260200191505060405180910390f35b6106456004803603602081101561062f57600080fd5b810190808035906020019092919050505061159f565b005b61064f611652565b604051808260ff16815260200191505060405180910390f35b610670611669565b6040518082815260200191505060405180910390f35b61068e611673565b60405180821515815260200191505060405180910390f35b6106f2600480360360408110156106bc57600080fd5b81019080803573ffffffffffffffffffffffffffffffffffffffff16906020019092919080359060200190929190505050611741565b005b6107406004803603604081101561070a57600080fd5b81019080803573ffffffffffffffffffffffffffffffffffffffff16906020019092919080359060200190929190505050611833565b60405180821515815260200191505060405180910390f35b6107a46004803603604081101561076e57600080fd5b81019080803573ffffffffffffffffffffffffffffffffffffffff169060200190929190803590602001909291905050506118e6565b005b6107ae61199a565b60405180821515815260200191505060405180910390f35b6107ce6119ad565b60405180821515815260200191505060405180910390f35b6107ee6119c0565b6040518082815260200191505060405180910390f35b6108306004803603602081101561081a57600080fd5b8101908080359060200190929190505050611a90565b005b61083a611cd8565b6040518082815260200191505060405180910390f35b610858611cde565b60405180821515815260200191505060405180910390f35b610878611d65565b60405180821515815260200191505060405180910390f35b610898611dc4565b6040518082815260200191505060405180910390f35b6108b6611dca565b6040518082815260200191505060405180910390f35b6108f8600480360360208110156108e257600080fd5b8101908080359060200190929190505050611dd0565b005b6109266004803603602081101561091057600080fd5b8101908080359060200190929190505050612018565b005b6109306121be565b005b6109746004803603602081101561094857600080fd5b81019080803573ffffffffffffffffffffffffffffffffffffffff169060200190929190505050612392565b6040518082815260200191505060405180910390f35b6109926123da565b005b6109c0600480360360208110156109aa57600080fd5b8101908080359060200190929190505050612565565b005b6109ca6126ee565b60405180821515815260200191505060405180910390f35b6109ea61274d565b6040518082815260200191505060405180910390f35b610a08612753565b005b610a126128e3565b6040518080602001828103825283818151815260200191508051906020019080838360005b83811015610a52578082015181840152602081019050610a37565b50505050905090810190601f168015610a7f5780820380516001836020036101000a031916815260200191505b509250505060405180910390f35b610a95612add565b6040518082815260200191505060405180910390f35b610ab3612ae3565b604051808273ffffffffffffffffffffffffffffffffffffffff16815260200191505060405180910390f35b610ae7612b0d565b6040518080602001828103825283818151815260200191508051906020019080838360005b83811015610b27578082015181840152602081019050610b0c565b50505050905090810190601f168015610b545780820380516001836020036101000a031916815260200191505b509250505060405180910390f35b610bae60048036036040811015610b7857600080fd5b81019080803573ffffffffffffffffffffffffffffffffffffffff16906020019092919080359060200190929190505050612baf565b60405180821515815260200191505060405180910390f35b610c1260048036036040811015610bdc57600080fd5b81019080803573ffffffffffffffffffffffffffffffffffffffff16906020019092919080359060200190929190505050612c7c565b60405180821515815260200191505060405180910390f35b610c32612c9a565b6040518082815260200191505060405180910390f35b610c50612ca0565b604051808273ffffffffffffffffffffffffffffffffffffffff16815260200191505060405180910390f35b610c84612cc6565b6040518082815260200191505060405180910390f35b610ca2612ccc565b604051808273ffffffffffffffffffffffffffffffffffffffff16815260200191505060405180910390f35b610cd6612cf2565b60405180821515815260200191505060405180910390f35b610cf6612d51565b6040518082815260200191505060405180910390f35b610d14612d5b565b6040518082815260200191505060405180910390f35b610d32612d61565b6040518082815260200191505060405180910390f35b610d7e60048036036040811015610d5e57600080fd5b810190808035906020019092919080359060200190929190505050612d67565b005b610d88612e26565b005b610d92612fde565b60405180821515815260200191505060405180910390f35b610dd660048036036020811015610dc057600080fd5b8101908080359060200190929190505050612ff1565b005b610de0613239565b6040518082815260200191505060405180910390f35b610e5860048036036040811015610e0c57600080fd5b81019080803573ffffffffffffffffffffffffffffffffffffffff169060200190929190803573ffffffffffffffffffffffffffffffffffffffff16906020019092919050505061323f565b6040518082815260200191505060405180910390f35b610e766132c6565b6040518082815260200191505060405180910390f35b610e946132cc565b005b610ed860048036036020811015610eac57600080fd5b81019080803573ffffffffffffffffffffffffffffffffffffffff169060200190929190505050613455565b005b610f0660048036036020811015610ef057600080fd5b8101908080359060200190929190505050613665565b005b606060038054600181600116156101000203166002900480601f016020809104026020016040519081016040528092919081815260200182805460018160011615610100020316600290048015610fa05780601f10610f7557610100808354040283529160200191610fa0565b820191906000526020600020905b815481529060010190602001808311610f8357829003601f168201915b5050505050905090565b610fb2611cde565b611024576040517f08c379a000000000000000000000000000000000000000000000000000000000815260040180806020018281038252601d8152602001807f456565652120596f75277265206e6f74206576656e20616e206f72636100000081525060200191505060405180910390fd5b60095460085401421161103657600080fd5b662386f26fc10000600b541015611098576040517f08c379a00000000000000000000000000000000000000000000000000000000081526004018080602001828103825260368152602001806148ee6036913960400191505060405180910390fd5b6110ec600b54601860003373ffffffffffffffffffffffffffffffffffffffff1673ffffffffffffffffffffffffffffffffffffffff1681526020019081526020016000205461380f90919063ffffffff16565b601860003373ffffffffffffffffffffffffffffffffffffffff1673ffffffffffffffffffffffffffffffffffffffff168152602001908152602001600020819055506000600b81905550565b600061114d61114661389c565b84846138a4565b6001905092915050565b601360009054906101000a900473ffffffffffffffffffffffffffffffffffffffff1673ffffffffffffffffffffffffffffffffffffffff163373ffffffffffffffffffffffffffffffffffffffff16146111fd576040517f08c379a00000000000000000000000000000000000000000000000000000000081526004018080602001828103825260238152602001806149b56023913960400191505060405180910390fd5b600d60009054906101000a900460ff1661127f576040517f08c379a000000000000000000000000000000000000000000000000000000000815260040180806020018281038252601c8152602001807f736f727279206465762c206e6f2073637261707320666f7220796f750000000081525060200191505060405180910390fd5b6112d3600c54601860003373ffffffffffffffffffffffffffffffffffffffff1673ffffffffffffffffffffffffffffffffffffffff1681526020019081526020016000205461380f90919063ffffffff16565b601860003373ffffffffffffffffffffffffffffffffffffffff1673ffffffffffffffffffffffffffffffffffffffff168152602001908152602001600020819055506000600c81905550565b600e5481565b60095481565b6000600760149054906101000a900460ff16905090565b600080600f54601860003373ffffffffffffffffffffffffffffffffffffffff1673ffffffffffffffffffffffffffffffffffffffff168152602001908152602001600020541015611396576000611399565b60015b90508091505090565b6000600254905090565b6000600c54905090565b61140881601860003373ffffffffffffffffffffffffffffffffffffffff1673ffffffffffffffffffffffffffffffffffffffff16815260200190815260200160002054613a9b90919063ffffffff16565b601860003373ffffffffffffffffffffffffffffffffffffffff1673ffffffffffffffffffffffffffffffffffffffff1681526020019081526020016000208190555061146081600b5461380f90919063ffffffff16565b600b81905550601360009054906101000a900473ffffffffffffffffffffffffffffffffffffffff1673ffffffffffffffffffffffffffffffffffffffff163373ffffffffffffffffffffffffffffffffffffffff16146114c357426008819055505b50565b60006114d3848484613ae5565b611594846114df61389c565b61158f856040518060600160405280602881526020016149f960289139600160008b73ffffffffffffffffffffffffffffffffffffffff1673ffffffffffffffffffffffffffffffffffffffff168152602001908152602001600020600061154561389c565b73ffffffffffffffffffffffffffffffffffffffff1673ffffffffffffffffffffffffffffffffffffffff16815260200190815260200160002054613e169092919063ffffffff16565b6138a4565b600190509392505050565b6115f181601860003373ffffffffffffffffffffffffffffffffffffffff1673ffffffffffffffffffffffffffffffffffffffff16815260200190815260200160002054613a9b90919063ffffffff16565b601860003373ffffffffffffffffffffffffffffffffffffffff1673ffffffffffffffffffffffffffffffffffffffff1681526020019081526020016000208190555061164981600c5461380f90919063ffffffff16565b600c8190555050565b6000600560009054906101000a900460ff16905090565b6000600654905090565b60008073ffffffffffffffffffffffffffffffffffffffff16601460009054906101000a900473ffffffffffffffffffffffffffffffffffffffff1673ffffffffffffffffffffffffffffffffffffffff16141561171c576040517f08c379a0000000000000000000000000000000000000000000000000000000008152600401808060200182810382526026815260200180614abf6026913960400191505060405180910390fd5b60006015546117296119c0565b11611735576000611738565b60015b90508091505090565b601360009054906101000a900473ffffffffffffffffffffffffffffffffffffffff1673ffffffffffffffffffffffffffffffffffffffff163373ffffffffffffffffffffffffffffffffffffffff16146117e7576040517f08c379a00000000000000000000000000000000000000000000000000000000081526004018080602001828103825260238152602001806149b56023913960400191505060405180910390fd5b81601460006101000a81548173ffffffffffffffffffffffffffffffffffffffff021916908373ffffffffffffffffffffffffffffffffffffffff160217905550806015819055505050565b60006118dc61184061389c565b846118d7856001600061185161389c565b73ffffffffffffffffffffffffffffffffffffffff1673ffffffffffffffffffffffffffffffffffffffff16815260200190815260200160002060008973ffffffffffffffffffffffffffffffffffffffff1673ffffffffffffffffffffffffffffffffffffffff1681526020019081526020016000205461380f90919063ffffffff16565b6138a4565b6001905092915050565b601360009054906101000a900473ffffffffffffffffffffffffffffffffffffffff1673ffffffffffffffffffffffffffffffffffffffff163373ffffffffffffffffffffffffffffffffffffffff161461198c576040517f08c379a00000000000000000000000000000000000000000000000000000000081526004018080602001828103825260238152602001806149b56023913960400191505060405180910390fd5b6119968282613ed6565b5050565b600760149054906101000a900460ff1681565b600d60019054906101000a900460ff1681565b600080601460009054906101000a900473ffffffffffffffffffffffffffffffffffffffff1690508073ffffffffffffffffffffffffffffffffffffffff166370a08231336040518263ffffffff1660e01b8152600401808273ffffffffffffffffffffffffffffffffffffffff16815260200191505060206040518083038186803b158015611a4f57600080fd5b505afa158015611a63573d6000803e3d6000fd5b505050506040513d6020811015611a7957600080fd5b810190808051906020019092919050505091505090565b611a98611d65565b611b0a576040517f08c379a00000000000000000000000000000000000000000000000000000000081526004018080602001828103825260128152602001807f596f75277265206e6f7420666c6970706572000000000000000000000000000081525060200191505060405180910390fd5b6000611b186010548361409d565b905080601860003373ffffffffffffffffffffffffffffffffffffffff1673ffffffffffffffffffffffffffffffffffffffff168152602001908152602001600020541015611bb2576040517f08c379a000000000000000000000000000000000000000000000000000000000815260040180806020018281038252603581526020018061479b6035913960400191505060405180910390fd5b670de0b6b3a76400008210158015611bd3575068e40e772ce376d200008211155b611c28576040517f08c379a0000000000000000000000000000000000000000000000000000000008152600401808060200182810382526033815260200180614a686033913960400191505060405180910390fd5b81601081905550611c8181601860003373ffffffffffffffffffffffffffffffffffffffff1673ffffffffffffffffffffffffffffffffffffffff16815260200190815260200160002054613a9b90919063ffffffff16565b601860003373ffffffffffffffffffffffffffffffffffffffff1673ffffffffffffffffffffffffffffffffffffffff16815260200190815260200160002081905550611ccd81614150565b426008819055505050565b60125481565b600080600e54601860003373ffffffffffffffffffffffffffffffffffffffff1673ffffffffffffffffffffffffffffffffffffffff168152602001908152602001600020541015611d31576000611d34565b60015b90508015611d455780915050611d62565b611d4d611673565b611d58576000611d5b565b60015b9050809150505b90565b600080601154601860003373ffffffffffffffffffffffffffffffffffffffff1673ffffffffffffffffffffffffffffffffffffffff168152602001908152602001600020541015611db8576000611dbb565b60015b90508091505090565b60085481565b60105481565b611dd8611d65565b611e4a576040517f08c379a00000000000000000000000000000000000000000000000000000000081526004018080602001828103825260128152602001807f596f75277265206e6f7420666c6970706572000000000000000000000000000081525060200191505060405180910390fd5b6000611e58600e548361409d565b905080601860003373ffffffffffffffffffffffffffffffffffffffff1673ffffffffffffffffffffffffffffffffffffffff168152602001908152602001600020541015611ef2576040517f08c379a000000000000000000000000000000000000000000000000000000000815260040180806020018281038252603581526020018061479b6035913960400191505060405180910390fd5b670de0b6b3a76400008210158015611f13575068055de6a779bbac00008211155b611f68576040517f08c379a00000000000000000000000000000000000000000000000000000000081526004018080602001828103825260288152602001806149246028913960400191505060405180910390fd5b81600e81905550611fc181601860003373ffffffffffffffffffffffffffffffffffffffff1673ffffffffffffffffffffffffffffffffffffffff16815260200190815260200160002054613a9b90919063ffffffff16565b601860003373ffffffffffffffffffffffffffffffffffffffff1673ffffffffffffffffffffffffffffffffffffffff1681526020019081526020016000208190555061200d81614150565b426008819055505050565b612020611d65565b612092576040517f08c379a00000000000000000000000000000000000000000000000000000000081526004018080602001828103825260128152602001807f596f75277265206e6f7420666c6970706572000000000000000000000000000081525060200191505060405180910390fd5b6009546008540142116120a457600080fd5b600181101580156120b65750600a8111155b61210b576040517f08c379a00000000000000000000000000000000000000000000000000000000081526004018080602001828103825260378152602001806147646037913960400191505060405180910390fd5b61215f601754601860003373ffffffffffffffffffffffffffffffffffffffff1673ffffffffffffffffffffffffffffffffffffffff16815260200190815260200160002054613a9b90919063ffffffff16565b601860003373ffffffffffffffffffffffffffffffffffffffff1673ffffffffffffffffffffffffffffffffffffffff168152602001908152602001600020819055506121ad601754614150565b80600a819055504260088190555050565b6121c6611343565b612238576040517f08c379a000000000000000000000000000000000000000000000000000000000815260040180806020018281038252601f8152602001807f596f75277265206e6f74206576656e206120726976657220646f6c7068696e0081525060200191505060405180910390fd5b60095460085401421161224a57600080fd5b600760149054906101000a900460ff166122cc576040517f08c379a00000000000000000000000000000000000000000000000000000000081526004018080602001828103825260208152602001807f4565656521205468652067616d652068617320616c726561647920656e64656481525060200191505060405180910390fd5b612320601654601860003373ffffffffffffffffffffffffffffffffffffffff1673ffffffffffffffffffffffffffffffffffffffff16815260200190815260200160002054613a9b90919063ffffffff16565b601860003373ffffffffffffffffffffffffffffffffffffffff1673ffffffffffffffffffffffffffffffffffffffff1681526020019081526020016000208190555061236e601654614150565b6000600760146101000a81548160ff02191690831515021790555042600881905550565b60008060008373ffffffffffffffffffffffffffffffffffffffff1673ffffffffffffffffffffffffffffffffffffffff168152602001908152602001600020549050919050565b6123e261389c565b73ffffffffffffffffffffffffffffffffffffffff16600760009054906101000a900473ffffffffffffffffffffffffffffffffffffffff1673ffffffffffffffffffffffffffffffffffffffff16146124a4576040517f08c379a00000000000000000000000000000000000000000000000000000000081526004018080602001828103825260208152602001807f4f776e61626c653a2063616c6c6572206973206e6f7420746865206f776e657281525060200191505060405180910390fd5b600073ffffffffffffffffffffffffffffffffffffffff16600760009054906101000a900473ffffffffffffffffffffffffffffffffffffffff1673ffffffffffffffffffffffffffffffffffffffff167f8be0079c531659141344cd1fd0a4f28419497f9722a3daafe3b4186f6b6457e060405160405180910390a36000600760006101000a81548173ffffffffffffffffffffffffffffffffffffffff021916908373ffffffffffffffffffffffffffffffffffffffff160217905550565b61256d6126ee565b6125c2576040517f08c379a00000000000000000000000000000000000000000000000000000000081526004018080602001828103825260248152602001806148ca6024913960400191505060405180910390fd5b6009546008540142116125d457600080fd5b600181101580156125e6575060038111155b61263b576040517f08c379a00000000000000000000000000000000000000000000000000000000081526004018080602001828103825260618152602001806148436061913960800191505060405180910390fd5b61268f601754601860003373ffffffffffffffffffffffffffffffffffffffff1673ffffffffffffffffffffffffffffffffffffffff16815260200190815260200160002054613a9b90919063ffffffff16565b601860003373ffffffffffffffffffffffffffffffffffffffff1673ffffffffffffffffffffffffffffffffffffffff168152602001908152602001600020819055506126dd601754614150565b80600a819055504260088190555050565b600080601054601860003373ffffffffffffffffffffffffffffffffffffffff1673ffffffffffffffffffffffffffffffffffffffff168152602001908152602001600020541015612741576000612744565b60015b90508091505090565b60155481565b61275b612cf2565b6127cd576040517f08c379a000000000000000000000000000000000000000000000000000000000815260040180806020018281038252601c8152602001807f596f75277265206e6f742070657465722074686520646f6c7068696e0000000081525060200191505060405180910390fd5b612821601754601860003373ffffffffffffffffffffffffffffffffffffffff1673ffffffffffffffffffffffffffffffffffffffff16815260200190815260200160002054613a9b90919063ffffffff16565b601860003373ffffffffffffffffffffffffffffffffffffffff1673ffffffffffffffffffffffffffffffffffffffff1681526020019081526020016000208190555061286f601754614150565b600c54600b5401600b819055506000600c819055506001600d60016101000a81548160ff0219169083151502179055506000601360006101000a81548173ffffffffffffffffffffffffffffffffffffffff021916908373ffffffffffffffffffffffffffffffffffffffff160217905550565b60606128ed612cf2565b1561292f576040518060400160405280600581526020017f50657465720000000000000000000000000000000000000000000000000000008152509050612ada565b612937611d65565b15612979576040518060400160405280600781526020017f466c6970706572000000000000000000000000000000000000000000000000008152509050612ada565b6129816126ee565b156129c3576040518060400160405280600a81526020017f426f74746c656e6f7365000000000000000000000000000000000000000000008152509050612ada565b6129cb611343565b15612a0d576040518060400160405280600581526020017f52697665720000000000000000000000000000000000000000000000000000008152509050612ada565b612a15611cde565b15612a57576040518060400160405280600481526020017f4f726361000000000000000000000000000000000000000000000000000000008152509050612ada565b612a5f611673565b15612aa1576040518060400160405280600481526020017f4f726361000000000000000000000000000000000000000000000000000000008152509050612ada565b6040518060400160405280600a81526020017f6e6f74446f6c7068696e0000000000000000000000000000000000000000000081525090505b90565b600f5481565b6000600760009054906101000a900473ffffffffffffffffffffffffffffffffffffffff16905090565b606060048054600181600116156101000203166002900480601f016020809104026020016040519081016040528092919081815260200182805460018160011615610100020316600290048015612ba55780601f10612b7a57610100808354040283529160200191612ba5565b820191906000526020600020905b815481529060010190602001808311612b8857829003601f168201915b5050505050905090565b6000612c72612bbc61389c565b84612c6d85604051806060016040528060258152602001614ae56025913960016000612be661389c565b73ffffffffffffffffffffffffffffffffffffffff1673ffffffffffffffffffffffffffffffffffffffff16815260200190815260200160002060008a73ffffffffffffffffffffffffffffffffffffffff1673ffffffffffffffffffffffffffffffffffffffff16815260200190815260200160002054613e169092919063ffffffff16565b6138a4565b6001905092915050565b6000612c90612c8961389c565b8484613ae5565b6001905092915050565b600c5481565b601360009054906101000a900473ffffffffffffffffffffffffffffffffffffffff1681565b60175481565b601460009054906101000a900473ffffffffffffffffffffffffffffffffffffffff1681565b600080601254601860003373ffffffffffffffffffffffffffffffffffffffff1673ffffffffffffffffffffffffffffffffffffffff168152602001908152602001600020541015612d45576000612d48565b60015b90508091505090565b6000600b54905090565b600a5481565b600b5481565b601360009054906101000a900473ffffffffffffffffffffffffffffffffffffffff1673ffffffffffffffffffffffffffffffffffffffff163373ffffffffffffffffffffffffffffffffffffffff1614612e0d576040517f08c379a00000000000000000000000000000000000000000000000000000000081526004018080602001828103825260238152602001806149b56023913960400191505060405180910390fd5b8160168190555080601781905550426008819055505050565b612e2e611343565b612ea0576040517f08c379a000000000000000000000000000000000000000000000000000000000815260040180806020018281038252601f8152602001807f596f75277265206e6f74206576656e206120726976657220646f6c7068696e0081525060200191505060405180910390fd5b600954600854014211612eb257600080fd5b600760149054906101000a900460ff1615612f18576040517f08c379a0000000000000000000000000000000000000000000000000000000008152600401808060200182810382526022815260200180614a216022913960400191505060405180910390fd5b612f6c601654601860003373ffffffffffffffffffffffffffffffffffffffff1673ffffffffffffffffffffffffffffffffffffffff16815260200190815260200160002054613a9b90919063ffffffff16565b601860003373ffffffffffffffffffffffffffffffffffffffff1673ffffffffffffffffffffffffffffffffffffffff16815260200190815260200160002081905550612fba601654614150565b6001600760146101000a81548160ff02191690831515021790555042600881905550565b600d60009054906101000a900460ff1681565b612ff9611d65565b61306b576040517f08c379a00000000000000000000000000000000000000000000000000000000081526004018080602001828103825260128152602001807f596f75277265206e6f7420666c6970706572000000000000000000000000000081525060200191505060405180910390fd5b6000613079600f548361409d565b905080601860003373ffffffffffffffffffffffffffffffffffffffff1673ffffffffffffffffffffffffffffffffffffffff168152602001908152602001600020541015613113576040517f08c379a000000000000000000000000000000000000000000000000000000000815260040180806020018281038252603581526020018061479b6035913960400191505060405180910390fd5b670de0b6b3a7640000821015801561313457506872073b9671bb6900008211155b613189576040517f08c379a000000000000000000000000000000000000000000000000000000000815260040180806020018281038252603481526020018061494c6034913960400191505060405180910390fd5b81600f819055506131e281601860003373ffffffffffffffffffffffffffffffffffffffff1673ffffffffffffffffffffffffffffffffffffffff16815260200190815260200160002054613a9b90919063ffffffff16565b601860003373ffffffffffffffffffffffffffffffffffffffff1673ffffffffffffffffffffffffffffffffffffffff1681526020019081526020016000208190555061322e81614150565b426008819055505050565b60165481565b6000600160008473ffffffffffffffffffffffffffffffffffffffff1673ffffffffffffffffffffffffffffffffffffffff16815260200190815260200160002060008373ffffffffffffffffffffffffffffffffffffffff1673ffffffffffffffffffffffffffffffffffffffff16815260200190815260200160002054905092915050565b60115481565b6132d46126ee565b613329576040517f08c379a00000000000000000000000000000000000000000000000000000000081526004018080602001828103825260248152602001806148ca6024913960400191505060405180910390fd5b600d60009054906101000a900460ff161561338f576040517f08c379a000000000000000000000000000000000000000000000000000000000815260040180806020018281038252602b815260200180614818602b913960400191505060405180910390fd5b6133e3601654601860003373ffffffffffffffffffffffffffffffffffffffff1673ffffffffffffffffffffffffffffffffffffffff16815260200190815260200160002054613a9b90919063ffffffff16565b601860003373ffffffffffffffffffffffffffffffffffffffff1673ffffffffffffffffffffffffffffffffffffffff16815260200190815260200160002081905550613431601654614150565b6001600d60006101000a81548160ff02191690831515021790555042600881905550565b61345d61389c565b73ffffffffffffffffffffffffffffffffffffffff16600760009054906101000a900473ffffffffffffffffffffffffffffffffffffffff1673ffffffffffffffffffffffffffffffffffffffff161461351f576040517f08c379a00000000000000000000000000000000000000000000000000000000081526004018080602001828103825260208152602001807f4f776e61626c653a2063616c6c6572206973206e6f7420746865206f776e657281525060200191505060405180910390fd5b600073ffffffffffffffffffffffffffffffffffffffff168173ffffffffffffffffffffffffffffffffffffffff1614156135a5576040517f08c379a00000000000000000000000000000000000000000000000000000000081526004018080602001828103825260268152602001806147d06026913960400191505060405180910390fd5b8073ffffffffffffffffffffffffffffffffffffffff16600760009054906101000a900473ffffffffffffffffffffffffffffffffffffffff1673ffffffffffffffffffffffffffffffffffffffff167f8be0079c531659141344cd1fd0a4f28419497f9722a3daafe3b4186f6b6457e060405160405180910390a380600760006101000a81548173ffffffffffffffffffffffffffffffffffffffff021916908373ffffffffffffffffffffffffffffffffffffffff16021790555050565b61366d611d65565b6136df576040517f08c379a00000000000000000000000000000000000000000000000000000000081526004018080602001828103825260128152602001807f596f75277265206e6f7420666c6970706572000000000000000000000000000081525060200191505060405180910390fd5b6009546008540142116136f157600080fd5b60188111158015613703575060018110155b613758576040517f08c379a00000000000000000000000000000000000000000000000000000000081526004018080602001828103825260358152602001806149806035913960400191505060405180910390fd5b6137ac601754601860003373ffffffffffffffffffffffffffffffffffffffff1673ffffffffffffffffffffffffffffffffffffffff16815260200190815260200160002054613a9b90919063ffffffff16565b601860003373ffffffffffffffffffffffffffffffffffffffff1673ffffffffffffffffffffffffffffffffffffffff168152602001908152602001600020819055506137fa601754614150565b610e1081026009819055504260088190555050565b60008082840190508381101561388d576040517f08c379a000000000000000000000000000000000000000000000000000000000815260040180806020018281038252601b8152602001807f536166654d6174683a206164646974696f6e206f766572666c6f77000000000081525060200191505060405180910390fd5b8091505092915050565b505050565b600033905090565b600073ffffffffffffffffffffffffffffffffffffffff168373ffffffffffffffffffffffffffffffffffffffff16141561392a576040517f08c379a0000000000000000000000000000000000000000000000000000000008152600401808060200182810382526024815260200180614a9b6024913960400191505060405180910390fd5b600073ffffffffffffffffffffffffffffffffffffffff168273ffffffffffffffffffffffffffffffffffffffff1614156139b0576040517f08c379a00000000000000000000000000000000000000000000000000000000081526004018080602001828103825260228152602001806147f66022913960400191505060405180910390fd5b80600160008573ffffffffffffffffffffffffffffffffffffffff1673ffffffffffffffffffffffffffffffffffffffff16815260200190815260200160002060008473ffffffffffffffffffffffffffffffffffffffff1673ffffffffffffffffffffffffffffffffffffffff168152602001908152602001600020819055508173ffffffffffffffffffffffffffffffffffffffff168373ffffffffffffffffffffffffffffffffffffffff167f8c5be1e5ebec7d5bd14f71427d1e84f3dd0314c0f7b2291e5b200ac8c7c3b925836040518082815260200191505060405180910390a3505050565b6000613add83836040518060400160405280601e81526020017f536166654d6174683a207375627472616374696f6e206f766572666c6f770000815250613e16565b905092915050565b613af0838383614212565b600073ffffffffffffffffffffffffffffffffffffffff168373ffffffffffffffffffffffffffffffffffffffff161415613b76576040517f08c379a0000000000000000000000000000000000000000000000000000000008152600401808060200182810382526025815260200180614a436025913960400191505060405180910390fd5b600073ffffffffffffffffffffffffffffffffffffffff168273ffffffffffffffffffffffffffffffffffffffff161415613bfc576040517f08c379a00000000000000000000000000000000000000000000000000000000081526004018080602001828103825260238152602001806147416023913960400191505060405180910390fd5b613c68816040518060600160405280602681526020016148a460269139601860008773ffffffffffffffffffffffffffffffffffffffff1673ffffffffffffffffffffffffffffffffffffffff16815260200190815260200160002054613e169092919063ffffffff16565b601860008573ffffffffffffffffffffffffffffffffffffffff1673ffffffffffffffffffffffffffffffffffffffff168152602001908152602001600020819055506000600760149054906101000a900460ff1615613d12576000613cec6064613cde600a54866144d390919063ffffffff16565b61455990919063ffffffff16565b9050613cf781614150565b613d0a8184613a9b90919063ffffffff16565b915050613d16565b8190505b613d6881601860008673ffffffffffffffffffffffffffffffffffffffff1673ffffffffffffffffffffffffffffffffffffffff1681526020019081526020016000205461380f90919063ffffffff16565b601860008573ffffffffffffffffffffffffffffffffffffffff1673ffffffffffffffffffffffffffffffffffffffff168152602001908152602001600020819055508273ffffffffffffffffffffffffffffffffffffffff168473ffffffffffffffffffffffffffffffffffffffff167fddf252ad1be2c89b69c2b068fc378daa952ba7f163c4a11628f55a4df523b3ef836040518082815260200191505060405180910390a350505050565b6000838311158290613ec3576040517f08c379a00000000000000000000000000000000000000000000000000000000081526004018080602001828103825283818151815260200191508051906020019080838360005b83811015613e88578082015181840152602081019050613e6d565b50505050905090810190601f168015613eb55780820380516001836020036101000a031916815260200191505b509250505060405180910390fd5b5060008385039050809150509392505050565b600073ffffffffffffffffffffffffffffffffffffffff168273ffffffffffffffffffffffffffffffffffffffff161415613f79576040517f08c379a000000000000000000000000000000000000000000000000000000000815260040180806020018281038252601f8152602001807f45524332303a206d696e7420746f20746865207a65726f20616464726573730081525060200191505060405180910390fd5b613f85600083836145a3565b613f9a8160025461380f90919063ffffffff16565b600281905550613ff1816000808573ffffffffffffffffffffffffffffffffffffffff1673ffffffffffffffffffffffffffffffffffffffff1681526020019081526020016000205461380f90919063ffffffff16565b6000808473ffffffffffffffffffffffffffffffffffffffff1673ffffffffffffffffffffffffffffffffffffffff168152602001908152602001600020819055508173ffffffffffffffffffffffffffffffffffffffff16600073ffffffffffffffffffffffffffffffffffffffff167fddf252ad1be2c89b69c2b068fc378daa952ba7f163c4a11628f55a4df523b3ef836040518082815260200191505060405180910390a35050565b600081831415614115576040517f08c379a000000000000000000000000000000000000000000000000000000000815260040180806020018281038252601d8152602001807f7468697320697320616c726561647920746865207468726573686f6c6400000081525060200191505060405180910390fd5b8183116141345761412f8383613a9b90919063ffffffff16565b614148565b6141478284613a9b90919063ffffffff16565b5b905092915050565b600581106141f3576000600d60019054906101000a900460ff1661419a5761419560646141876005856144d390919063ffffffff16565b61455990919063ffffffff16565b61419d565b60005b905060006141b48284613a9b90919063ffffffff16565b90506141cb81600b5461380f90919063ffffffff16565b600b819055506141e682600c5461380f90919063ffffffff16565b600c81905550505061420f565b61420881600b5461380f90919063ffffffff16565b600b819055505b50565b600073ffffffffffffffffffffffffffffffffffffffff168373ffffffffffffffffffffffffffffffffffffffff161415614298576040517f08c379a0000000000000000000000000000000000000000000000000000000008152600401808060200182810382526025815260200180614a436025913960400191505060405180910390fd5b600073ffffffffffffffffffffffffffffffffffffffff168273ffffffffffffffffffffffffffffffffffffffff16141561431e576040517f08c379a00000000000000000000000000000000000000000000000000000000081526004018080602001828103825260238152602001806147416023913960400191505060405180910390fd5b6143298383836145a3565b614394816040518060600160405280602681526020016148a4602691396000808773ffffffffffffffffffffffffffffffffffffffff1673ffffffffffffffffffffffffffffffffffffffff16815260200190815260200160002054613e169092919063ffffffff16565b6000808573ffffffffffffffffffffffffffffffffffffffff1673ffffffffffffffffffffffffffffffffffffffff16815260200190815260200160002081905550614427816000808573ffffffffffffffffffffffffffffffffffffffff1673ffffffffffffffffffffffffffffffffffffffff1681526020019081526020016000205461380f90919063ffffffff16565b6000808473ffffffffffffffffffffffffffffffffffffffff1673ffffffffffffffffffffffffffffffffffffffff168152602001908152602001600020819055508173ffffffffffffffffffffffffffffffffffffffff168373ffffffffffffffffffffffffffffffffffffffff167fddf252ad1be2c89b69c2b068fc378daa952ba7f163c4a11628f55a4df523b3ef836040518082815260200191505060405180910390a3505050565b6000808314156144e65760009050614553565b60008284029050828482816144f757fe5b041461454e576040517f08c379a00000000000000000000000000000000000000000000000000000000081526004018080602001828103825260218152602001806149d86021913960400191505060405180910390fd5b809150505b92915050565b600061459b83836040518060400160405280601a81526020017f536166654d6174683a206469766973696f6e206279207a65726f00000000000081525061467a565b905092915050565b6145ae838383613897565b600073ffffffffffffffffffffffffffffffffffffffff168373ffffffffffffffffffffffffffffffffffffffff16141561467557600654614600826145f26113a2565b61380f90919063ffffffff16565b1115614674576040517f08c379a00000000000000000000000000000000000000000000000000000000081526004018080602001828103825260198152602001807f45524332304361707065643a206361702065786365656465640000000000000081525060200191505060405180910390fd5b5b505050565b60008083118290614726576040517f08c379a00000000000000000000000000000000000000000000000000000000081526004018080602001828103825283818151815260200191508051906020019080838360005b838110156146eb5780820151818401526020810190506146d0565b50505050905090810190601f1680156147185780820380516001836020036101000a031916815260200191505b509250505060405180910390fd5b50600083858161473257fe5b04905080915050939250505056fe45524332303a207472616e7366657220746f20746865207a65726f20616464726573734565656521204d696e696d756d20736e61746368526174652069732031252c206d6178696d756d2031302520666f7220466c6970706572456565652120596f7520646f6e2774206861766520656e6f756768204545454520746f206d616b652074686973206368616e67652e4f776e61626c653a206e6577206f776e657220697320746865207a65726f206164647265737345524332303a20617070726f766520746f20746865207a65726f2061646472657373456565652120546f6f206c617465207375636b65722c20646576277320656174696e6720746f6e696768744565656521204d696e696d756d20736e61746368526174652069732031252c206d6178696d756d2069732033252e20466c69707065722063616e2075736520746865206368616e6765536e6174636852617465486967682066756e6374696f6e2e45524332303a207472616e7366657220616d6f756e7420657863656564732062616c616e6365596f75277265206e6f74206576656e206120626f74746c656e6f736520646f6c7068696e736e61746368706f6f6c3a206d696e20736e6174636820616d6f756e742028302e3031204545454529206e6f7420726561636865642e5468726573686f6c6420666f72204f72636173206d757374206265203120746f20393920454545454d6178696d756d207468726573686f6c6420666f7220526976657220446f6c7068696e7320697320323130332e343520454545454565656521204d696e696d756d20636f6f6c646f776e206973203120686f75722c206d6178696d756d20697320323420686f757273596f75277265206e6f7420746865206465762c20676574206f7574206f662068657265536166654d6174683a206d756c7469706c69636174696f6e206f766572666c6f7745524332303a207472616e7366657220616d6f756e74206578636565647320616c6c6f77616e63654565656521205468652067616d652068617320616c7265616479207374617274656445524332303a207472616e736665722066726f6d20746865207a65726f20616464726573734d6178696d756d207468726573686f6c6420666f7220526976657220446f6c7068696e7320697320343230362e39204545454545524332303a20617070726f76652066726f6d20746865207a65726f2061646472657373456565652120546865204c5020636f6e747261637420686173206e6f74206265656e2073657445524332303a2064656372656173656420616c6c6f77616e63652062656c6f77207a65726fa2646970667358221220d88641bbc4ebe4ffc37975257557c4b565ab5e8654edb6e7414584ee3be330c064736f6c634300060c0033596f75277265206e6f7420746865206465762c20676574206f7574206f662068657265",
  "immutableReferences": {},
  "source": "//SPDX-License-Identifier: MIT\npragma solidity 0.6.12;\n\nimport \"@openzeppelin/contracts/token/ERC20/ERC20.sol\";\nimport \"@openzeppelin/contracts/token/ERC20/ERC20Capped.sol\";\nimport \"@openzeppelin/contracts/access/Ownable.sol\";\nimport \"@openzeppelin/contracts/token/ERC20/IERC20.sol\";\nimport \"@openzeppelin/contracts/GSN/Context.sol\";\nimport \"@openzeppelin/contracts/utils/Address.sol\";\nimport \"@openzeppelin/contracts/math/SafeMath.sol\";\nimport \"@openzeppelin/contracts/math/Math.sol\";\n\n// Eeee! Welcome Dolphins! \n//\n//////////////////////////////////////////////////////////////////////\n//                                       __                         //\n//                                   _.-~  )    ____ eeee ____      //\n//                        _..--~~~~,'   ,-/     _                   //\n//                     .-'. . . .'   ,-','    ,' )                  //\n//                   ,'. . . _   ,--~,-'__..-'  ,'                  //\n//                 ,'. . .  (@)' ---~~~~      ,'                    //\n//                /. . . . '~~             ,-'                      //\n//               /. . . . .             ,-'                         //\n//              ; . . . .  - .        ,'                            //\n//             : . . . .       _     /                              //\n//            . . . . .          `-.:                               //\n//           . . . ./  - .          )                               //\n//          .  . . |  _____..---.._/ ____ dolphins.wtf ____         //\n//~---~~~~-~~---~~~~----~~~~-~~~~-~~---~~~~----~~~~~~---~~~~-~~---~~//\n//                                                                  //\n//////////////////////////////////////////////////////////////////////\n//\n// This code has not been audited, but has been reviewed. Hopefully it's bug free... \n// If you do find bugs, remember those were features and part of the game... Don't hate the player.\n//\n// Also, this token is a worthless game token. Don't buy it. Just farm it, and then play games. It will be fun. \n//\n// Eeee! Let the games begin!\n\n// eeee, hardcap set on deployment with minting to dev for subsequent deployment into DolphinPods (2x) & snatchFeeder\ncontract eeee is ERC20Capped, Ownable  {\n    using SafeMath for uint256;\n\n    bool public _gameStarted;\n    uint256 public _lastUpdated;\n    uint256 public _coolDownTime;\n    uint256 public _snatchRate;\n    uint256 public _snatchPool;\n    uint256 public _devFoodBucket;\n    bool public _devCanEat;\n    bool public _isAnarchy;\n    uint256 public _orca;\n\tuint256 public _river;\n\tuint256 public _bottlenose;\n\tuint256 public _flipper;\n\tuint256 public _peter;\n\taddress public _owner;\n\taddress public _UniLP;\n\tuint256 public _lpMin;\n\tuint256 public _feeLevel1;\n\tuint256 public _feeLevel2;\n    \n    mapping(address => uint256) private _balances;\n\n    constructor() public\n        ERC20(\"dolphins.wtf\", \"EEEE\")\n        ERC20Capped(42069e18)\n    {\n        _gameStarted = false;\n        _coolDownTime = 3600;\n        _devCanEat = false;\n        _isAnarchy = false;\n        _snatchRate = 1;\n        _orca = 69e18;\n\t\t_river = 42069e16;\n\t\t_bottlenose = 210345e16;\n\t\t_flipper = 42069e17;\n\t\t_peter = 210345e17;\n\t\t_lpMin = 1;\n\t\t_UniLP = address(0);\n\t\t_feeLevel1 = 1e18;\n\t\t_feeLevel2 = 5e18;\n\t\t_owner = msg.sender;\n        mint(msg.sender, 42069e18);\n        _balances[msg.sender] = 42069e18;\n    }\n\n    // levels: checks caller's balance to determine if they can access a function\n\n    function uniLPBalance() public view returns (uint256) {\n\t\tIERC20 lpToken = IERC20(_UniLP);\n        return lpToken.balanceOf(msg.sender);\n\t}\n\t\n    function amILP() public view returns(bool) {\n        require(_UniLP != address(0), \"Eeee! The LP contract has not been set\");\n        bool lpOrca = uniLPBalance() > _lpMin ? true : false;\n        return lpOrca;\n    } \n\n    function amIOrca() public view returns(bool) {\n        bool orca = _balances[msg.sender] >= _orca ? true : false;\n        if (orca) {\n            return orca;\n        } else {\n            orca = amILP() ? true : false;\n            return orca;\n        }\n    } \n\n    //  Orcas (are you even a dolphin?) - 69 (0.00164%); Can: Snatch tax base\n    modifier onlyOrcas() {\n        require(amIOrca(), \"Eeee! You're not even an orca\");\n        _;\n    }\n\n    function amIRiver() public view returns(bool) {\n        bool river = _balances[msg.sender] >= _river ? true : false;\n        return river;\n    } \n\n    // River Dolphin (what is wrong with your nose?) - 420.69 (1%); Can: turn game on/off\n    modifier onlyRiver() {\n        require(amIRiver(), \"You're not even a river dolphin\");\n        _;\n    }\n\n    function amIBottlenose() public view returns(bool) {\n        bool bottlenose = _balances[msg.sender] >= _bottlenose ? true : false;\n        return bottlenose;\n    } \n\n    // Bottlenose Dolphin  (now that's a dolphin) - 2103.45 (5%); Can: Change tax rate (up to 2.5%); Devs can eat (allows dev to withdraw from the dev food bucket)\n    modifier onlyBottlenose() {\n        require(amIBottlenose(), \"You're not even a bottlenose dolphin\");\n        _;\n    }\n\n    function amIFlipper() public view returns(bool) {\n        bool flipper = _balances[msg.sender] >= _flipper ? true : false;\n        return flipper;\n    } \n\n    // Flipper (A based dolphin) - 4206.9 (10%); Can: Change levels thresholds (except Flipper and Peter); Change tax rate (up to 10%); Change cooldown time\n    modifier onlyFlipper() {\n        require(amIFlipper(), \"You're not flipper\");\n        _;\n    }\n\n    function amIPeter() public view returns(bool) {\n        bool peter = _balances[msg.sender] >= _peter ? true : false;\n        return peter;\n    } \n\n    // Peter the Dolphin (ask Margaret Howe Lovatt) - 21034.5 (50%); Can: Burn the key and hand the world over to the dolphins, and stops feeding the devs\n    modifier onlyPeter() {\n        require(amIPeter(), \"You're not peter the dolphin\");\n        _;\n    }\n\n    function dolphinhoodLevel() public view returns(string memory) {\n        if (amIPeter()) {\n            return \"Peter\";\n        }\n        if (amIFlipper()) {\n            return \"Flipper\";\n        }\n        if (amIBottlenose()) {\n            return \"Bottlenose\";\n        }\n        if (amIRiver()) {\n            return \"River\";\n        }\n        if (amIOrca()) {\n            return \"Orca\";\n        }\n        if (amILP()) {\n            return \"Orca\";\n        } else {\n            return \"notDolphin\";\n        }\n\n    }\n\n    // Are you the dev?\n    modifier onlyDev() {\n        require(address(msg.sender) == _owner, \"You're not the dev, get out of here\");\n        _;\n    }\n\n    modifier cooledDown() {\n        require(now > (_lastUpdated+_coolDownTime));\n        _;\n    }\n    \n    // snatch - grab from snatch pool, requires min 0.01 EEEE in snatchpool -- always free\n    function snatchFood() public onlyOrcas cooledDown {\n        require(_snatchPool >= 1 * 1e16, \"snatchpool: min snatch amount (0.01 EEEE) not reached.\");\n\t\t_balances[msg.sender] = _balances[msg.sender].add(_snatchPool);\n        _snatchPool = 0;\n    }\n    \n    function fundSnatch(uint256 EEEEtoSnatchPool) public {\n        _balances[msg.sender] = _balances[msg.sender].sub(EEEEtoSnatchPool);\n        _snatchPool = _snatchPool.add(EEEEtoSnatchPool);\n        if (address(msg.sender) != _owner) {\n            _lastUpdated = now;\n        }\n        \n    }\n\n    function fundDev(uint256 EEEEtoDevFood) public {\n        _balances[msg.sender] = _balances[msg.sender].sub(EEEEtoDevFood);\n        _devFoodBucket = _devFoodBucket.add(EEEEtoDevFood);\n    }\n\n    function checkSnatchBalance() public view returns (uint256) {\n        return _snatchPool;\n    }\n\n    function checkDevBalance() public view returns (uint256) {\n        return _devFoodBucket;\n    }\n\n    // startGame -- call fee level 1\n    function startGame() public onlyRiver cooledDown {\n        require(!_gameStarted, \"Eeee! The game has already started\");\n        _balances[msg.sender] = _balances[msg.sender].sub(_feeLevel1);\n\t\t_snatch(_feeLevel1);\n\t\t_gameStarted = true;\n        _lastUpdated = now;\n    }\n\n    // endGame -- call fee level 1\n    function endGame() public onlyRiver cooledDown {\n        require(_gameStarted, \"Eeee! The game has already ended\");\n\t\t_balances[msg.sender] = _balances[msg.sender].sub(_feeLevel1);\n\t\t_snatch(_feeLevel1);\n        _gameStarted = false;\n        _lastUpdated = now;\n    }\n\n    function readGameStatus() public view returns (bool) {\n        return _gameStarted;\n    }\n\n    // allowDevToEat - can only be turned on once  -- call fee level 1\n    function allowDevToEat() public onlyBottlenose {\n        require(!_devCanEat, \"Eeee! Too late sucker, dev's eating tonight\");\n\t\t_balances[msg.sender] = _balances[msg.sender].sub(_feeLevel1);\n\t\t_snatch(_feeLevel1);\n        _devCanEat = true;\n\t\t_lastUpdated = now;\n    }\n\n    // changeSnatchRate - with max of 3% if Bottlenose; with max of 10% if Flipper -- call fee level 2\n    function changeSnatchRate(uint256 newSnatchRate) public onlyBottlenose cooledDown {\n        require(newSnatchRate >= 1 && newSnatchRate <= 3, \"Eeee! Minimum snatchRate is 1%, maximum is 3%. Flipper can use the changeSnatchRateHigh function.\");\n        _balances[msg.sender] = _balances[msg.sender].sub(_feeLevel2);\n\t\t_snatch(_feeLevel2);\n\t\t_snatchRate = newSnatchRate;\n\t\t_lastUpdated = now;\n    }\n    \n    // changeSnatchRate - with max of 10% if Flipper -- call fee level 2\n    function changeSnatchRateHigh(uint256 newSnatchRate) public onlyFlipper cooledDown {\n        require(newSnatchRate >= 1 && newSnatchRate <= 10, \"Eeee! Minimum snatchRate is 1%, maximum 10% for Flipper\");\n        _balances[msg.sender] = _balances[msg.sender].sub(_feeLevel2);\n\t\t_snatch(_feeLevel2);\n\t\t_snatchRate = newSnatchRate;\n\t\t_lastUpdated = now;\n    }\n\n    // changeCoolDownTime - make the game go faster or slower, cooldown to be set in hours (min 1; max 24) -- call fee level 2\n    function updateCoolDown(uint256 newCoolDown) public onlyFlipper cooledDown {\n        //require(_gameStarted, \"Eeee! You need to wait for the game to start first\");\n        require(newCoolDown <= 24 && newCoolDown >= 1, \"Eeee! Minimum cooldown is 1 hour, maximum is 24 hours\");\n        _balances[msg.sender] = _balances[msg.sender].sub(_feeLevel2);\n\t\t_snatch(_feeLevel2);\n\t\t_coolDownTime = newCoolDown * 1 hours;\n        _lastUpdated = now;\n    }\n\n    // functions to change levels, caller should ensure to calculate this on 1e18 basis -- call fee level 1 * sought change\n    function changeSize(uint256 currentThreshold, uint256 newThreshold) private pure returns (uint256) {\n        require (currentThreshold != newThreshold, 'this is already the threshold');\n        return currentThreshold > newThreshold ? currentThreshold.sub(newThreshold) : newThreshold.sub(currentThreshold);\n    }\n    \n    function updateOrca(uint256 updatedThreshold) public onlyFlipper {\n        uint256 changeFee;\n        changeFee = changeSize(_orca, updatedThreshold);\n        require(_balances[msg.sender] >= changeFee, \"Eeee! You don't have enough EEEE to make this change.\");\n\t\trequire(updatedThreshold >= 1e18 && updatedThreshold <= 99e18, \"Threshold for Orcas must be 1 to 99 EEEE\");\n        _orca = updatedThreshold;\n\t\t_balances[msg.sender] = _balances[msg.sender].sub(changeFee);\n\t\t_snatch(changeFee);\n\t\t_lastUpdated = now;\n    }\n    \n    function updateRiver(uint256 updatedThreshold) public onlyFlipper {\n        uint256 changeFee;\n        changeFee = changeSize(_river, updatedThreshold);\n        require(_balances[msg.sender] >= changeFee, \"Eeee! You don't have enough EEEE to make this change.\");\n\t\trequire(updatedThreshold >= 1e18 && updatedThreshold <= 210345e16, \"Maximum threshold for River Dolphins is 2103.45 EEEE\");\n        _river = updatedThreshold;\n\t\t_balances[msg.sender] = _balances[msg.sender].sub(changeFee);\n\t\t_snatch(changeFee);\n\t\t_lastUpdated = now;\n    }\n    \n    function updateBottlenose(uint256 updatedThreshold) public onlyFlipper {\n        uint256 changeFee;\n        changeFee = changeSize(_bottlenose, updatedThreshold);\n        require(_balances[msg.sender] >= changeFee, \"Eeee! You don't have enough EEEE to make this change.\");\n\t\trequire(updatedThreshold >= 1e18 && updatedThreshold <= 42069e17, \"Maximum threshold for River Dolphins is 4206.9 EEEE\");\n        _bottlenose = updatedThreshold;\n\t\t_balances[msg.sender] = _balances[msg.sender].sub(changeFee);\n\t\t_snatch(changeFee);\n\t\t_lastUpdated = now;\n    }\n\n    // dolphinAnarchy - transfer owner permissions to 0xNull & stops feeding dev. CAREFUL: this cannot be undone and once you do it the dolphins swim alone.  -- call fee level 2\n    function activateAnarchy() public onlyPeter {\n        //Return anything in dev pool to snatchpool\n        _balances[msg.sender] = _balances[msg.sender].sub(_feeLevel2);\n\t\t_snatch(_feeLevel2);\n\t\t_snatchPool = _snatchPool + _devFoodBucket;\n        _devFoodBucket = 0;\n        _isAnarchy = true; // ends dev feeding\n        _owner = address(0);\n    }\n\n    // transfers tokens to snatchSupply and fees paid to dev (5%) only when we have not descended into Dolphin BASED anarchy\n    function _snatch(uint256 amount) internal {\n        // check that the amount is at least 5e-18, otherwise throw it all in the snatchpool\n        if (amount >= 5) {\n        uint256 devFood;\n            devFood = _isAnarchy ? 0 : amount.mul(5).div(100); // 5% put in a food bucket for the contract creator if we've not descended into dolphin anarchy\n            uint256 snatchedFood = amount.sub(devFood);\n            _snatchPool = _snatchPool.add(snatchedFood);\n            _devFoodBucket = _devFoodBucket.add(devFood);\n        } else {\n            _snatchPool = _snatchPool.add(amount);\n        }\n    }\n\n    // transfer - with send to tax snatch pool\n    function _transfer(address sender, address recipient, uint256 amount) internal override {\n        super._transfer(sender, recipient, amount);\n\n        require(sender != address(0), \"ERC20: transfer from the zero address\");\n        require(recipient != address(0), \"ERC20: transfer to the zero address\");\n \n        // check if sender has balance, then debit sender, execute _snatch, credit receipient\n        _balances[sender] = _balances[sender].sub(amount, \"ERC20: transfer amount exceeds balance\");\n        uint256 creditAmount;\n        if (_gameStarted) {\n            // calculate the taxed amount to be transfered if the game is active\n            uint256 snatchamount;\n            snatchamount = amount.mul(_snatchRate).div(100);\n            _snatch(snatchamount);\n            creditAmount = amount.sub(snatchamount);\n        } else {\n            creditAmount = amount;\n        }\n        \n        _balances[recipient] = _balances[recipient].add(creditAmount);\n        emit Transfer(sender, recipient, creditAmount);\n    }\n    \n    // feedDev - allows owner to withdraw 5% thrown into dev food buck. Must only be called by the Dev.\n    function feedDev() public onlyDev {\n        require(_devCanEat, \"sorry dev, no scraps for you\");\n        _balances[msg.sender] = _balances[msg.sender].add(_devFoodBucket);\n        _devFoodBucket = 0;\n    }\n\t\n\t// change fees for function calls, can only be triggered by Dev, and then enters cooldown\n\tfunction changeFunctionFees(uint256 newFeeLevel1, uint256 newFeeLevel2) public onlyDev {\n\t\t_feeLevel1 = newFeeLevel1;\n\t\t_feeLevel2 = newFeeLevel2;\n\t\t_lastUpdated = now;\n\t}\n\t\n\tfunction setLP(address addrUniV2LP, uint256 lpMin) public onlyDev {\n\t\t_UniLP = addrUniV2LP;\n\t\t_lpMin = lpMin;\n\t}\n\n    function mint(address _to, uint256 amount) public onlyDev {\n        _mint(_to, amount);\n    }\n}",
  "sourcePath": "/mnt/c/dev/dolphinsWTF/contracts/eeee.sol",
  "compiler": {
    "name": "solc",
    "version": "0.6.12+commit.27d51765.Emscripten.clang"
  },
  "schemaVersion": "3.3.2",
  "updatedAt": "2020-11-19T16:17:29.091Z",
  "networkType": "ethereum",
  "devdoc": {
    "kind": "dev",
    "methods": {
      "allowance(address,address)": {
        "details": "See {IERC20-allowance}."
      },
      "approve(address,uint256)": {
        "details": "See {IERC20-approve}. Requirements: - `spender` cannot be the zero address."
      },
      "balanceOf(address)": {
        "details": "See {IERC20-balanceOf}."
      },
      "cap()": {
        "details": "Returns the cap on the token's total supply."
      },
      "decimals()": {
        "details": "Returns the number of decimals used to get its user representation. For example, if `decimals` equals `2`, a balance of `505` tokens should be displayed to a user as `5,05` (`505 / 10 ** 2`). Tokens usually opt for a value of 18, imitating the relationship between Ether and Wei. This is the value {ERC20} uses, unless {_setupDecimals} is called. NOTE: This information is only used for _display_ purposes: it in no way affects any of the arithmetic of the contract, including {IERC20-balanceOf} and {IERC20-transfer}."
      },
      "decreaseAllowance(address,uint256)": {
        "details": "Atomically decreases the allowance granted to `spender` by the caller. This is an alternative to {approve} that can be used as a mitigation for problems described in {IERC20-approve}. Emits an {Approval} event indicating the updated allowance. Requirements: - `spender` cannot be the zero address. - `spender` must have allowance for the caller of at least `subtractedValue`."
      },
      "increaseAllowance(address,uint256)": {
        "details": "Atomically increases the allowance granted to `spender` by the caller. This is an alternative to {approve} that can be used as a mitigation for problems described in {IERC20-approve}. Emits an {Approval} event indicating the updated allowance. Requirements: - `spender` cannot be the zero address."
      },
      "name()": {
        "details": "Returns the name of the token."
      },
      "owner()": {
        "details": "Returns the address of the current owner."
      },
      "renounceOwnership()": {
        "details": "Leaves the contract without owner. It will not be possible to call `onlyOwner` functions anymore. Can only be called by the current owner. NOTE: Renouncing ownership will leave the contract without an owner, thereby removing any functionality that is only available to the owner."
      },
      "symbol()": {
        "details": "Returns the symbol of the token, usually a shorter version of the name."
      },
      "totalSupply()": {
        "details": "See {IERC20-totalSupply}."
      },
      "transfer(address,uint256)": {
        "details": "See {IERC20-transfer}. Requirements: - `recipient` cannot be the zero address. - the caller must have a balance of at least `amount`."
      },
      "transferFrom(address,address,uint256)": {
        "details": "See {IERC20-transferFrom}. Emits an {Approval} event indicating the updated allowance. This is not required by the EIP. See the note at the beginning of {ERC20}; Requirements: - `sender` and `recipient` cannot be the zero address. - `sender` must have a balance of at least `amount`. - the caller must have allowance for ``sender``'s tokens of at least `amount`."
      },
      "transferOwnership(address)": {
        "details": "Transfers ownership of the contract to a new account (`newOwner`). Can only be called by the current owner."
      }
    },
    "version": 1
  },
  "userdoc": {
    "kind": "user",
    "methods": {},
    "version": 1
  }
}