{
  "contractName": "eeee",
  "abi": [
    {
      "inputs": [],
      "stateMutability": "nonpayable",
      "type": "constructor"
    },
    {
      "anonymous": false,
      "inputs": [
        {
          "indexed": true,
          "internalType": "address",
          "name": "owner",
          "type": "address"
        },
        {
          "indexed": true,
          "internalType": "address",
          "name": "spender",
          "type": "address"
        },
        {
          "indexed": false,
          "internalType": "uint256",
          "name": "value",
          "type": "uint256"
        }
      ],
      "name": "Approval",
      "type": "event"
    },
    {
      "anonymous": false,
      "inputs": [
        {
          "indexed": true,
          "internalType": "address",
          "name": "previousOwner",
          "type": "address"
        },
        {
          "indexed": true,
          "internalType": "address",
          "name": "newOwner",
          "type": "address"
        }
      ],
      "name": "OwnershipTransferred",
      "type": "event"
    },
    {
      "anonymous": false,
      "inputs": [
        {
          "indexed": true,
          "internalType": "address",
          "name": "user",
          "type": "address"
        },
        {
          "indexed": false,
          "internalType": "uint256",
          "name": "amount",
          "type": "uint256"
        }
      ],
      "name": "Snatched",
      "type": "event"
    },
    {
      "anonymous": false,
      "inputs": [
        {
          "indexed": true,
          "internalType": "address",
          "name": "from",
          "type": "address"
        },
        {
          "indexed": true,
          "internalType": "address",
          "name": "to",
          "type": "address"
        },
        {
          "indexed": false,
          "internalType": "uint256",
          "name": "value",
          "type": "uint256"
        }
      ],
      "name": "Transfer",
      "type": "event"
    },
    {
      "inputs": [],
      "name": "_UniLP",
      "outputs": [
        {
          "internalType": "address",
          "name": "",
          "type": "address"
        }
      ],
      "stateMutability": "view",
      "type": "function"
    },
    {
      "inputs": [],
      "name": "_bottlenose",
      "outputs": [
        {
          "internalType": "uint256",
          "name": "",
          "type": "uint256"
        }
      ],
      "stateMutability": "view",
      "type": "function"
    },
    {
      "inputs": [],
      "name": "_coolDownTime",
      "outputs": [
        {
          "internalType": "uint256",
          "name": "",
          "type": "uint256"
        }
      ],
      "stateMutability": "view",
      "type": "function"
    },
    {
      "inputs": [],
      "name": "_devCanEat",
      "outputs": [
        {
          "internalType": "bool",
          "name": "",
          "type": "bool"
        }
      ],
      "stateMutability": "view",
      "type": "function"
    },
    {
      "inputs": [],
      "name": "_devFoodBucket",
      "outputs": [
        {
          "internalType": "uint256",
          "name": "",
          "type": "uint256"
        }
      ],
      "stateMutability": "view",
      "type": "function"
    },
    {
      "inputs": [],
      "name": "_feeLevel1",
      "outputs": [
        {
          "internalType": "uint256",
          "name": "",
          "type": "uint256"
        }
      ],
      "stateMutability": "view",
      "type": "function"
    },
    {
      "inputs": [],
      "name": "_feeLevel2",
      "outputs": [
        {
          "internalType": "uint256",
          "name": "",
          "type": "uint256"
        }
      ],
      "stateMutability": "view",
      "type": "function"
    },
    {
      "inputs": [],
      "name": "_flipper",
      "outputs": [
        {
          "internalType": "uint256",
          "name": "",
          "type": "uint256"
        }
      ],
      "stateMutability": "view",
      "type": "function"
    },
    {
      "inputs": [],
      "name": "_isAnarchy",
      "outputs": [
        {
          "internalType": "bool",
          "name": "",
          "type": "bool"
        }
      ],
      "stateMutability": "view",
      "type": "function"
    },
    {
      "inputs": [],
      "name": "_isGameActive",
      "outputs": [
        {
          "internalType": "bool",
          "name": "",
          "type": "bool"
        }
      ],
      "stateMutability": "view",
      "type": "function"
    },
    {
      "inputs": [],
      "name": "_lastUpdated",
      "outputs": [
        {
          "internalType": "uint256",
          "name": "",
          "type": "uint256"
        }
      ],
      "stateMutability": "view",
      "type": "function"
    },
    {
      "inputs": [],
      "name": "_lpMin",
      "outputs": [
        {
          "internalType": "uint256",
          "name": "",
          "type": "uint256"
        }
      ],
      "stateMutability": "view",
      "type": "function"
    },
    {
      "inputs": [],
      "name": "_orca",
      "outputs": [
        {
          "internalType": "uint256",
          "name": "",
          "type": "uint256"
        }
      ],
      "stateMutability": "view",
      "type": "function"
    },
    {
      "inputs": [],
      "name": "_owner",
      "outputs": [
        {
          "internalType": "address",
          "name": "",
          "type": "address"
        }
      ],
      "stateMutability": "view",
      "type": "function"
    },
    {
      "inputs": [],
      "name": "_peter",
      "outputs": [
        {
          "internalType": "uint256",
          "name": "",
          "type": "uint256"
        }
      ],
      "stateMutability": "view",
      "type": "function"
    },
    {
      "inputs": [],
      "name": "_river",
      "outputs": [
        {
          "internalType": "uint256",
          "name": "",
          "type": "uint256"
        }
      ],
      "stateMutability": "view",
      "type": "function"
    },
    {
      "inputs": [],
      "name": "_snatchPool",
      "outputs": [
        {
          "internalType": "uint256",
          "name": "",
          "type": "uint256"
        }
      ],
      "stateMutability": "view",
      "type": "function"
    },
    {
      "inputs": [],
      "name": "_snatchRate",
      "outputs": [
        {
          "internalType": "uint256",
          "name": "",
          "type": "uint256"
        }
      ],
      "stateMutability": "view",
      "type": "function"
    },
    {
      "inputs": [
        {
          "internalType": "address",
          "name": "owner",
          "type": "address"
        },
        {
          "internalType": "address",
          "name": "spender",
          "type": "address"
        }
      ],
      "name": "allowance",
      "outputs": [
        {
          "internalType": "uint256",
          "name": "",
          "type": "uint256"
        }
      ],
      "stateMutability": "view",
      "type": "function"
    },
    {
      "inputs": [
        {
          "internalType": "address",
          "name": "spender",
          "type": "address"
        },
        {
          "internalType": "uint256",
          "name": "amount",
          "type": "uint256"
        }
      ],
      "name": "approve",
      "outputs": [
        {
          "internalType": "bool",
          "name": "",
          "type": "bool"
        }
      ],
      "stateMutability": "nonpayable",
      "type": "function"
    },
    {
      "inputs": [
        {
          "internalType": "address",
          "name": "account",
          "type": "address"
        }
      ],
      "name": "balanceOf",
      "outputs": [
        {
          "internalType": "uint256",
          "name": "",
          "type": "uint256"
        }
      ],
      "stateMutability": "view",
      "type": "function"
    },
    {
      "inputs": [],
      "name": "cap",
      "outputs": [
        {
          "internalType": "uint256",
          "name": "",
          "type": "uint256"
        }
      ],
      "stateMutability": "view",
      "type": "function"
    },
    {
      "inputs": [],
      "name": "decimals",
      "outputs": [
        {
          "internalType": "uint8",
          "name": "",
          "type": "uint8"
        }
      ],
      "stateMutability": "view",
      "type": "function"
    },
    {
      "inputs": [
        {
          "internalType": "address",
          "name": "spender",
          "type": "address"
        },
        {
          "internalType": "uint256",
          "name": "subtractedValue",
          "type": "uint256"
        }
      ],
      "name": "decreaseAllowance",
      "outputs": [
        {
          "internalType": "bool",
          "name": "",
          "type": "bool"
        }
      ],
      "stateMutability": "nonpayable",
      "type": "function"
    },
    {
      "inputs": [
        {
          "internalType": "address",
          "name": "spender",
          "type": "address"
        },
        {
          "internalType": "uint256",
          "name": "addedValue",
          "type": "uint256"
        }
      ],
      "name": "increaseAllowance",
      "outputs": [
        {
          "internalType": "bool",
          "name": "",
          "type": "bool"
        }
      ],
      "stateMutability": "nonpayable",
      "type": "function"
    },
    {
      "inputs": [],
      "name": "name",
      "outputs": [
        {
          "internalType": "string",
          "name": "",
          "type": "string"
        }
      ],
      "stateMutability": "view",
      "type": "function"
    },
    {
      "inputs": [],
      "name": "owner",
      "outputs": [
        {
          "internalType": "address",
          "name": "",
          "type": "address"
        }
      ],
      "stateMutability": "view",
      "type": "function"
    },
    {
      "inputs": [],
      "name": "renounceOwnership",
      "outputs": [],
      "stateMutability": "nonpayable",
      "type": "function"
    },
    {
      "inputs": [],
      "name": "symbol",
      "outputs": [
        {
          "internalType": "string",
          "name": "",
          "type": "string"
        }
      ],
      "stateMutability": "view",
      "type": "function"
    },
    {
      "inputs": [],
      "name": "totalSupply",
      "outputs": [
        {
          "internalType": "uint256",
          "name": "",
          "type": "uint256"
        }
      ],
      "stateMutability": "view",
      "type": "function"
    },
    {
      "inputs": [
        {
          "internalType": "address",
          "name": "recipient",
          "type": "address"
        },
        {
          "internalType": "uint256",
          "name": "amount",
          "type": "uint256"
        }
      ],
      "name": "transfer",
      "outputs": [
        {
          "internalType": "bool",
          "name": "",
          "type": "bool"
        }
      ],
      "stateMutability": "nonpayable",
      "type": "function"
    },
    {
      "inputs": [
        {
          "internalType": "address",
          "name": "sender",
          "type": "address"
        },
        {
          "internalType": "address",
          "name": "recipient",
          "type": "address"
        },
        {
          "internalType": "uint256",
          "name": "amount",
          "type": "uint256"
        }
      ],
      "name": "transferFrom",
      "outputs": [
        {
          "internalType": "bool",
          "name": "",
          "type": "bool"
        }
      ],
      "stateMutability": "nonpayable",
      "type": "function"
    },
    {
      "inputs": [
        {
          "internalType": "address",
          "name": "newOwner",
          "type": "address"
        }
      ],
      "name": "transferOwnership",
      "outputs": [],
      "stateMutability": "nonpayable",
      "type": "function"
    },
    {
      "inputs": [],
      "name": "uniLPBalance",
      "outputs": [
        {
          "internalType": "uint256",
          "name": "",
          "type": "uint256"
        }
      ],
      "stateMutability": "view",
      "type": "function"
    },
    {
      "inputs": [],
      "name": "amILP",
      "outputs": [
        {
          "internalType": "bool",
          "name": "",
          "type": "bool"
        }
      ],
      "stateMutability": "view",
      "type": "function"
    },
    {
      "inputs": [],
      "name": "amIOrca",
      "outputs": [
        {
          "internalType": "bool",
          "name": "",
          "type": "bool"
        }
      ],
      "stateMutability": "view",
      "type": "function"
    },
    {
      "inputs": [],
      "name": "amIRiver",
      "outputs": [
        {
          "internalType": "bool",
          "name": "",
          "type": "bool"
        }
      ],
      "stateMutability": "view",
      "type": "function"
    },
    {
      "inputs": [],
      "name": "amIBottlenose",
      "outputs": [
        {
          "internalType": "bool",
          "name": "",
          "type": "bool"
        }
      ],
      "stateMutability": "view",
      "type": "function"
    },
    {
      "inputs": [],
      "name": "amIFlipper",
      "outputs": [
        {
          "internalType": "bool",
          "name": "",
          "type": "bool"
        }
      ],
      "stateMutability": "view",
      "type": "function"
    },
    {
      "inputs": [],
      "name": "amIPeter",
      "outputs": [
        {
          "internalType": "bool",
          "name": "",
          "type": "bool"
        }
      ],
      "stateMutability": "view",
      "type": "function"
    },
    {
      "inputs": [],
      "name": "dolphinhoodLevel",
      "outputs": [
        {
          "internalType": "string",
          "name": "",
          "type": "string"
        }
      ],
      "stateMutability": "view",
      "type": "function"
    },
    {
      "inputs": [],
      "name": "snatchFood",
      "outputs": [],
      "stateMutability": "nonpayable",
      "type": "function"
    },
    {
      "inputs": [
        {
          "internalType": "uint256",
          "name": "EEEEtoSnatchPool",
          "type": "uint256"
        }
      ],
      "name": "fundSnatch",
      "outputs": [],
      "stateMutability": "nonpayable",
      "type": "function"
    },
    {
      "inputs": [
        {
          "internalType": "uint256",
          "name": "EEEEtoDevFood",
          "type": "uint256"
        }
      ],
      "name": "fundDev",
      "outputs": [],
      "stateMutability": "nonpayable",
      "type": "function"
    },
    {
      "inputs": [],
      "name": "checkSnatchBalance",
      "outputs": [
        {
          "internalType": "uint256",
          "name": "",
          "type": "uint256"
        }
      ],
      "stateMutability": "view",
      "type": "function"
    },
    {
      "inputs": [],
      "name": "checkDevBalance",
      "outputs": [
        {
          "internalType": "uint256",
          "name": "",
          "type": "uint256"
        }
      ],
      "stateMutability": "view",
      "type": "function"
    },
    {
      "inputs": [],
      "name": "startGame",
      "outputs": [],
      "stateMutability": "nonpayable",
      "type": "function"
    },
    {
      "inputs": [],
      "name": "pauseGame",
      "outputs": [],
      "stateMutability": "nonpayable",
      "type": "function"
    },
    {
      "inputs": [],
      "name": "allowDevToEat",
      "outputs": [],
      "stateMutability": "nonpayable",
      "type": "function"
    },
    {
      "inputs": [
        {
          "internalType": "uint256",
          "name": "newSnatchRate",
          "type": "uint256"
        }
      ],
      "name": "changeSnatchRate",
      "outputs": [],
      "stateMutability": "nonpayable",
      "type": "function"
    },
    {
      "inputs": [
        {
          "internalType": "uint256",
          "name": "newCoolDown",
          "type": "uint256"
        }
      ],
      "name": "updateCoolDown",
      "outputs": [],
      "stateMutability": "nonpayable",
      "type": "function"
    },
    {
      "inputs": [
        {
          "internalType": "uint256",
          "name": "updatedThreshold",
          "type": "uint256"
        }
      ],
      "name": "updateOrca",
      "outputs": [],
      "stateMutability": "nonpayable",
      "type": "function"
    },
    {
      "inputs": [
        {
          "internalType": "uint256",
          "name": "updatedThreshold",
          "type": "uint256"
        }
      ],
      "name": "updateRiver",
      "outputs": [],
      "stateMutability": "nonpayable",
      "type": "function"
    },
    {
      "inputs": [
        {
          "internalType": "uint256",
          "name": "updatedThreshold",
          "type": "uint256"
        }
      ],
      "name": "updateBottlenose",
      "outputs": [],
      "stateMutability": "nonpayable",
      "type": "function"
    },
    {
      "inputs": [],
      "name": "activateAnarchy",
      "outputs": [],
      "stateMutability": "nonpayable",
      "type": "function"
    },
    {
      "inputs": [],
      "name": "feedDev",
      "outputs": [],
      "stateMutability": "nonpayable",
      "type": "function"
    },
    {
      "inputs": [
        {
          "internalType": "uint256",
          "name": "newFeeLevel1",
          "type": "uint256"
        },
        {
          "internalType": "uint256",
          "name": "newFeeLevel2",
          "type": "uint256"
        }
      ],
      "name": "changeFunctionFees",
      "outputs": [],
      "stateMutability": "nonpayable",
      "type": "function"
    },
    {
      "inputs": [
        {
          "internalType": "address",
          "name": "addrUniV2LP",
          "type": "address"
        },
        {
          "internalType": "uint256",
          "name": "lpMin",
          "type": "uint256"
        }
      ],
      "name": "setLP",
      "outputs": [],
      "stateMutability": "nonpayable",
      "type": "function"
    },
    {
      "inputs": [
        {
          "internalType": "address",
          "name": "_to",
          "type": "address"
        },
        {
          "internalType": "uint256",
          "name": "amount",
          "type": "uint256"
        }
      ],
      "name": "mint",
      "outputs": [],
      "stateMutability": "nonpayable",
      "type": "function"
    }
  ],
  "bytecode": "0x608060405268e40e772ce376d200006011556904744853e071521a00006012553480156200002c57600080fd5b506908e890a7c0e2a43400006040518060400160405280600c81526020017f646f6c7068696e732e77746600000000000000000000000000000000000000008152506040518060400160405280600481526020017f45454545000000000000000000000000000000000000000000000000000000008152508160039080519060200190620000bc9291906200107c565b508060049080519060200190620000d59291906200107c565b506012600560006101000a81548160ff021916908360ff1602179055505050600081116200016b576040517f08c379a00000000000000000000000000000000000000000000000000000000081526004018080602001828103825260158152602001807f45524332304361707065643a206361702069732030000000000000000000000081525060200191505060405180910390fd5b80600681905550506000620001856200038160201b60201c565b905080600760006101000a81548173ffffffffffffffffffffffffffffffffffffffff021916908373ffffffffffffffffffffffffffffffffffffffff1602179055508073ffffffffffffffffffffffffffffffffffffffff16600073ffffffffffffffffffffffffffffffffffffffff167f8be0079c531659141344cd1fd0a4f28419497f9722a3daafe3b4186f6b6457e060405160405180910390a3506000600760146101000a81548160ff021916908315150217905550610e106009819055506000600d60006101000a81548160ff0219169083151502179055506000600d60016101000a81548160ff0219169083151502179055506001600a819055506803bd913e6c1df40000600e819055506816ce3f1e16bf150000600f819055506872073b9671bb69000060108190555060016015819055506000601460006101000a81548173ffffffffffffffffffffffffffffffffffffffff021916908373ffffffffffffffffffffffffffffffffffffffff160217905550670de0b6b3a7640000601681905550674563918244f4000060178190555033601360006101000a81548173ffffffffffffffffffffffffffffffffffffffff021916908373ffffffffffffffffffffffffffffffffffffffff1602179055506200037b336908e890a7c0e2a43400006200038960201b60201c565b62001122565b600033905090565b601360009054906101000a900473ffffffffffffffffffffffffffffffffffffffff1673ffffffffffffffffffffffffffffffffffffffff163373ffffffffffffffffffffffffffffffffffffffff161462000431576040517f08c379a0000000000000000000000000000000000000000000000000000000008152600401808060200182810382526023815260200180620054546023913960400191505060405180910390fd5b6200044382826200044760201b60201c565b5050565b600073ffffffffffffffffffffffffffffffffffffffff168273ffffffffffffffffffffffffffffffffffffffff161415620004eb576040517f08c379a000000000000000000000000000000000000000000000000000000000815260040180806020018281038252601f8152602001807f45524332303a206d696e7420746f20746865207a65726f20616464726573730081525060200191505060405180910390fd5b620004ff600083836200062560201b60201c565b6200051b81600254620007bd60201b62002fbd1790919060201c565b60028190555062000579816000808573ffffffffffffffffffffffffffffffffffffffff1673ffffffffffffffffffffffffffffffffffffffff16815260200190815260200160002054620007bd60201b62002fbd1790919060201c565b6000808473ffffffffffffffffffffffffffffffffffffffff1673ffffffffffffffffffffffffffffffffffffffff168152602001908152602001600020819055508173ffffffffffffffffffffffffffffffffffffffff16600073ffffffffffffffffffffffffffffffffffffffff167fddf252ad1be2c89b69c2b068fc378daa952ba7f163c4a11628f55a4df523b3ef836040518082815260200191505060405180910390a35050565b6200063d8383836200084660201b620030451760201c565b600760149054906101000a900460ff1615620007b8578273ffffffffffffffffffffffffffffffffffffffff16601460009054906101000a900473ffffffffffffffffffffffffffffffffffffffff1673ffffffffffffffffffffffffffffffffffffffff1614620007b7573073ffffffffffffffffffffffffffffffffffffffff168273ffffffffffffffffffffffffffffffffffffffff1614620007b6576000620006f0826200093b60201b60201c565b90506000620007378262000723856200070f896200099b60201b60201c565b620009e360201b6200311c1790919060201c565b620009e360201b6200311c1790919060201c565b101562000790576040517f08c379a0000000000000000000000000000000000000000000000000000000008152600401808060200182810382526042815260200180620053ec6042913960600191505060405180910390fd5b620007a18162000a3560201b60201c565b620007b484308362000b2560201b60201c565b505b5b5b505050565b6000808284019050838110156200083c576040517f08c379a000000000000000000000000000000000000000000000000000000000815260040180806020018281038252601b8152602001807f536166654d6174683a206164646974696f6e206f766572666c6f77000000000081525060200191505060405180910390fd5b8091505092915050565b6200085e83838362000e0160201b620031661760201c565b600073ffffffffffffffffffffffffffffffffffffffff168373ffffffffffffffffffffffffffffffffffffffff1614156200093657600654620008c082620008ac62000e0660201b60201c565b620007bd60201b62002fbd1790919060201c565b111562000935576040517f08c379a00000000000000000000000000000000000000000000000000000000081526004018080602001828103825260198152602001807f45524332304361707065643a206361702065786365656465640000000000000081525060200191505060405180910390fd5b5b505050565b6000600760149054906101000a900460ff1615620009915762000989606462000975600a548562000e1060201b6200316b1790919060201c565b62000e9b60201b620031f11790919060201c565b905062000996565b600090505b919050565b60008060008373ffffffffffffffffffffffffffffffffffffffff1673ffffffffffffffffffffffffffffffffffffffff168152602001908152602001600020549050919050565b600062000a2d83836040518060400160405280601e81526020017f536166654d6174683a207375627472616374696f6e206f766572666c6f77000081525062000eed60201b60201c565b905092915050565b6005811062000aff576000600d60019054906101000a900460ff1662000a905762000a8a606462000a7660058562000e1060201b6200316b1790919060201c565b62000e9b60201b620031f11790919060201c565b62000a93565b60005b9050600062000ab18284620009e360201b6200311c1790919060201c565b905062000acf81600b54620007bd60201b62002fbd1790919060201c565b600b8190555062000af182600c54620007bd60201b62002fbd1790919060201c565b600c81905550505062000b22565b62000b1b81600b54620007bd60201b62002fbd1790919060201c565b600b819055505b50565b600073ffffffffffffffffffffffffffffffffffffffff168373ffffffffffffffffffffffffffffffffffffffff16141562000bad576040517f08c379a0000000000000000000000000000000000000000000000000000000008152600401808060200182810382526025815260200180620054986025913960400191505060405180910390fd5b600073ffffffffffffffffffffffffffffffffffffffff168273ffffffffffffffffffffffffffffffffffffffff16141562000c35576040517f08c379a0000000000000000000000000000000000000000000000000000000008152600401808060200182810382526023815260200180620053c96023913960400191505060405180910390fd5b62000c488383836200062560201b60201c565b62000cbb816040518060600160405280602681526020016200542e602691396000808773ffffffffffffffffffffffffffffffffffffffff1673ffffffffffffffffffffffffffffffffffffffff1681526020019081526020016000205462000eed60201b6200323b179092919060201c565b6000808573ffffffffffffffffffffffffffffffffffffffff1673ffffffffffffffffffffffffffffffffffffffff1681526020019081526020016000208190555062000d55816000808573ffffffffffffffffffffffffffffffffffffffff1673ffffffffffffffffffffffffffffffffffffffff16815260200190815260200160002054620007bd60201b62002fbd1790919060201c565b6000808473ffffffffffffffffffffffffffffffffffffffff1673ffffffffffffffffffffffffffffffffffffffff168152602001908152602001600020819055508173ffffffffffffffffffffffffffffffffffffffff168373ffffffffffffffffffffffffffffffffffffffff167fddf252ad1be2c89b69c2b068fc378daa952ba7f163c4a11628f55a4df523b3ef836040518082815260200191505060405180910390a3505050565b505050565b6000600254905090565b60008083141562000e25576000905062000e95565b600082840290508284828162000e3757fe5b041462000e90576040517f08c379a0000000000000000000000000000000000000000000000000000000008152600401808060200182810382526021815260200180620054776021913960400191505060405180910390fd5b809150505b92915050565b600062000ee583836040518060400160405280601a81526020017f536166654d6174683a206469766973696f6e206279207a65726f00000000000081525062000fb160201b60201c565b905092915050565b600083831115829062000f9e576040517f08c379a00000000000000000000000000000000000000000000000000000000081526004018080602001828103825283818151815260200191508051906020019080838360005b8381101562000f6257808201518184015260208101905062000f45565b50505050905090810190601f16801562000f905780820380516001836020036101000a031916815260200191505b509250505060405180910390fd5b5060008385039050809150509392505050565b6000808311829062001061576040517f08c379a00000000000000000000000000000000000000000000000000000000081526004018080602001828103825283818151815260200191508051906020019080838360005b838110156200102557808201518184015260208101905062001008565b50505050905090810190601f168015620010535780820380516001836020036101000a031916815260200191505b509250505060405180910390fd5b5060008385816200106e57fe5b049050809150509392505050565b828054600181600116156101000203166002900490600052602060002090601f016020900481019282601f10620010bf57805160ff1916838001178555620010f0565b82800160010185558215620010f0579182015b82811115620010ef578251825591602001919060010190620010d2565b5b509050620010ff919062001103565b5090565b5b808211156200111e57600081600090555060010162001104565b5090565b61429780620011326000396000f3fe608060405234801561001057600080fd5b50600436106103995760003560e01c8063715018a6116101e9578063c4a46e3c1161010f578063d8b77346116100ad578063e35fb5d81161007c578063e35fb5d814610e0a578063eda5546814610e28578063f2fde38b14610e32578063f3c7454314610e7657610399565b8063d8b7734614610d26578063d8eeccc314610d46578063db5ca09d14610d74578063dd62ed3e14610d9257610399565b8063c8e6d267116100e9578063c8e6d26714610ca6578063c9540fd914610cc6578063cdd6015314610ce4578063d65ab5f214610d1c57610399565b8063c4a46e3c14610c4a578063c520b54c14610c6a578063c7f8915914610c8857610399565b80638da5cb5b11610187578063aee66ee011610156578063aee66ee014610ba6578063b2bdfa7b14610bc4578063bbfacbc714610bf8578063bfa73f3614610c1657610399565b80638da5cb5b14610a2757806395d89b4114610a5b578063a457c2d714610ade578063a9059cbb14610b4257610399565b80637f7432e0116101c35780637f7432e01461095e57806382c518fe1461097c5780638a5b4aec146109865780638c73426314610a0957610399565b8063715018a61461090657806378dcd952146109105780637d1c2b521461093e57610399565b80633686cf79116102ce5780634c6762a21161026c5780635c0ebd621161023b5780635c0ebd62146108445780635d90b87c146108625780636284f02d1461088057806370a08231146108ae57610399565b80634c6762a2146107b857806350f0e432146107e657806359170dbd1461080457806359994c981461082457610399565b806340c10f19116102a857806340c10f191461072257806345207bb2146107705780634837f83c14610790578063499831f2146107ae57610399565b80633686cf7914610650578063379990d61461067057806339509351146106be57610399565b806318160ddd1161033b57806323b872dd1161031557806323b872dd1461055f5780632a47c85e146105e3578063313ce56714610611578063355274ea1461063257610399565b806318160ddd146104f5578063197f41ce146105135780631ef7a59d1461053157610399565b80630b2cbb05116103775780630b2cbb051461048f5780631233e4b614610499578063123dda3f146104b757806316033f50146104d557610399565b806306fdde031461039e57806307f89d5a14610421578063095ea7b31461042b575b600080fd5b6103a6610ea4565b6040518080602001828103825283818151815260200191508051906020019080838360005b838110156103e65780820151818401526020810190506103cb565b50505050905090810190601f1680156104135780820380516001836020036101000a031916815260200191505b509250505060405180910390f35b610429610f46565b005b6104776004803603604081101561044157600080fd5b81019080803573ffffffffffffffffffffffffffffffffffffffff16906020019092919080359060200190929190505050611171565b60405180821515815260200191505060405180910390f35b61049761118f565b005b6104a16112f9565b6040518082815260200191505060405180910390f35b6104bf6112ff565b6040518082815260200191505060405180910390f35b6104dd611305565b60405180821515815260200191505060405180910390f35b6104fd61131a565b6040518082815260200191505060405180910390f35b61051b611324565b6040518082815260200191505060405180910390f35b61055d6004803603602081101561054757600080fd5b810190808035906020019092919050505061132e565b005b6105cb6004803603606081101561057557600080fd5b81019080803573ffffffffffffffffffffffffffffffffffffffff169060200190929190803573ffffffffffffffffffffffffffffffffffffffff169060200190929190803590602001909291905050506113b4565b60405180821515815260200191505060405180910390f35b61060f600480360360208110156105f957600080fd5b810190808035906020019092919050505061148d565b005b6106196114b6565b604051808260ff16815260200191505060405180910390f35b61063a6114cd565b6040518082815260200191505060405180910390f35b6106586114d7565b60405180821515815260200191505060405180910390f35b6106bc6004803603604081101561068657600080fd5b81019080803573ffffffffffffffffffffffffffffffffffffffff16906020019092919080359060200190929190505050611591565b005b61070a600480360360408110156106d457600080fd5b81019080803573ffffffffffffffffffffffffffffffffffffffff16906020019092919080359060200190929190505050611683565b60405180821515815260200191505060405180910390f35b61076e6004803603604081101561073857600080fd5b81019080803573ffffffffffffffffffffffffffffffffffffffff16906020019092919080359060200190929190505050611736565b005b6107786117ea565b60405180821515815260200191505060405180910390f35b6107986117fd565b6040518082815260200191505060405180910390f35b6107b66118cd565b005b6107e4600480360360208110156107ce57600080fd5b81019080803590602001909291905050506119ff565b005b6107ee611be0565b6040518082815260200191505060405180910390f35b61080c611be6565b60405180821515815260200191505060405180910390f35b61082c611c0a565b60405180821515815260200191505060405180910390f35b61084c611c1f565b6040518082815260200191505060405180910390f35b61086a611c25565b6040518082815260200191505060405180910390f35b6108ac6004803603602081101561089657600080fd5b8101908080359060200190929190505050611c2b565b005b6108f0600480360360208110156108c457600080fd5b81019080803573ffffffffffffffffffffffffffffffffffffffff169060200190929190505050611e0c565b6040518082815260200191505060405180910390f35b61090e611e54565b005b61093c6004803603602081101561092657600080fd5b8101908080359060200190929190505050611fdf565b005b610946612168565b60405180821515815260200191505060405180910390f35b61096661217d565b6040518082815260200191505060405180910390f35b610984612183565b005b61098e6122a0565b6040518080602001828103825283818151815260200191508051906020019080838360005b838110156109ce5780820151818401526020810190506109b3565b50505050905090810190601f1680156109fb5780820380516001836020036101000a031916815260200191505b509250505060405180910390f35b610a1161249a565b6040518082815260200191505060405180910390f35b610a2f6124a0565b604051808273ffffffffffffffffffffffffffffffffffffffff16815260200191505060405180910390f35b610a636124ca565b6040518080602001828103825283818151815260200191508051906020019080838360005b83811015610aa3578082015181840152602081019050610a88565b50505050905090810190601f168015610ad05780820380516001836020036101000a031916815260200191505b509250505060405180910390f35b610b2a60048036036040811015610af457600080fd5b81019080803573ffffffffffffffffffffffffffffffffffffffff1690602001909291908035906020019092919050505061256c565b60405180821515815260200191505060405180910390f35b610b8e60048036036040811015610b5857600080fd5b81019080803573ffffffffffffffffffffffffffffffffffffffff16906020019092919080359060200190929190505050612639565b60405180821515815260200191505060405180910390f35b610bae612657565b6040518082815260200191505060405180910390f35b610bcc61265d565b604051808273ffffffffffffffffffffffffffffffffffffffff16815260200191505060405180910390f35b610c00612683565b6040518082815260200191505060405180910390f35b610c1e612689565b604051808273ffffffffffffffffffffffffffffffffffffffff16815260200191505060405180910390f35b610c526126af565b60405180821515815260200191505060405180910390f35b610c726126c4565b6040518082815260200191505060405180910390f35b610c906126ce565b6040518082815260200191505060405180910390f35b610cae6126d4565b60405180821515815260200191505060405180910390f35b610cce6126e7565b6040518082815260200191505060405180910390f35b610d1a60048036036040811015610cfa57600080fd5b8101908080359060200190929190803590602001909291905050506126ed565b005b610d246127ac565b005b610d2e6128ea565b60405180821515815260200191505060405180910390f35b610d7260048036036020811015610d5c57600080fd5b81019080803590602001909291905050506128fd565b005b610d7c612aeb565b6040518082815260200191505060405180910390f35b610df460048036036040811015610da857600080fd5b81019080803573ffffffffffffffffffffffffffffffffffffffff169060200190929190803573ffffffffffffffffffffffffffffffffffffffff169060200190929190505050612af1565b6040518082815260200191505060405180910390f35b610e12612b78565b6040518082815260200191505060405180910390f35b610e30612b7e565b005b610e7460048036036020811015610e4857600080fd5b81019080803573ffffffffffffffffffffffffffffffffffffffff169060200190929190505050612c7d565b005b610ea260048036036020811015610e8c57600080fd5b8101908080359060200190929190505050612e8d565b005b606060038054600181600116156101000203166002900480601f016020809104026020016040519081016040528092919081815260200182805460018160011615610100020316600290048015610f3c5780601f10610f1157610100808354040283529160200191610f3c565b820191906000526020600020905b815481529060010190602001808311610f1f57829003601f168201915b5050505050905090565b610f4e611be6565b610fc0576040517f08c379a000000000000000000000000000000000000000000000000000000000815260040180806020018281038252601d8152602001807f456565652120596f75277265206e6f74206576656e20616e206f72636100000081525060200191505060405180910390fd5b610fd7600954600854612fbd90919063ffffffff16565b4211610fe257600080fd5b662386f26fc10000600b541015611044576040517f08c379a0000000000000000000000000000000000000000000000000000000008152600401808060200182810382526036815260200180613faa6036913960400191505060405180910390fd5b6000600b5461105230611e0c565b1061105f57600b54611069565b61106830611e0c565b5b90503073ffffffffffffffffffffffffffffffffffffffff1663a9059cbb33836040518363ffffffff1660e01b8152600401808373ffffffffffffffffffffffffffffffffffffffff16815260200182815260200192505050602060405180830381600087803b1580156110dc57600080fd5b505af11580156110f0573d6000803e3d6000fd5b505050506040513d602081101561110657600080fd5b8101908080519060200190929190505050506000600b819055503373ffffffffffffffffffffffffffffffffffffffff167ff94400eb41c0d6dc48a78d2e742a470e9d93bef23dc7522c797d4598c6b61209826040518082815260200191505060405180910390a250565b600061118561117e6132fb565b8484613303565b6001905092915050565b601360009054906101000a900473ffffffffffffffffffffffffffffffffffffffff1673ffffffffffffffffffffffffffffffffffffffff163373ffffffffffffffffffffffffffffffffffffffff1614611235576040517f08c379a000000000000000000000000000000000000000000000000000000000815260040180806020018281038252602381526020018061403d6023913960400191505060405180910390fd5b600d60009054906101000a900460ff166112b7576040517f08c379a000000000000000000000000000000000000000000000000000000000815260040180806020018281038252601c8152602001807f736f727279206465762c206e6f2073637261707320666f7220796f750000000081525060200191505060405180910390fd5b600c546112c330611e0c565b10156112e1576112db336112d630611e0c565b612639565b506112ef565b6112ed33600c54612639565b505b6000600c81905550565b600e5481565b60095481565b6000600f5461131333611e0c565b1015905090565b6000600254905090565b6000600c54905090565b6113383082612639565b5061134e81600b54612fbd90919063ffffffff16565b600b81905550601360009054906101000a900473ffffffffffffffffffffffffffffffffffffffff1673ffffffffffffffffffffffffffffffffffffffff163373ffffffffffffffffffffffffffffffffffffffff16146113b157426008819055505b50565b60006113c18484846134fa565b611482846113cd6132fb565b61147d8560405180606001604052806028815260200161408160289139600160008b73ffffffffffffffffffffffffffffffffffffffff1673ffffffffffffffffffffffffffffffffffffffff16815260200190815260200160002060006114336132fb565b73ffffffffffffffffffffffffffffffffffffffff1673ffffffffffffffffffffffffffffffffffffffff1681526020019081526020016000205461323b9092919063ffffffff16565b613303565b600190509392505050565b6114973082612639565b506114ad81600c54612fbd90919063ffffffff16565b600c8190555050565b6000600560009054906101000a900460ff16905090565b6000600654905090565b60008073ffffffffffffffffffffffffffffffffffffffff16601460009054906101000a900473ffffffffffffffffffffffffffffffffffffffff1673ffffffffffffffffffffffffffffffffffffffff161415611580576040517f08c379a00000000000000000000000000000000000000000000000000000000081526004018080602001828103825260268152602001806141b16026913960400191505060405180910390fd5b60155461158b6117fd565b11905090565b601360009054906101000a900473ffffffffffffffffffffffffffffffffffffffff1673ffffffffffffffffffffffffffffffffffffffff163373ffffffffffffffffffffffffffffffffffffffff1614611637576040517f08c379a000000000000000000000000000000000000000000000000000000000815260040180806020018281038252602381526020018061403d6023913960400191505060405180910390fd5b81601460006101000a81548173ffffffffffffffffffffffffffffffffffffffff021916908373ffffffffffffffffffffffffffffffffffffffff160217905550806015819055505050565b600061172c6116906132fb565b8461172785600160006116a16132fb565b73ffffffffffffffffffffffffffffffffffffffff1673ffffffffffffffffffffffffffffffffffffffff16815260200190815260200160002060008973ffffffffffffffffffffffffffffffffffffffff1673ffffffffffffffffffffffffffffffffffffffff16815260200190815260200160002054612fbd90919063ffffffff16565b613303565b6001905092915050565b601360009054906101000a900473ffffffffffffffffffffffffffffffffffffffff1673ffffffffffffffffffffffffffffffffffffffff163373ffffffffffffffffffffffffffffffffffffffff16146117dc576040517f08c379a000000000000000000000000000000000000000000000000000000000815260040180806020018281038252602381526020018061403d6023913960400191505060405180910390fd5b6117e682826137bb565b5050565b600d60019054906101000a900460ff1681565b600080601460009054906101000a900473ffffffffffffffffffffffffffffffffffffffff1690508073ffffffffffffffffffffffffffffffffffffffff166370a08231336040518263ffffffff1660e01b8152600401808273ffffffffffffffffffffffffffffffffffffffff16815260200191505060206040518083038186803b15801561188c57600080fd5b505afa1580156118a0573d6000803e3d6000fd5b505050506040513d60208110156118b657600080fd5b810190808051906020019092919050505091505090565b6118d5611305565b611947576040517f08c379a000000000000000000000000000000000000000000000000000000000815260040180806020018281038252601f8152602001807f596f75277265206e6f74206576656e206120726976657220646f6c7068696e0081525060200191505060405180910390fd5b61195e600954600854612fbd90919063ffffffff16565b421161196957600080fd5b600760149054906101000a900460ff166119ce576040517f08c379a00000000000000000000000000000000000000000000000000000000081526004018080602001828103825260268152602001806142176026913960400191505060405180910390fd5b6119da30601654612639565b506000600760146101000a81548160ff02191690831515021790555042600881905550565b611a07611c0a565b611a79576040517f08c379a00000000000000000000000000000000000000000000000000000000081526004018080602001828103825260128152602001807f596f75277265206e6f7420666c6970706572000000000000000000000000000081525060200191505060405180910390fd5b6000611a8760105483613982565b905080611a9333611e0c565b1015611aea576040517f08c379a0000000000000000000000000000000000000000000000000000000008152600401808060200182810382526035815260200180613eb86035913960400191505060405180910390fd5b670de0b6b3a76400008210158015611b0b575068e40e772ce376d200008211155b611b60576040517f08c379a000000000000000000000000000000000000000000000000000000000815260040180806020018281038252603a815260200180614148603a913960400191505060405180910390fd5b600f548211611bba576040517f08c379a00000000000000000000000000000000000000000000000000000000081526004018080602001828103825260408152602001806141d76040913960400191505060405180910390fd5b81601081905550611bcb3082612639565b50611bd581613a35565b426008819055505050565b60125481565b6000600e54611bf433611e0c565b101580611c055750611c046114d7565b5b905090565b6000601154611c1833611e0c565b1015905090565b60085481565b60105481565b611c33611c0a565b611ca5576040517f08c379a00000000000000000000000000000000000000000000000000000000081526004018080602001828103825260128152602001807f596f75277265206e6f7420666c6970706572000000000000000000000000000081525060200191505060405180910390fd5b6000611cb3600e5483613982565b905080611cbf33611e0c565b1015611d16576040517f08c379a0000000000000000000000000000000000000000000000000000000008152600401808060200182810382526035815260200180613eb86035913960400191505060405180910390fd5b670de0b6b3a76400008210158015611d37575068055de6a779bbac00008211155b611d8c576040517f08c379a0000000000000000000000000000000000000000000000000000000008152600401808060200182810382526028815260200180613fe06028913960400191505060405180910390fd5b600f548210611de6576040517f08c379a00000000000000000000000000000000000000000000000000000000081526004018080602001828103825260348152602001806140a96034913960400191505060405180910390fd5b81600e81905550611df73082612639565b50611e0181613a35565b426008819055505050565b60008060008373ffffffffffffffffffffffffffffffffffffffff1673ffffffffffffffffffffffffffffffffffffffff168152602001908152602001600020549050919050565b611e5c6132fb565b73ffffffffffffffffffffffffffffffffffffffff16600760009054906101000a900473ffffffffffffffffffffffffffffffffffffffff1673ffffffffffffffffffffffffffffffffffffffff1614611f1e576040517f08c379a00000000000000000000000000000000000000000000000000000000081526004018080602001828103825260208152602001807f4f776e61626c653a2063616c6c6572206973206e6f7420746865206f776e657281525060200191505060405180910390fd5b600073ffffffffffffffffffffffffffffffffffffffff16600760009054906101000a900473ffffffffffffffffffffffffffffffffffffffff1673ffffffffffffffffffffffffffffffffffffffff167f8be0079c531659141344cd1fd0a4f28419497f9722a3daafe3b4186f6b6457e060405160405180910390a36000600760006101000a81548173ffffffffffffffffffffffffffffffffffffffff021916908373ffffffffffffffffffffffffffffffffffffffff160217905550565b611fe7612168565b61203c576040517f08c379a0000000000000000000000000000000000000000000000000000000008152600401808060200182810382526024815260200180613f866024913960400191505060405180910390fd5b612053600954600854612fbd90919063ffffffff16565b421161205e57600080fd5b612066611c0a565b156120d7576001811015801561207d5750600a8111155b6120d2576040517f08c379a000000000000000000000000000000000000000000000000000000000815260040180806020018281038252602f815260200180614182602f913960400191505060405180910390fd5b61213f565b600181101580156120e9575060038111155b61213e576040517f08c379a0000000000000000000000000000000000000000000000000000000008152600401808060200182810382526037815260200180613daa6037913960400191505060405180910390fd5b5b61214b30601754612639565b50612157601754613a35565b80600a819055504260088190555050565b600060105461217633611e0c565b1015905090565b60155481565b61218b6126af565b6121fd576040517f08c379a000000000000000000000000000000000000000000000000000000000815260040180806020018281038252601c8152602001807f596f75277265206e6f742070657465722074686520646f6c7068696e0000000081525060200191505060405180910390fd5b61220930601754612639565b50612215601754613a35565b61222c600c54600b54612fbd90919063ffffffff16565b600b819055506000600c819055506001600d60016101000a81548160ff0219169083151502179055506000601360006101000a81548173ffffffffffffffffffffffffffffffffffffffff021916908373ffffffffffffffffffffffffffffffffffffffff16021790555042600881905550565b60606122aa6126af565b156122ec576040518060400160405280600581526020017f50657465720000000000000000000000000000000000000000000000000000008152509050612497565b6122f4611c0a565b15612336576040518060400160405280600781526020017f466c6970706572000000000000000000000000000000000000000000000000008152509050612497565b61233e612168565b15612380576040518060400160405280600a81526020017f426f74746c656e6f7365000000000000000000000000000000000000000000008152509050612497565b612388611305565b156123ca576040518060400160405280600581526020017f52697665720000000000000000000000000000000000000000000000000000008152509050612497565b6123d2611be6565b15612414576040518060400160405280600481526020017f4f726361000000000000000000000000000000000000000000000000000000008152509050612497565b61241c6114d7565b1561245e576040518060400160405280600481526020017f4f726361000000000000000000000000000000000000000000000000000000008152509050612497565b6040518060400160405280600a81526020017f6e6f74446f6c7068696e0000000000000000000000000000000000000000000081525090505b90565b600f5481565b6000600760009054906101000a900473ffffffffffffffffffffffffffffffffffffffff16905090565b606060048054600181600116156101000203166002900480601f0160208091040260200160405190810160405280929190818152602001828054600181600116156101000203166002900480156125625780601f1061253757610100808354040283529160200191612562565b820191906000526020600020905b81548152906001019060200180831161254557829003601f168201915b5050505050905090565b600061262f6125796132fb565b8461262a8560405180606001604052806025815260200161423d60259139600160006125a36132fb565b73ffffffffffffffffffffffffffffffffffffffff1673ffffffffffffffffffffffffffffffffffffffff16815260200190815260200160002060008a73ffffffffffffffffffffffffffffffffffffffff1673ffffffffffffffffffffffffffffffffffffffff1681526020019081526020016000205461323b9092919063ffffffff16565b613303565b6001905092915050565b600061264d6126466132fb565b84846134fa565b6001905092915050565b600c5481565b601360009054906101000a900473ffffffffffffffffffffffffffffffffffffffff1681565b60175481565b601460009054906101000a900473ffffffffffffffffffffffffffffffffffffffff1681565b60006012546126bd33611e0c565b1015905090565b6000600b54905090565b600a5481565b600760149054906101000a900460ff1681565b600b5481565b601360009054906101000a900473ffffffffffffffffffffffffffffffffffffffff1673ffffffffffffffffffffffffffffffffffffffff163373ffffffffffffffffffffffffffffffffffffffff1614612793576040517f08c379a000000000000000000000000000000000000000000000000000000000815260040180806020018281038252602381526020018061403d6023913960400191505060405180910390fd5b8160168190555080601781905550426008819055505050565b6127b4611305565b612826576040517f08c379a000000000000000000000000000000000000000000000000000000000815260040180806020018281038252601f8152602001807f596f75277265206e6f74206576656e206120726976657220646f6c7068696e0081525060200191505060405180910390fd5b61283d600954600854612fbd90919063ffffffff16565b421161284857600080fd5b600760149054906101000a900460ff16156128ae576040517f08c379a00000000000000000000000000000000000000000000000000000000081526004018080602001828103825260228152602001806140dd6022913960400191505060405180910390fd5b6128ba30601654612639565b506128c6601654613a35565b6001600760146101000a81548160ff02191690831515021790555042600881905550565b600d60009054906101000a900460ff1681565b612905611c0a565b612977576040517f08c379a00000000000000000000000000000000000000000000000000000000081526004018080602001828103825260128152602001807f596f75277265206e6f7420666c6970706572000000000000000000000000000081525060200191505060405180910390fd5b6000612985600f5483613982565b90508061299133611e0c565b10156129e8576040517f08c379a0000000000000000000000000000000000000000000000000000000008152600401808060200182810382526035815260200180613eb86035913960400191505060405180910390fd5b670de0b6b3a76400008210158015612a0957506872073b9671bb6900008211155b612a5e576040517f08c379a0000000000000000000000000000000000000000000000000000000008152600401808060200182810382526036815260200180613e826036913960400191505060405180910390fd5b600e5482118015612a70575060105482105b612ac5576040517f08c379a000000000000000000000000000000000000000000000000000000000815260040180806020018281038252605f815260200180613de1605f913960600191505060405180910390fd5b81600f81905550612ad63082612639565b50612ae081613a35565b426008819055505050565b60165481565b6000600160008473ffffffffffffffffffffffffffffffffffffffff1673ffffffffffffffffffffffffffffffffffffffff16815260200190815260200160002060008373ffffffffffffffffffffffffffffffffffffffff1673ffffffffffffffffffffffffffffffffffffffff16815260200190815260200160002054905092915050565b60115481565b612b86612168565b612bdb576040517f08c379a0000000000000000000000000000000000000000000000000000000008152600401808060200182810382526024815260200180613f866024913960400191505060405180910390fd5b600d60009054906101000a900460ff1615612c41576040517f08c379a000000000000000000000000000000000000000000000000000000000815260040180806020018281038252602b815260200180613f35602b913960400191505060405180910390fd5b612c4d30601654612639565b50612c59601654613a35565b6001600d60006101000a81548160ff02191690831515021790555042600881905550565b612c856132fb565b73ffffffffffffffffffffffffffffffffffffffff16600760009054906101000a900473ffffffffffffffffffffffffffffffffffffffff1673ffffffffffffffffffffffffffffffffffffffff1614612d47576040517f08c379a00000000000000000000000000000000000000000000000000000000081526004018080602001828103825260208152602001807f4f776e61626c653a2063616c6c6572206973206e6f7420746865206f776e657281525060200191505060405180910390fd5b600073ffffffffffffffffffffffffffffffffffffffff168173ffffffffffffffffffffffffffffffffffffffff161415612dcd576040517f08c379a0000000000000000000000000000000000000000000000000000000008152600401808060200182810382526026815260200180613eed6026913960400191505060405180910390fd5b8073ffffffffffffffffffffffffffffffffffffffff16600760009054906101000a900473ffffffffffffffffffffffffffffffffffffffff1673ffffffffffffffffffffffffffffffffffffffff167f8be0079c531659141344cd1fd0a4f28419497f9722a3daafe3b4186f6b6457e060405160405180910390a380600760006101000a81548173ffffffffffffffffffffffffffffffffffffffff021916908373ffffffffffffffffffffffffffffffffffffffff16021790555050565b612e95611c0a565b612f07576040517f08c379a00000000000000000000000000000000000000000000000000000000081526004018080602001828103825260128152602001807f596f75277265206e6f7420666c6970706572000000000000000000000000000081525060200191505060405180910390fd5b612f1e600954600854612fbd90919063ffffffff16565b4211612f2957600080fd5b60188111158015612f3b575060018110155b612f90576040517f08c379a00000000000000000000000000000000000000000000000000000000081526004018080602001828103825260358152602001806140086035913960400191505060405180910390fd5b612f9c30601754612639565b50612fa8601754613a35565b610e1081026009819055504260088190555050565b60008082840190508381101561303b576040517f08c379a000000000000000000000000000000000000000000000000000000000815260040180806020018281038252601b8152602001807f536166654d6174683a206164646974696f6e206f766572666c6f77000000000081525060200191505060405180910390fd5b8091505092915050565b613050838383613166565b600073ffffffffffffffffffffffffffffffffffffffff168373ffffffffffffffffffffffffffffffffffffffff161415613117576006546130a28261309461131a565b612fbd90919063ffffffff16565b1115613116576040517f08c379a00000000000000000000000000000000000000000000000000000000081526004018080602001828103825260198152602001807f45524332304361707065643a206361702065786365656465640000000000000081525060200191505060405180910390fd5b5b505050565b600061315e83836040518060400160405280601e81526020017f536166654d6174683a207375627472616374696f6e206f766572666c6f77000081525061323b565b905092915050565b505050565b60008083141561317e57600090506131eb565b600082840290508284828161318f57fe5b04146131e6576040517f08c379a00000000000000000000000000000000000000000000000000000000081526004018080602001828103825260218152602001806140606021913960400191505060405180910390fd5b809150505b92915050565b600061323383836040518060400160405280601a81526020017f536166654d6174683a206469766973696f6e206279207a65726f000000000000815250613a56565b905092915050565b60008383111582906132e8576040517f08c379a00000000000000000000000000000000000000000000000000000000081526004018080602001828103825283818151815260200191508051906020019080838360005b838110156132ad578082015181840152602081019050613292565b50505050905090810190601f1680156132da5780820380516001836020036101000a031916815260200191505b509250505060405180910390fd5b5060008385039050809150509392505050565b600033905090565b600073ffffffffffffffffffffffffffffffffffffffff168373ffffffffffffffffffffffffffffffffffffffff161415613389576040517f08c379a00000000000000000000000000000000000000000000000000000000081526004018080602001828103825260248152602001806141246024913960400191505060405180910390fd5b600073ffffffffffffffffffffffffffffffffffffffff168273ffffffffffffffffffffffffffffffffffffffff16141561340f576040517f08c379a0000000000000000000000000000000000000000000000000000000008152600401808060200182810382526022815260200180613f136022913960400191505060405180910390fd5b80600160008573ffffffffffffffffffffffffffffffffffffffff1673ffffffffffffffffffffffffffffffffffffffff16815260200190815260200160002060008473ffffffffffffffffffffffffffffffffffffffff1673ffffffffffffffffffffffffffffffffffffffff168152602001908152602001600020819055508173ffffffffffffffffffffffffffffffffffffffff168373ffffffffffffffffffffffffffffffffffffffff167f8c5be1e5ebec7d5bd14f71427d1e84f3dd0314c0f7b2291e5b200ac8c7c3b925836040518082815260200191505060405180910390a3505050565b600073ffffffffffffffffffffffffffffffffffffffff168373ffffffffffffffffffffffffffffffffffffffff161415613580576040517f08c379a00000000000000000000000000000000000000000000000000000000081526004018080602001828103825260258152602001806140ff6025913960400191505060405180910390fd5b600073ffffffffffffffffffffffffffffffffffffffff168273ffffffffffffffffffffffffffffffffffffffff161415613606576040517f08c379a0000000000000000000000000000000000000000000000000000000008152600401808060200182810382526023815260200180613d876023913960400191505060405180910390fd5b613611838383613b1c565b61367c81604051806060016040528060268152602001613f60602691396000808773ffffffffffffffffffffffffffffffffffffffff1673ffffffffffffffffffffffffffffffffffffffff1681526020019081526020016000205461323b9092919063ffffffff16565b6000808573ffffffffffffffffffffffffffffffffffffffff1673ffffffffffffffffffffffffffffffffffffffff1681526020019081526020016000208190555061370f816000808573ffffffffffffffffffffffffffffffffffffffff1673ffffffffffffffffffffffffffffffffffffffff16815260200190815260200160002054612fbd90919063ffffffff16565b6000808473ffffffffffffffffffffffffffffffffffffffff1673ffffffffffffffffffffffffffffffffffffffff168152602001908152602001600020819055508173ffffffffffffffffffffffffffffffffffffffff168373ffffffffffffffffffffffffffffffffffffffff167fddf252ad1be2c89b69c2b068fc378daa952ba7f163c4a11628f55a4df523b3ef836040518082815260200191505060405180910390a3505050565b600073ffffffffffffffffffffffffffffffffffffffff168273ffffffffffffffffffffffffffffffffffffffff16141561385e576040517f08c379a000000000000000000000000000000000000000000000000000000000815260040180806020018281038252601f8152602001807f45524332303a206d696e7420746f20746865207a65726f20616464726573730081525060200191505060405180910390fd5b61386a60008383613b1c565b61387f81600254612fbd90919063ffffffff16565b6002819055506138d6816000808573ffffffffffffffffffffffffffffffffffffffff1673ffffffffffffffffffffffffffffffffffffffff16815260200190815260200160002054612fbd90919063ffffffff16565b6000808473ffffffffffffffffffffffffffffffffffffffff1673ffffffffffffffffffffffffffffffffffffffff168152602001908152602001600020819055508173ffffffffffffffffffffffffffffffffffffffff16600073ffffffffffffffffffffffffffffffffffffffff167fddf252ad1be2c89b69c2b068fc378daa952ba7f163c4a11628f55a4df523b3ef836040518082815260200191505060405180910390a35050565b6000818314156139fa576040517f08c379a000000000000000000000000000000000000000000000000000000000815260040180806020018281038252601d8152602001807f7468697320697320616c726561647920746865207468726573686f6c6400000081525060200191505060405180910390fd5b818311613a1957613a14838361311c90919063ffffffff16565b613a2d565b613a2c828461311c90919063ffffffff16565b5b905092915050565b600760149054906101000a900460ff16613a5357613a5281613c74565b5b50565b60008083118290613b02576040517f08c379a00000000000000000000000000000000000000000000000000000000081526004018080602001828103825283818151815260200191508051906020019080838360005b83811015613ac7578082015181840152602081019050613aac565b50505050905090810190601f168015613af45780820380516001836020036101000a031916815260200191505b509250505060405180910390fd5b506000838581613b0e57fe5b049050809150509392505050565b613b27838383613045565b600760149054906101000a900460ff1615613c6f578273ffffffffffffffffffffffffffffffffffffffff16601460009054906101000a900473ffffffffffffffffffffffffffffffffffffffff1673ffffffffffffffffffffffffffffffffffffffff1614613c6e573073ffffffffffffffffffffffffffffffffffffffff168273ffffffffffffffffffffffffffffffffffffffff1614613c6d576000613bcf82613d36565b90506000613c0082613bf285613be489611e0c565b61311c90919063ffffffff16565b61311c90919063ffffffff16565b1015613c57576040517f08c379a0000000000000000000000000000000000000000000000000000000008152600401808060200182810382526042815260200180613e406042913960600191505060405180910390fd5b613c6081613c74565b613c6b8430836134fa565b505b5b5b505050565b60058110613d17576000600d60019054906101000a900460ff16613cbe57613cb96064613cab60058561316b90919063ffffffff16565b6131f190919063ffffffff16565b613cc1565b60005b90506000613cd8828461311c90919063ffffffff16565b9050613cef81600b54612fbd90919063ffffffff16565b600b81905550613d0a82600c54612fbd90919063ffffffff16565b600c819055505050613d33565b613d2c81600b54612fbd90919063ffffffff16565b600b819055505b50565b6000600760149054906101000a900460ff1615613d7c57613d756064613d67600a548561316b90919063ffffffff16565b6131f190919063ffffffff16565b9050613d81565b600090505b91905056fe45524332303a207472616e7366657220746f20746865207a65726f20616464726573734565656521204d696e696d756d20736e61746368526174652069732031252c206d6178696d756d2031302520666f7220466c69707065725468726573686f6c6420666f7220526976657220446f6c7068696e73206d757374206772656174207468616e20526976657220446f6c7068696e73202a616e642a206c657373207468616e20426f74746c656e6f736520446f6c7068696e7345524332303a207472616e7366657220616d6f756e74207769746820736e6174636820636f737420657863656564732062616c616e63652c2073656e64206c6573735468726573686f6c6420666f7220526976657220446f6c7068696e73206d757374206265203120746f20323130332e34352045454545456565652120596f7520646f6e2774206861766520656e6f756768204545454520746f206d616b652074686973206368616e67652e4f776e61626c653a206e6577206f776e657220697320746865207a65726f206164647265737345524332303a20617070726f766520746f20746865207a65726f2061646472657373456565652120546f6f206c617465207375636b65722c20646576277320656174696e6720746f6e6967687445524332303a207472616e7366657220616d6f756e7420657863656564732062616c616e6365596f75277265206e6f74206576656e206120626f74746c656e6f736520646f6c7068696e736e61746368706f6f6c3a206d696e20736e6174636820616d6f756e742028302e3031204545454529206e6f7420726561636865642e5468726573686f6c6420666f72204f72636173206d757374206265203120746f20393920454545454565656521204d696e696d756d20636f6f6c646f776e206973203120686f75722c206d6178696d756d20697320323420686f757273596f75277265206e6f7420746865206465762c20676574206f7574206f662068657265536166654d6174683a206d756c7469706c69636174696f6e206f766572666c6f7745524332303a207472616e7366657220616d6f756e74206578636565647320616c6c6f77616e63655468726573686f6c6420666f72204f72636173206d757374206265206c657373207468616e20526976657220446f6c7068696e734565656521205468652067616d652068617320616c7265616479207374617274656445524332303a207472616e736665722066726f6d20746865207a65726f206164647265737345524332303a20617070726f76652066726f6d20746865207a65726f20616464726573735468726573686f6c6420666f7220426f74746c656e6f736520446f6c7068696e73206d757374206265203120746f20343230362e3920454545454565656521204d696e696d756d20736e61746368526174652069732031252c206d6178696d756d206973203130252e456565652120546865204c5020636f6e747261637420686173206e6f74206265656e207365745468726573686f6c6420666f7220426f74746c656e6f736520446f6c7068696e73206d757374206772656174207468616e20526976657220446f6c7068696e734565656521205468652067616d652068617320616c7265616479206265656e2070617573656445524332303a2064656372656173656420616c6c6f77616e63652062656c6f77207a65726fa26469706673582212200d33331456c6d1c7d954bcfb3145e52eb351a4267206b40995a80b84813425c864736f6c634300060c003345524332303a207472616e7366657220746f20746865207a65726f206164647265737345524332303a207472616e7366657220616d6f756e74207769746820736e6174636820636f737420657863656564732062616c616e63652c2073656e64206c65737345524332303a207472616e7366657220616d6f756e7420657863656564732062616c616e6365596f75277265206e6f7420746865206465762c20676574206f7574206f662068657265536166654d6174683a206d756c7469706c69636174696f6e206f766572666c6f7745524332303a207472616e736665722066726f6d20746865207a65726f2061646472657373",
  "immutableReferences": {},
  "source": "//SPDX-License-Identifier: MIT\npragma solidity 0.6.12;\n\nimport \"@openzeppelin/contracts/token/ERC20/ERC20Capped.sol\";\nimport \"@openzeppelin/contracts/access/Ownable.sol\";\nimport \"@openzeppelin/contracts/token/ERC20/IERC20.sol\";\nimport \"@openzeppelin/contracts/GSN/Context.sol\";\nimport \"@openzeppelin/contracts/utils/Address.sol\";\nimport \"@openzeppelin/contracts/utils/ReentrancyGuard.sol\";\nimport \"@openzeppelin/contracts/math/SafeMath.sol\";\nimport \"@openzeppelin/contracts/math/Math.sol\";\n\n// Eeee! Welcome Dolphins! \n//\n//////////////////////////////////////////////////////////////////////\n//                                       __                         //\n//                                   _.-~  )    ____ eeee ____      //\n//                        _..--~~~~,'   ,-/     _                   //\n//                     .-'. . . .'   ,-','    ,' )                  //\n//                   ,'. . . _   ,--~,-'__..-'  ,'                  //\n//                 ,'. . .  (@)' ---~~~~      ,'                    //\n//                /. . . . '~~             ,-'                      //\n//               /. . . . .             ,-'                         //\n//              ; . . . .  - .        ,'                            //\n//             : . . . .       _     /                              //\n//            . . . . .          `-.:                               //\n//           . . . ./  - .          )                               //\n//          .  . . |  _____..---.._/ ____ dolphins.wtf ____         //\n//~---~~~~-~~---~~~~----~~~~-~~~~-~~---~~~~----~~~~~~---~~~~-~~---~~//\n//                                                                  //\n//////////////////////////////////////////////////////////////////////\n//\n// This code has not been audited, but has been reviewed. Hopefully it's bug free... \n// If you do find bugs, remember those were features and part of the game... Don't hate the player.\n//\n// Also, this token is a worthless game token. Don't buy it. Just farm it, and then play games. It will be fun. \n//\n// Eeee! Let the games begin!\n\n// eeee, hardcap set on deployment with minting to dev for subsequent deployment into DolphinPods (2x) & snatchFeeder\ncontract eeee is ERC20Capped, Ownable {\n    using SafeMath for uint256;\n\n    bool public _isGameActive;\n    uint256 public _lastUpdated;\n    uint256 public _coolDownTime;\n    uint256 public _snatchRate;\n    uint256 public _snatchPool;\n    uint256 public _devFoodBucket;\n    bool public _devCanEat;\n    bool public _isAnarchy;\n    uint256 public _orca;\n\tuint256 public _river;\n\tuint256 public _bottlenose;\n\tuint256 public _flipper = 42069e17;\n\tuint256 public _peter = 210345e17;\n\taddress public _owner;\n\taddress public _UniLP;\n\tuint256 public _lpMin;\n\tuint256 public _feeLevel1;\n\tuint256 public _feeLevel2;\n    \n    event Snatched(address indexed user, uint256 amount);\n\n    constructor() public\n        ERC20(\"dolphins.wtf\", \"EEEE\")\n        ERC20Capped(42069e18)\n    {\n        _isGameActive = false;\n        _coolDownTime = 3600;\n        _devCanEat = false;\n        _isAnarchy = false;\n        _snatchRate = 1;\n        _orca = 69e18;\n\t\t_river = 42069e16;\n\t\t_bottlenose = 210345e16;\n\t\t_lpMin = 1;\n\t\t_UniLP = address(0);\n\t\t_feeLevel1 = 1e18;\n\t\t_feeLevel2 = 5e18;\n\t\t_owner = msg.sender;\n        mint(msg.sender, 42069e18);\n        //transfer(msg.sender, 42069e18);\n    }\n\n    // levels: checks caller's balance to determine if they can access a function\n\n    function uniLPBalance() public view returns (uint256) {\n\t\tIERC20 lpToken = IERC20(_UniLP);\n        return lpToken.balanceOf(msg.sender);\n\t}\n\t\n    function amILP() public view returns(bool) {\n        require(_UniLP != address(0), \"Eeee! The LP contract has not been set\");\n        return uniLPBalance() > _lpMin;\n    } \n\n    function amIOrca() public view returns(bool) {\n        return balanceOf(msg.sender) >= _orca || amILP();\n    } \n\n    //  Orcas (are you even a dolphin?) - 69 (0.00164%); Can: Snatch tax base\n    modifier onlyOrca() {\n        require(amIOrca(), \"Eeee! You're not even an orca\");\n        _;\n    }\n\n    function amIRiver() public view returns(bool) {\n        return balanceOf(msg.sender) >= _river;\n    } \n\n    // River Dolphin (what is wrong with your nose?) - 420.69 (1%); Can: turn game on/off\n    modifier onlyRiver() {\n        require(amIRiver(), \"You're not even a river dolphin\");\n        _;\n    }\n\n    function amIBottlenose() public view returns(bool) {\n        return balanceOf(msg.sender) >= _bottlenose;\n    } \n\n    // Bottlenose Dolphin  (now that's a dolphin) - 2103.45 (5%); Can: Change tax rate (up to 2.5%); Devs can eat (allows dev to withdraw from the dev food bucket)\n    modifier onlyBottlenose() {\n        require(amIBottlenose(), \"You're not even a bottlenose dolphin\");\n        _;\n    }\n\n    function amIFlipper() public view returns(bool) {\n        return balanceOf(msg.sender) >= _flipper;\n    } \n\n    // Flipper (A based dolphin) - 4206.9 (10%); Can: Change levels thresholds (except Flipper and Peter); Change tax rate (up to 10%); Change cooldown time\n    modifier onlyFlipper() {\n        require(amIFlipper(), \"You're not flipper\");\n        _;\n    }\n\n    function amIPeter() public view returns(bool) {\n        return balanceOf(msg.sender) >= _peter;\n    } \n\n    // Peter the Dolphin (ask Margaret Howe Lovatt) - 21034.5 (50%); Can: Burn the key and hand the world over to the dolphins, and stops feeding the devs\n    modifier onlyPeter() {\n        require(amIPeter(), \"You're not peter the dolphin\");\n        _;\n    }\n\n    function dolphinhoodLevel() public view returns(string memory) {\n        if (amIPeter()) {\n            return \"Peter\";\n        }\n        if (amIFlipper()) {\n            return \"Flipper\";\n        }\n        if (amIBottlenose()) {\n            return \"Bottlenose\";\n        }\n        if (amIRiver()) {\n            return \"River\";\n        }\n        if (amIOrca()) {\n            return \"Orca\";\n        }\n        if (amILP()) {\n            return \"Orca\";\n        } else {\n            return \"notDolphin\";\n        }\n\n    }\n\n    // Are you the dev?\n    modifier onlyDev() {\n        require(address(msg.sender) == _owner, \"You're not the dev, get out of here\");\n        _;\n    }\n\n    modifier cooledDown() {\n        require(now > _lastUpdated.add(_coolDownTime));\n        _;\n    }\n    \n    // snatch - grab from snatch pool, requires min 0.01 EEEE in snatchpool -- always free\n    function snatchFood() public onlyOrca cooledDown {\n        require(_snatchPool >= 1 * 1e16, \"snatchpool: min snatch amount (0.01 EEEE) not reached.\");\n        // check that the balance left in the contract is not less than the amount in the snatchPool, in case of rounding errors\n        uint256 effectiveSnatched = balanceOf(address(this)) < _snatchPool ? balanceOf(address(this)) : _snatchPool;\n\n        this.transfer(msg.sender, effectiveSnatched);\n\n        _snatchPool = 0;\n        emit Snatched(msg.sender, effectiveSnatched);\n    }\n    \n    // Add directly to the snatchpool, if the caller is not the dev then set to cooldown\n    function fundSnatch(uint256 EEEEtoSnatchPool) public {\n        transfer(address(this), EEEEtoSnatchPool);\n        _snatchPool = _snatchPool.add(EEEEtoSnatchPool);\n        if (address(msg.sender) != _owner) {\n            _lastUpdated = now;\n        }\n        \n    }\n\n    function fundDev(uint256 EEEEtoDevFood) public {\n        transfer(address(this), EEEEtoDevFood);\n        _devFoodBucket = _devFoodBucket.add(EEEEtoDevFood);\n    }\n\n    function checkSnatchBalance() public view returns (uint256) {\n        return _snatchPool;\n    }\n\n    function checkDevBalance() public view returns (uint256) {\n        return _devFoodBucket;\n    }\n\n    // startGame -- call fee level 1\n    function startGame() public onlyRiver cooledDown {\n        require(!_isGameActive, \"Eeee! The game has already started\");\n        transfer(address(this), _feeLevel1);\n        // because the game doesn't turn on until after this call completes we need to manually add to snatch\n        callsAlwaysPaySnatch(_feeLevel1);\n        _isGameActive = true;\n        _lastUpdated = now;\n    }\n\n    // pauseGame -- call fee level 1\n    function pauseGame() public onlyRiver cooledDown {\n        require(_isGameActive, \"Eeee! The game has already been paused\");\n\t\ttransfer(address(this), _feeLevel1);\n        _isGameActive = false;\n        _lastUpdated = now;\n    }\n\n    // all payed function calls should pay snatch, even if the game is off\n    function callsAlwaysPaySnatch (uint256 amount) internal {\n        if (!_isGameActive) {\n            _snatch(amount);\n        }\n    }\n\n    // allowDevToEat - can only be turned on once  -- call fee level 1\n    function allowDevToEat() public onlyBottlenose {\n        require(!_devCanEat, \"Eeee! Too late sucker, dev's eating tonight\");\n\t\ttransfer(address(this), _feeLevel1);\n        callsAlwaysPaySnatch(_feeLevel1);\n        _devCanEat = true;\n\t\t_lastUpdated = now;\n    }\n\n    // changeSnatchRate - with max of 3% if Bottlenose; with max of 10% if Flipper -- call fee level 2\n    function changeSnatchRate(uint256 newSnatchRate) public onlyBottlenose cooledDown {\n        if (amIFlipper()) {\n            require(newSnatchRate >= 1 && newSnatchRate <= 10, \"Eeee! Minimum snatchRate is 1%, maximum is 10%.\");\n        } else {\n            require(newSnatchRate >= 1 && newSnatchRate <= 3, \"Eeee! Minimum snatchRate is 1%, maximum 10% for Flipper\");\n        }\n        transfer(address(this), _feeLevel2);\n\t\tcallsAlwaysPaySnatch(_feeLevel2);\n        _snatchRate = newSnatchRate;\n\t\t_lastUpdated = now;\n    }\n\n    // changeCoolDownTime - make the game go faster or slower, cooldown to be set in hours (min 1; max 24) -- call fee level 2\n    function updateCoolDown(uint256 newCoolDown) public onlyFlipper cooledDown {\n        //require(_isGameActive, \"Eeee! You need to wait for the game to start first\");\n        require(newCoolDown <= 24 && newCoolDown >= 1, \"Eeee! Minimum cooldown is 1 hour, maximum is 24 hours\");\n        transfer(address(this), _feeLevel2);\n\t\tcallsAlwaysPaySnatch(_feeLevel2);\n        _coolDownTime = newCoolDown * 1 hours;\n        _lastUpdated = now;\n    }\n\n    // functions to change levels, caller should ensure to calculate this on 1e18 basis -- call fee level 1 * sought change\n    function getSizeChangeFee(uint256 currentThreshold, uint256 newThreshold) private pure returns (uint256) {\n        require (currentThreshold != newThreshold, 'this is already the threshold');\n        return currentThreshold > newThreshold ? currentThreshold.sub(newThreshold) : newThreshold.sub(currentThreshold);\n    }\n    \n    function updateOrca(uint256 updatedThreshold) public onlyFlipper {\n        uint256 changeFee = getSizeChangeFee(_orca, updatedThreshold);\n        require(balanceOf(msg.sender) >= changeFee, \"Eeee! You don't have enough EEEE to make this change.\");\n\t\trequire(updatedThreshold >= 1e18 && updatedThreshold <= 99e18, \"Threshold for Orcas must be 1 to 99 EEEE\");\n        require(updatedThreshold < _river, \"Threshold for Orcas must be less than River Dolphins\");\n        _orca = updatedThreshold;\n        transfer(address(this), changeFee);\n\t\tcallsAlwaysPaySnatch(changeFee);\n        _lastUpdated = now;\n    }\n    \n    function updateRiver(uint256 updatedThreshold) public onlyFlipper {\n        uint256 changeFee = getSizeChangeFee(_river, updatedThreshold);\n        require(balanceOf(msg.sender) >= changeFee, \"Eeee! You don't have enough EEEE to make this change.\");\n\t\trequire(updatedThreshold >= 1e18 && updatedThreshold <= 210345e16, \"Threshold for River Dolphins must be 1 to 2103.45 EEEE\");\n        require(updatedThreshold > _orca && updatedThreshold < _bottlenose, \"Threshold for River Dolphins must great than River Dolphins *and* less than Bottlenose Dolphins\");\n        _river = updatedThreshold;\n\t\ttransfer(address(this), changeFee);\n\t\tcallsAlwaysPaySnatch(changeFee);\n        _lastUpdated = now;\n    }\n    \n    function updateBottlenose(uint256 updatedThreshold) public onlyFlipper {\n        uint256 changeFee = getSizeChangeFee(_bottlenose, updatedThreshold);\n        require(balanceOf(msg.sender) >= changeFee, \"Eeee! You don't have enough EEEE to make this change.\");\n\t\trequire(updatedThreshold >= 1e18 && updatedThreshold <= 42069e17, \"Threshold for Bottlenose Dolphins must be 1 to 4206.9 EEEE\");\n        require(updatedThreshold > _river, \"Threshold for Bottlenose Dolphins must great than River Dolphins\");\n        _bottlenose = updatedThreshold;\n\t\ttransfer(address(this), changeFee);\n\t\tcallsAlwaysPaySnatch(changeFee);\n        _lastUpdated = now;\n    }\n\n    // dolphinAnarchy - transfer owner permissions to 0xNull & stops feeding dev. CAREFUL: this cannot be undone and once you do it the dolphins swim alone.  -- call fee level 2\n    function activateAnarchy() public onlyPeter {\n        //Return anything in dev pool to snatchpool\n        transfer(address(this), _feeLevel2);\n\t\tcallsAlwaysPaySnatch(_feeLevel2);\n        _snatchPool = _snatchPool.add(_devFoodBucket);\n        _devFoodBucket = 0;\n        _isAnarchy = true; // ends dev feeding\n        _owner = address(0);\n        _lastUpdated = now;\n    }\n\n\n    // transfers tokens to snatchSupply and fees paid to dev (5%) only when we have not descended into Dolphin BASED anarchy\n    function _snatch(uint256 amount) internal {\n        // check that the amount is at least 5e-18 eeee, otherwise throw it all in the snatchpool\n        if (amount >= 5) {\n        uint256 devFood;\n            devFood = _isAnarchy ? 0 : amount.mul(5).div(100); // 5% put in a food bucket for the contract creator if we've not descended into dolphin anarchy\n            uint256 snatchedFood = amount.sub(devFood);\n            _snatchPool = _snatchPool.add(snatchedFood);\n            _devFoodBucket = _devFoodBucket.add(devFood);\n        } else {\n            _snatchPool = _snatchPool.add(amount);\n        }\n    }\n\n    function _calcSnatchAmount (uint256 amount) internal view returns (uint256) {\n        if (_isGameActive) {\n            // calculate the snatched amount to be transfered if the game is active\n            return (amount.mul(_snatchRate).div(100));\n        } else {\n            return 0;\n        }\n    }\n\n    // Need the _transfer function to break at _beforeTokenTransfer to do a second transfer to this contract for SnatchPool & DevFood, but if \n    function _beforeTokenTransfer(address sender, address recipient, uint256 amount) internal override {\n        super._beforeTokenTransfer(sender, recipient, amount);\n\n        // This function should only do anything if the game is active, otherwise it should allow normal transfers\n        if (_isGameActive) {\n            // TO DO, make sure that transfers from Uniswap LP pool adhere to this\n            // Don't snatch transfers from the Uniswap LP pool (if set)\n            if (_UniLP != address(sender)) {\n                // A first call to _transfer (where the recipient isn't this contract will create a second transfer to this contract\n                if (recipient != address(this)) {\n                    //calculate snatchAmount\n                    uint256 amountToSnatch = _calcSnatchAmount(amount);\n                    // This function checks that the account sending funds has enough funds (transfer amount + snatch amount), otherwise reverts\n                    require(balanceOf(sender).sub(amount).sub(amountToSnatch) >= 0, \"ERC20: transfer amount with snatch cost exceeds balance, send less\");\n                    // allocate amountToSnatch to snatchPool and devFoodBucket\n                    _snatch(amountToSnatch);\n                    // make transfer from sender to this address\n                    _transfer(sender, address(this), amountToSnatch);\n                } \n            }\n            // After this, the normal function continues, and makes amount transfer to intended recipient\n        }\n    }\n    \n    // feedDev - allows owner to withdraw 5% thrown into dev food buck. Must only be called by the Dev.\n    function feedDev() public onlyDev {\n        require(_devCanEat, \"sorry dev, no scraps for you\");\n        // check that the balance left in the contract is not less than the amount in the DevFoodBucket, in case of rounding errors\n        if (balanceOf(address(this)) < _devFoodBucket) {\n            transfer(msg.sender, balanceOf(address(this)));\n        } else {\n            transfer(msg.sender, _devFoodBucket);\n        }\n        _devFoodBucket = 0;\n    }\n\t\n\t// change fees for function calls, can only be triggered by Dev, and then enters cooldown\n\tfunction changeFunctionFees(uint256 newFeeLevel1, uint256 newFeeLevel2) public onlyDev {\n\t\t_feeLevel1 = newFeeLevel1;\n\t\t_feeLevel2 = newFeeLevel2;\n\t\t_lastUpdated = now;\n\t}\n\t\n\tfunction setLP(address addrUniV2LP, uint256 lpMin) public onlyDev {\n\t\t_UniLP = addrUniV2LP;\n\t\t_lpMin = lpMin;\n\t}\n\n    function mint(address _to, uint256 amount) public onlyDev {\n        _mint(_to, amount);\n    }\n}",
  "sourcePath": "/mnt/c/dev/dolphinsWTF/contracts/eeee.sol",
  "compiler": {
    "name": "solc",
    "version": "0.6.12+commit.27d51765.Emscripten.clang"
  },
  "schemaVersion": "3.3.2",
  "updatedAt": "2020-11-22T07:04:05.883Z",
  "devdoc": {
    "kind": "dev",
    "methods": {
      "allowance(address,address)": {
        "details": "See {IERC20-allowance}."
      },
      "approve(address,uint256)": {
        "details": "See {IERC20-approve}. Requirements: - `spender` cannot be the zero address."
      },
      "balanceOf(address)": {
        "details": "See {IERC20-balanceOf}."
      },
      "cap()": {
        "details": "Returns the cap on the token's total supply."
      },
      "decimals()": {
        "details": "Returns the number of decimals used to get its user representation. For example, if `decimals` equals `2`, a balance of `505` tokens should be displayed to a user as `5,05` (`505 / 10 ** 2`). Tokens usually opt for a value of 18, imitating the relationship between Ether and Wei. This is the value {ERC20} uses, unless {_setupDecimals} is called. NOTE: This information is only used for _display_ purposes: it in no way affects any of the arithmetic of the contract, including {IERC20-balanceOf} and {IERC20-transfer}."
      },
      "decreaseAllowance(address,uint256)": {
        "details": "Atomically decreases the allowance granted to `spender` by the caller. This is an alternative to {approve} that can be used as a mitigation for problems described in {IERC20-approve}. Emits an {Approval} event indicating the updated allowance. Requirements: - `spender` cannot be the zero address. - `spender` must have allowance for the caller of at least `subtractedValue`."
      },
      "increaseAllowance(address,uint256)": {
        "details": "Atomically increases the allowance granted to `spender` by the caller. This is an alternative to {approve} that can be used as a mitigation for problems described in {IERC20-approve}. Emits an {Approval} event indicating the updated allowance. Requirements: - `spender` cannot be the zero address."
      },
      "name()": {
        "details": "Returns the name of the token."
      },
      "owner()": {
        "details": "Returns the address of the current owner."
      },
      "renounceOwnership()": {
        "details": "Leaves the contract without owner. It will not be possible to call `onlyOwner` functions anymore. Can only be called by the current owner. NOTE: Renouncing ownership will leave the contract without an owner, thereby removing any functionality that is only available to the owner."
      },
      "symbol()": {
        "details": "Returns the symbol of the token, usually a shorter version of the name."
      },
      "totalSupply()": {
        "details": "See {IERC20-totalSupply}."
      },
      "transfer(address,uint256)": {
        "details": "See {IERC20-transfer}. Requirements: - `recipient` cannot be the zero address. - the caller must have a balance of at least `amount`."
      },
      "transferFrom(address,address,uint256)": {
        "details": "See {IERC20-transferFrom}. Emits an {Approval} event indicating the updated allowance. This is not required by the EIP. See the note at the beginning of {ERC20}; Requirements: - `sender` and `recipient` cannot be the zero address. - `sender` must have a balance of at least `amount`. - the caller must have allowance for ``sender``'s tokens of at least `amount`."
      },
      "transferOwnership(address)": {
        "details": "Transfers ownership of the contract to a new account (`newOwner`). Can only be called by the current owner."
      }
    },
    "version": 1
  },
  "userdoc": {
    "kind": "user",
    "methods": {},
    "version": 1
  }
}