{
  "contractName": "eeee",
  "abi": [
    {
      "inputs": [
        {
          "internalType": "uint256",
          "name": "_hard_cap",
          "type": "uint256"
        }
      ],
      "stateMutability": "nonpayable",
      "type": "constructor"
    },
    {
      "anonymous": false,
      "inputs": [
        {
          "indexed": true,
          "internalType": "address",
          "name": "owner",
          "type": "address"
        },
        {
          "indexed": true,
          "internalType": "address",
          "name": "spender",
          "type": "address"
        },
        {
          "indexed": false,
          "internalType": "uint256",
          "name": "value",
          "type": "uint256"
        }
      ],
      "name": "Approval",
      "type": "event"
    },
    {
      "anonymous": false,
      "inputs": [
        {
          "indexed": true,
          "internalType": "address",
          "name": "from",
          "type": "address"
        },
        {
          "indexed": true,
          "internalType": "address",
          "name": "to",
          "type": "address"
        },
        {
          "indexed": false,
          "internalType": "uint256",
          "name": "value",
          "type": "uint256"
        }
      ],
      "name": "Transfer",
      "type": "event"
    },
    {
      "inputs": [],
      "name": "_UniLP",
      "outputs": [
        {
          "internalType": "address",
          "name": "",
          "type": "address"
        }
      ],
      "stateMutability": "view",
      "type": "function"
    },
    {
      "inputs": [],
      "name": "_bottlenose",
      "outputs": [
        {
          "internalType": "uint256",
          "name": "",
          "type": "uint256"
        }
      ],
      "stateMutability": "view",
      "type": "function"
    },
    {
      "inputs": [],
      "name": "_coolDownTime",
      "outputs": [
        {
          "internalType": "uint256",
          "name": "",
          "type": "uint256"
        }
      ],
      "stateMutability": "view",
      "type": "function"
    },
    {
      "inputs": [],
      "name": "_devCanEat",
      "outputs": [
        {
          "internalType": "bool",
          "name": "",
          "type": "bool"
        }
      ],
      "stateMutability": "view",
      "type": "function"
    },
    {
      "inputs": [],
      "name": "_devFoodBucket",
      "outputs": [
        {
          "internalType": "uint256",
          "name": "",
          "type": "uint256"
        }
      ],
      "stateMutability": "view",
      "type": "function"
    },
    {
      "inputs": [],
      "name": "_feeLevel1",
      "outputs": [
        {
          "internalType": "uint256",
          "name": "",
          "type": "uint256"
        }
      ],
      "stateMutability": "view",
      "type": "function"
    },
    {
      "inputs": [],
      "name": "_feeLevel2",
      "outputs": [
        {
          "internalType": "uint256",
          "name": "",
          "type": "uint256"
        }
      ],
      "stateMutability": "view",
      "type": "function"
    },
    {
      "inputs": [],
      "name": "_flipper",
      "outputs": [
        {
          "internalType": "uint256",
          "name": "",
          "type": "uint256"
        }
      ],
      "stateMutability": "view",
      "type": "function"
    },
    {
      "inputs": [],
      "name": "_gameStarted",
      "outputs": [
        {
          "internalType": "bool",
          "name": "",
          "type": "bool"
        }
      ],
      "stateMutability": "view",
      "type": "function"
    },
    {
      "inputs": [],
      "name": "_isAnarchy",
      "outputs": [
        {
          "internalType": "bool",
          "name": "",
          "type": "bool"
        }
      ],
      "stateMutability": "view",
      "type": "function"
    },
    {
      "inputs": [],
      "name": "_lastUpdated",
      "outputs": [
        {
          "internalType": "uint256",
          "name": "",
          "type": "uint256"
        }
      ],
      "stateMutability": "view",
      "type": "function"
    },
    {
      "inputs": [],
      "name": "_lpMin",
      "outputs": [
        {
          "internalType": "uint256",
          "name": "",
          "type": "uint256"
        }
      ],
      "stateMutability": "view",
      "type": "function"
    },
    {
      "inputs": [],
      "name": "_orca",
      "outputs": [
        {
          "internalType": "uint256",
          "name": "",
          "type": "uint256"
        }
      ],
      "stateMutability": "view",
      "type": "function"
    },
    {
      "inputs": [],
      "name": "_owner",
      "outputs": [
        {
          "internalType": "address",
          "name": "",
          "type": "address"
        }
      ],
      "stateMutability": "view",
      "type": "function"
    },
    {
      "inputs": [],
      "name": "_peter",
      "outputs": [
        {
          "internalType": "uint256",
          "name": "",
          "type": "uint256"
        }
      ],
      "stateMutability": "view",
      "type": "function"
    },
    {
      "inputs": [],
      "name": "_river",
      "outputs": [
        {
          "internalType": "uint256",
          "name": "",
          "type": "uint256"
        }
      ],
      "stateMutability": "view",
      "type": "function"
    },
    {
      "inputs": [],
      "name": "_snatchPool",
      "outputs": [
        {
          "internalType": "uint256",
          "name": "",
          "type": "uint256"
        }
      ],
      "stateMutability": "view",
      "type": "function"
    },
    {
      "inputs": [],
      "name": "_snatchRate",
      "outputs": [
        {
          "internalType": "uint256",
          "name": "",
          "type": "uint256"
        }
      ],
      "stateMutability": "view",
      "type": "function"
    },
    {
      "inputs": [
        {
          "internalType": "address",
          "name": "owner",
          "type": "address"
        },
        {
          "internalType": "address",
          "name": "spender",
          "type": "address"
        }
      ],
      "name": "allowance",
      "outputs": [
        {
          "internalType": "uint256",
          "name": "",
          "type": "uint256"
        }
      ],
      "stateMutability": "view",
      "type": "function"
    },
    {
      "inputs": [
        {
          "internalType": "address",
          "name": "spender",
          "type": "address"
        },
        {
          "internalType": "uint256",
          "name": "amount",
          "type": "uint256"
        }
      ],
      "name": "approve",
      "outputs": [
        {
          "internalType": "bool",
          "name": "",
          "type": "bool"
        }
      ],
      "stateMutability": "nonpayable",
      "type": "function"
    },
    {
      "inputs": [
        {
          "internalType": "address",
          "name": "account",
          "type": "address"
        }
      ],
      "name": "balanceOf",
      "outputs": [
        {
          "internalType": "uint256",
          "name": "",
          "type": "uint256"
        }
      ],
      "stateMutability": "view",
      "type": "function"
    },
    {
      "inputs": [],
      "name": "cap",
      "outputs": [
        {
          "internalType": "uint256",
          "name": "",
          "type": "uint256"
        }
      ],
      "stateMutability": "view",
      "type": "function"
    },
    {
      "inputs": [],
      "name": "decimals",
      "outputs": [
        {
          "internalType": "uint8",
          "name": "",
          "type": "uint8"
        }
      ],
      "stateMutability": "view",
      "type": "function"
    },
    {
      "inputs": [
        {
          "internalType": "address",
          "name": "spender",
          "type": "address"
        },
        {
          "internalType": "uint256",
          "name": "subtractedValue",
          "type": "uint256"
        }
      ],
      "name": "decreaseAllowance",
      "outputs": [
        {
          "internalType": "bool",
          "name": "",
          "type": "bool"
        }
      ],
      "stateMutability": "nonpayable",
      "type": "function"
    },
    {
      "inputs": [
        {
          "internalType": "address",
          "name": "spender",
          "type": "address"
        },
        {
          "internalType": "uint256",
          "name": "addedValue",
          "type": "uint256"
        }
      ],
      "name": "increaseAllowance",
      "outputs": [
        {
          "internalType": "bool",
          "name": "",
          "type": "bool"
        }
      ],
      "stateMutability": "nonpayable",
      "type": "function"
    },
    {
      "inputs": [],
      "name": "name",
      "outputs": [
        {
          "internalType": "string",
          "name": "",
          "type": "string"
        }
      ],
      "stateMutability": "view",
      "type": "function"
    },
    {
      "inputs": [],
      "name": "symbol",
      "outputs": [
        {
          "internalType": "string",
          "name": "",
          "type": "string"
        }
      ],
      "stateMutability": "view",
      "type": "function"
    },
    {
      "inputs": [],
      "name": "totalSupply",
      "outputs": [
        {
          "internalType": "uint256",
          "name": "",
          "type": "uint256"
        }
      ],
      "stateMutability": "view",
      "type": "function"
    },
    {
      "inputs": [
        {
          "internalType": "address",
          "name": "recipient",
          "type": "address"
        },
        {
          "internalType": "uint256",
          "name": "amount",
          "type": "uint256"
        }
      ],
      "name": "transfer",
      "outputs": [
        {
          "internalType": "bool",
          "name": "",
          "type": "bool"
        }
      ],
      "stateMutability": "nonpayable",
      "type": "function"
    },
    {
      "inputs": [
        {
          "internalType": "address",
          "name": "sender",
          "type": "address"
        },
        {
          "internalType": "address",
          "name": "recipient",
          "type": "address"
        },
        {
          "internalType": "uint256",
          "name": "amount",
          "type": "uint256"
        }
      ],
      "name": "transferFrom",
      "outputs": [
        {
          "internalType": "bool",
          "name": "",
          "type": "bool"
        }
      ],
      "stateMutability": "nonpayable",
      "type": "function"
    },
    {
      "inputs": [],
      "name": "_amIOrca",
      "outputs": [
        {
          "internalType": "bool",
          "name": "",
          "type": "bool"
        }
      ],
      "stateMutability": "view",
      "type": "function"
    },
    {
      "inputs": [],
      "name": "_amILP",
      "outputs": [
        {
          "internalType": "bool",
          "name": "",
          "type": "bool"
        }
      ],
      "stateMutability": "view",
      "type": "function"
    },
    {
      "inputs": [],
      "name": "_amIRiver",
      "outputs": [
        {
          "internalType": "bool",
          "name": "",
          "type": "bool"
        }
      ],
      "stateMutability": "view",
      "type": "function"
    },
    {
      "inputs": [],
      "name": "_amIBottlenose",
      "outputs": [
        {
          "internalType": "bool",
          "name": "",
          "type": "bool"
        }
      ],
      "stateMutability": "view",
      "type": "function"
    },
    {
      "inputs": [],
      "name": "_amIFlipper",
      "outputs": [
        {
          "internalType": "bool",
          "name": "",
          "type": "bool"
        }
      ],
      "stateMutability": "view",
      "type": "function"
    },
    {
      "inputs": [],
      "name": "_amIPeter",
      "outputs": [
        {
          "internalType": "bool",
          "name": "",
          "type": "bool"
        }
      ],
      "stateMutability": "view",
      "type": "function"
    },
    {
      "inputs": [],
      "name": "dolphinhoodLevel",
      "outputs": [
        {
          "internalType": "string",
          "name": "",
          "type": "string"
        }
      ],
      "stateMutability": "view",
      "type": "function"
    },
    {
      "inputs": [],
      "name": "snatchFood",
      "outputs": [],
      "stateMutability": "nonpayable",
      "type": "function"
    },
    {
      "inputs": [],
      "name": "snatchFoodLP",
      "outputs": [],
      "stateMutability": "nonpayable",
      "type": "function"
    },
    {
      "inputs": [
        {
          "internalType": "uint256",
          "name": "EEEEtoSnatchPool",
          "type": "uint256"
        }
      ],
      "name": "fundSnatch",
      "outputs": [],
      "stateMutability": "nonpayable",
      "type": "function"
    },
    {
      "inputs": [
        {
          "internalType": "uint256",
          "name": "EEEEtoSnatchPool",
          "type": "uint256"
        }
      ],
      "name": "checkSnatching",
      "outputs": [],
      "stateMutability": "nonpayable",
      "type": "function"
    },
    {
      "inputs": [],
      "name": "startGame",
      "outputs": [],
      "stateMutability": "nonpayable",
      "type": "function"
    },
    {
      "inputs": [],
      "name": "endGame",
      "outputs": [],
      "stateMutability": "nonpayable",
      "type": "function"
    },
    {
      "inputs": [],
      "name": "allowDevToEat",
      "outputs": [],
      "stateMutability": "nonpayable",
      "type": "function"
    },
    {
      "inputs": [
        {
          "internalType": "uint256",
          "name": "newSnatchRate",
          "type": "uint256"
        }
      ],
      "name": "changeSnatchRate",
      "outputs": [],
      "stateMutability": "nonpayable",
      "type": "function"
    },
    {
      "inputs": [
        {
          "internalType": "uint256",
          "name": "newSnatchRate",
          "type": "uint256"
        }
      ],
      "name": "changeSnatchRateHigh",
      "outputs": [],
      "stateMutability": "nonpayable",
      "type": "function"
    },
    {
      "inputs": [
        {
          "internalType": "uint256",
          "name": "newCoolDown",
          "type": "uint256"
        }
      ],
      "name": "updateCoolDown",
      "outputs": [],
      "stateMutability": "nonpayable",
      "type": "function"
    },
    {
      "inputs": [
        {
          "internalType": "uint256",
          "name": "updatedThreshold",
          "type": "uint256"
        }
      ],
      "name": "updateOrca",
      "outputs": [],
      "stateMutability": "nonpayable",
      "type": "function"
    },
    {
      "inputs": [
        {
          "internalType": "uint256",
          "name": "updatedThreshold",
          "type": "uint256"
        }
      ],
      "name": "updateRiver",
      "outputs": [],
      "stateMutability": "nonpayable",
      "type": "function"
    },
    {
      "inputs": [
        {
          "internalType": "uint256",
          "name": "updatedThreshold",
          "type": "uint256"
        }
      ],
      "name": "updateBottlenose",
      "outputs": [],
      "stateMutability": "nonpayable",
      "type": "function"
    },
    {
      "inputs": [],
      "name": "activateAnarchy",
      "outputs": [],
      "stateMutability": "nonpayable",
      "type": "function"
    },
    {
      "inputs": [],
      "name": "feedDev",
      "outputs": [],
      "stateMutability": "nonpayable",
      "type": "function"
    },
    {
      "inputs": [
        {
          "internalType": "uint256",
          "name": "newFeeLevel1",
          "type": "uint256"
        },
        {
          "internalType": "uint256",
          "name": "newFeeLevel2",
          "type": "uint256"
        }
      ],
      "name": "changeFunctionFees",
      "outputs": [],
      "stateMutability": "nonpayable",
      "type": "function"
    },
    {
      "inputs": [
        {
          "internalType": "address",
          "name": "addrUniV2LP",
          "type": "address"
        },
        {
          "internalType": "uint256",
          "name": "lpMin",
          "type": "uint256"
        }
      ],
      "name": "setLP",
      "outputs": [],
      "stateMutability": "nonpayable",
      "type": "function"
    },
    {
      "inputs": [
        {
          "internalType": "address",
          "name": "_to",
          "type": "address"
        },
        {
          "internalType": "uint256",
          "name": "_amount",
          "type": "uint256"
        }
      ],
      "name": "mint",
      "outputs": [],
      "stateMutability": "nonpayable",
      "type": "function"
    }
  ],
  "bytecode": "0x60806040523480156200001157600080fd5b5060405162004c8d38038062004c8d833981810160405260208110156200003757600080fd5b8101908080519060200190929190505050806040518060400160405280600c81526020017f646f6c7068696e732e77746600000000000000000000000000000000000000008152506040518060400160405280600481526020017f45454545000000000000000000000000000000000000000000000000000000008152508160039080519060200190620000cd92919062000765565b508060049080519060200190620000e692919062000765565b506012600560006101000a81548160ff021916908360ff1602179055505050600081116200017c576040517f08c379a00000000000000000000000000000000000000000000000000000000081526004018080602001828103825260158152602001807f45524332304361707065643a206361702069732030000000000000000000000081525060200191505060405180910390fd5b80600681905550506200019633826200033c60201b60201c565b80601860003373ffffffffffffffffffffffffffffffffffffffff1673ffffffffffffffffffffffffffffffffffffffff168152602001908152602001600020819055506000600760006101000a81548160ff021916908315150217905550603c6009819055506000600d60006101000a81548160ff0219169083151502179055506000600d60016101000a81548160ff0219169083151502179055506001600a819055506803bd913e6c1df40000600e819055506816ce3f1e16bf150000600f819055506872073b9671bb69000060108190555068e40e772ce376d200006011819055506904744853e071521a000060128190555060016015819055506000601460006101000a81548173ffffffffffffffffffffffffffffffffffffffff021916908373ffffffffffffffffffffffffffffffffffffffff160217905550670de0b6b3a7640000601681905550674563918244f4000060178190555033601360006101000a81548173ffffffffffffffffffffffffffffffffffffffff021916908373ffffffffffffffffffffffffffffffffffffffff160217905550506200080b565b601360009054906101000a900473ffffffffffffffffffffffffffffffffffffffff1673ffffffffffffffffffffffffffffffffffffffff163373ffffffffffffffffffffffffffffffffffffffff1614620003e4576040517f08c379a000000000000000000000000000000000000000000000000000000000815260040180806020018281038252602381526020018062004c6a6023913960400191505060405180910390fd5b620003f68282620003fa60201b60201c565b5050565b600073ffffffffffffffffffffffffffffffffffffffff168273ffffffffffffffffffffffffffffffffffffffff1614156200049e576040517f08c379a000000000000000000000000000000000000000000000000000000000815260040180806020018281038252601f8152602001807f45524332303a206d696e7420746f20746865207a65726f20616464726573730081525060200191505060405180910390fd5b620004b260008383620005d860201b60201c565b620004ce81600254620006cd60201b620033851790919060201c565b6002819055506200052c816000808573ffffffffffffffffffffffffffffffffffffffff1673ffffffffffffffffffffffffffffffffffffffff16815260200190815260200160002054620006cd60201b620033851790919060201c565b6000808473ffffffffffffffffffffffffffffffffffffffff1673ffffffffffffffffffffffffffffffffffffffff168152602001908152602001600020819055508173ffffffffffffffffffffffffffffffffffffffff16600073ffffffffffffffffffffffffffffffffffffffff167fddf252ad1be2c89b69c2b068fc378daa952ba7f163c4a11628f55a4df523b3ef836040518082815260200191505060405180910390a35050565b620005f08383836200075660201b6200340d1760201c565b600073ffffffffffffffffffffffffffffffffffffffff168373ffffffffffffffffffffffffffffffffffffffff161415620006c85760065462000652826200063e6200075b60201b60201c565b620006cd60201b620033851790919060201c565b1115620006c7576040517f08c379a00000000000000000000000000000000000000000000000000000000081526004018080602001828103825260198152602001807f45524332304361707065643a206361702065786365656465640000000000000081525060200191505060405180910390fd5b5b505050565b6000808284019050838110156200074c576040517f08c379a000000000000000000000000000000000000000000000000000000000815260040180806020018281038252601b8152602001807f536166654d6174683a206164646974696f6e206f766572666c6f77000000000081525060200191505060405180910390fd5b8091505092915050565b505050565b6000600254905090565b828054600181600116156101000203166002900490600052602060002090601f016020900481019282601f10620007a857805160ff1916838001178555620007d9565b82800160010185558215620007d9579182015b82811115620007d8578251825591602001919060010190620007bb565b5b509050620007e89190620007ec565b5090565b5b8082111562000807576000816000905550600101620007ed565b5090565b61444f806200081b6000396000f3fe608060405234801561001057600080fd5b506004361061035d5760003560e01c806382c518fe116101d3578063c9540fd911610104578063de7704bb116100a2578063eda554681161007c578063eda5546814610d4c578063f3c7454314610d56578063f5b3317e14610d84578063fe388a9c14610da45761035d565b8063de7704bb14610ce0578063e35fb5d814610d00578063ea303b8914610d1e5761035d565b8063d8b77346116100de578063d8b7734614610bfc578063d8eeccc314610c1c578063db5ca09d14610c4a578063dd62ed3e14610c685761035d565b8063c9540fd914610b9c578063cdd6015314610bba578063d65ab5f214610bf25761035d565b8063acc2865211610171578063b6ce93c11161014b578063b6ce93c114610b0c578063bbfacbc714610b2c578063bfa73f3614610b4a578063c7f8915914610b7e5761035d565b8063acc2865214610ab0578063aee66ee014610aba578063b2bdfa7b14610ad85761035d565b806394ab16a8116101ad57806394ab16a81461094557806395d89b4114610965578063a457c2d7146109e8578063a9059cbb14610a4c5761035d565b806382c518fe1461089a5780638a5b4aec146108a45780638c734263146109275761035d565b806339509351116102ad5780635d90b87c1161024b5780636cbc2ded116102255780636cbc2ded146107ec57806370a08231146107f657806378dcd9521461084e5780637f7432e01461087c5761035d565b80635d90b87c146107725780636284f02d146107905780636648cb1d146107be5761035d565b806345207bb21161028757806345207bb2146106e85780634c6762a21461070857806350f0e432146107365780635c0ebd62146107545761035d565b8063395093511461061657806340c10f191461067a578063435c0878146106c85761035d565b806318160ddd1161031a57806323b872dd116102f457806323b872dd14610505578063313ce56714610589578063355274ea146105aa578063379990d6146105c85761035d565b806318160ddd146104995780631b2fc32e146104b75780631ef7a59d146104d75761035d565b806306fdde031461036257806307f89d5a146103e5578063095ea7b3146103ef5780630b2cbb05146104535780631233e4b61461045d578063123dda3f1461047b575b600080fd5b61036a610dc4565b6040518080602001828103825283818151815260200191508051906020019080838360005b838110156103aa57808201518184015260208101905061038f565b50505050905090810190601f1680156103d75780820380516001836020036101000a031916815260200191505b509250505060405180910390f35b6103ed610e66565b005b61043b6004803603604081101561040557600080fd5b81019080803573ffffffffffffffffffffffffffffffffffffffff16906020019092919080359060200190929190505050610ff5565b60405180821515815260200191505060405180910390f35b61045b611013565b005b6104656111dc565b6040518082815260200191505060405180910390f35b6104836111e2565b6040518082815260200191505060405180910390f35b6104a16111e8565b6040518082815260200191505060405180910390f35b6104bf6111f2565b60405180821515815260200191505060405180910390f35b610503600480360360208110156104ed57600080fd5b8101908080359060200190929190505050611249565b005b6105716004803603606081101561051b57600080fd5b81019080803573ffffffffffffffffffffffffffffffffffffffff169060200190929190803573ffffffffffffffffffffffffffffffffffffffff169060200190929190803590602001909291905050506112fc565b60405180821515815260200191505060405180910390f35b6105916113d5565b604051808260ff16815260200191505060405180910390f35b6105b26113ec565b6040518082815260200191505060405180910390f35b610614600480360360408110156105de57600080fd5b81019080803573ffffffffffffffffffffffffffffffffffffffff169060200190929190803590602001909291905050506113f6565b005b6106626004803603604081101561062c57600080fd5b81019080803573ffffffffffffffffffffffffffffffffffffffff169060200190929190803590602001909291905050506114e8565b60405180821515815260200191505060405180910390f35b6106c66004803603604081101561069057600080fd5b81019080803573ffffffffffffffffffffffffffffffffffffffff1690602001909291908035906020019092919050505061159b565b005b6106d061164f565b60405180821515815260200191505060405180910390f35b6106f0611662565b60405180821515815260200191505060405180910390f35b6107346004803603602081101561071e57600080fd5b8101908080359060200190929190505050611675565b005b61073e6118d7565b6040518082815260200191505060405180910390f35b61075c6118dd565b6040518082815260200191505060405180910390f35b61077a6118e3565b6040518082815260200191505060405180910390f35b6107bc600480360360208110156107a657600080fd5b81019080803590602001909291905050506118e9565b005b6107ea600480360360208110156107d457600080fd5b8101908080359060200190929190505050611b4b565b005b6107f4611cf1565b005b6108386004803603602081101561080c57600080fd5b81019080803573ffffffffffffffffffffffffffffffffffffffff169060200190929190505050611ec5565b6040518082815260200191505060405180910390f35b61087a6004803603602081101561086457600080fd5b8101908080359060200190929190505050611f0d565b005b610884612096565b6040518082815260200191505060405180910390f35b6108a261209c565b005b6108ac61222c565b6040518080602001828103825283818151815260200191508051906020019080838360005b838110156108ec5780820151818401526020810190506108d1565b50505050905090810190601f1680156109195780820380516001836020036101000a031916815260200191505b509250505060405180910390f35b61092f612426565b6040518082815260200191505060405180910390f35b61094d61242c565b60405180821515815260200191505060405180910390f35b61096d6124f1565b6040518080602001828103825283818151815260200191508051906020019080838360005b838110156109ad578082015181840152602081019050610992565b50505050905090810190601f1680156109da5780820380516001836020036101000a031916815260200191505b509250505060405180910390f35b610a34600480360360408110156109fe57600080fd5b81019080803573ffffffffffffffffffffffffffffffffffffffff16906020019092919080359060200190929190505050612593565b60405180821515815260200191505060405180910390f35b610a9860048036036040811015610a6257600080fd5b81019080803573ffffffffffffffffffffffffffffffffffffffff16906020019092919080359060200190929190505050612660565b60405180821515815260200191505060405180910390f35b610ab861267e565b005b610ac261280d565b6040518082815260200191505060405180910390f35b610ae0612813565b604051808273ffffffffffffffffffffffffffffffffffffffff16815260200191505060405180910390f35b610b14612839565b60405180821515815260200191505060405180910390f35b610b34612890565b6040518082815260200191505060405180910390f35b610b52612896565b604051808273ffffffffffffffffffffffffffffffffffffffff16815260200191505060405180910390f35b610b866128bc565b6040518082815260200191505060405180910390f35b610ba46128c2565b6040518082815260200191505060405180910390f35b610bf060048036036040811015610bd057600080fd5b8101908080359060200190929190803590602001909291905050506128c8565b005b610bfa612987565b005b610c04612b3f565b60405180821515815260200191505060405180910390f35b610c4860048036036020811015610c3257600080fd5b8101908080359060200190929190505050612b52565b005b610c52612db4565b6040518082815260200191505060405180910390f35b610cca60048036036040811015610c7e57600080fd5b81019080803573ffffffffffffffffffffffffffffffffffffffff169060200190929190803573ffffffffffffffffffffffffffffffffffffffff169060200190929190505050612dba565b6040518082815260200191505060405180910390f35b610ce8612e41565b60405180821515815260200191505060405180910390f35b610d08612e98565b6040518082815260200191505060405180910390f35b610d4a60048036036020811015610d3457600080fd5b8101908080359060200190929190505050612e9e565b005b610d54612f3f565b005b610d8260048036036020811015610d6c57600080fd5b81019080803590602001909291905050506130c8565b005b610d8c6132d7565b60405180821515815260200191505060405180910390f35b610dac61332e565b60405180821515815260200191505060405180910390f35b606060038054600181600116156101000203166002900480601f016020809104026020016040519081016040528092919081815260200182805460018160011615610100020316600290048015610e5c5780601f10610e3157610100808354040283529160200191610e5c565b820191906000526020600020905b815481529060010190602001808311610e3f57829003601f168201915b5050505050905090565b610e6e61332e565b610ee0576040517f08c379a000000000000000000000000000000000000000000000000000000000815260040180806020018281038252601d8152602001807f456565652120596f75277265206e6f74206576656e20616e206f72636100000081525060200191505060405180910390fd5b600954600854014211610ef257600080fd5b662386f26fc10000600b541015610f54576040517f08c379a000000000000000000000000000000000000000000000000000000000815260040180806020018281038252603681526020018061419e6036913960400191505060405180910390fd5b610fa8600b54601860003373ffffffffffffffffffffffffffffffffffffffff1673ffffffffffffffffffffffffffffffffffffffff1681526020019081526020016000205461338590919063ffffffff16565b601860003373ffffffffffffffffffffffffffffffffffffffff1673ffffffffffffffffffffffffffffffffffffffff168152602001908152602001600020819055506000600b81905550565b6000611009611002613412565b848461341a565b6001905092915050565b601360009054906101000a900473ffffffffffffffffffffffffffffffffffffffff1673ffffffffffffffffffffffffffffffffffffffff163373ffffffffffffffffffffffffffffffffffffffff16146110b9576040517f08c379a00000000000000000000000000000000000000000000000000000000081526004018080602001828103825260238152602001806142656023913960400191505060405180910390fd5b600d60009054906101000a900460ff1661113b576040517f08c379a000000000000000000000000000000000000000000000000000000000815260040180806020018281038252601c8152602001807f736f727279206465762c206e6f2073637261707320666f7220796f750000000081525060200191505060405180910390fd5b61118f600c54601860003373ffffffffffffffffffffffffffffffffffffffff1673ffffffffffffffffffffffffffffffffffffffff1681526020019081526020016000205461338590919063ffffffff16565b601860003373ffffffffffffffffffffffffffffffffffffffff1673ffffffffffffffffffffffffffffffffffffffff168152602001908152602001600020819055506000600c81905550565b600e5481565b60095481565b6000600254905090565b6000600f54601860003373ffffffffffffffffffffffffffffffffffffffff1673ffffffffffffffffffffffffffffffffffffffff16815260200190815260200160002054101561124257600080fd5b6001905090565b61129b81601860003373ffffffffffffffffffffffffffffffffffffffff1673ffffffffffffffffffffffffffffffffffffffff1681526020019081526020016000205461361190919063ffffffff16565b601860003373ffffffffffffffffffffffffffffffffffffffff1673ffffffffffffffffffffffffffffffffffffffff168152602001908152602001600020819055506112f381600b5461338590919063ffffffff16565b600b8190555050565b600061130984848461365b565b6113ca84611315613412565b6113c5856040518060600160405280602881526020016142a960289139600160008b73ffffffffffffffffffffffffffffffffffffffff1673ffffffffffffffffffffffffffffffffffffffff168152602001908152602001600020600061137b613412565b73ffffffffffffffffffffffffffffffffffffffff1673ffffffffffffffffffffffffffffffffffffffff168152602001908152602001600020546139819092919063ffffffff16565b61341a565b600190509392505050565b6000600560009054906101000a900460ff16905090565b6000600654905090565b601360009054906101000a900473ffffffffffffffffffffffffffffffffffffffff1673ffffffffffffffffffffffffffffffffffffffff163373ffffffffffffffffffffffffffffffffffffffff161461149c576040517f08c379a00000000000000000000000000000000000000000000000000000000081526004018080602001828103825260238152602001806142656023913960400191505060405180910390fd5b81601460006101000a81548173ffffffffffffffffffffffffffffffffffffffff021916908373ffffffffffffffffffffffffffffffffffffffff160217905550806015819055505050565b60006115916114f5613412565b8461158c8560016000611506613412565b73ffffffffffffffffffffffffffffffffffffffff1673ffffffffffffffffffffffffffffffffffffffff16815260200190815260200160002060008973ffffffffffffffffffffffffffffffffffffffff1673ffffffffffffffffffffffffffffffffffffffff1681526020019081526020016000205461338590919063ffffffff16565b61341a565b6001905092915050565b601360009054906101000a900473ffffffffffffffffffffffffffffffffffffffff1673ffffffffffffffffffffffffffffffffffffffff163373ffffffffffffffffffffffffffffffffffffffff1614611641576040517f08c379a00000000000000000000000000000000000000000000000000000000081526004018080602001828103825260238152602001806142656023913960400191505060405180910390fd5b61164b8282613a41565b5050565b600760009054906101000a900460ff1681565b600d60019054906101000a900460ff1681565b61167d6132d7565b6116ef576040517f08c379a00000000000000000000000000000000000000000000000000000000081526004018080602001828103825260128152602001807f596f75277265206e6f7420666c6970706572000000000000000000000000000081525060200191505060405180910390fd5b6000611717670de0b6b3a764000061170960105485613c08565b613c7a90919063ffffffff16565b905080601860003373ffffffffffffffffffffffffffffffffffffffff1673ffffffffffffffffffffffffffffffffffffffff1681526020019081526020016000205410156117b1576040517f08c379a000000000000000000000000000000000000000000000000000000000815260040180806020018281038252603581526020018061409d6035913960400191505060405180910390fd5b670de0b6b3a764000082101580156117d2575068e40e772ce376d200008211155b611827576040517f08c379a00000000000000000000000000000000000000000000000000000000081526004018080602001828103825260338152602001806143186033913960400191505060405180910390fd5b8160108190555061188081601860003373ffffffffffffffffffffffffffffffffffffffff1673ffffffffffffffffffffffffffffffffffffffff1681526020019081526020016000205461361190919063ffffffff16565b601860003373ffffffffffffffffffffffffffffffffffffffff1673ffffffffffffffffffffffffffffffffffffffff168152602001908152602001600020819055506118cc81613d00565b426008819055505050565b60125481565b60085481565b60105481565b6118f16132d7565b611963576040517f08c379a00000000000000000000000000000000000000000000000000000000081526004018080602001828103825260128152602001807f596f75277265206e6f7420666c6970706572000000000000000000000000000081525060200191505060405180910390fd5b600061198b670de0b6b3a764000061197d600e5485613c08565b613c7a90919063ffffffff16565b905080601860003373ffffffffffffffffffffffffffffffffffffffff1673ffffffffffffffffffffffffffffffffffffffff168152602001908152602001600020541015611a25576040517f08c379a000000000000000000000000000000000000000000000000000000000815260040180806020018281038252603581526020018061409d6035913960400191505060405180910390fd5b670de0b6b3a76400008210158015611a46575068055de6a779bbac00008211155b611a9b576040517f08c379a00000000000000000000000000000000000000000000000000000000081526004018080602001828103825260288152602001806141d46028913960400191505060405180910390fd5b81600e81905550611af481601860003373ffffffffffffffffffffffffffffffffffffffff1673ffffffffffffffffffffffffffffffffffffffff1681526020019081526020016000205461361190919063ffffffff16565b601860003373ffffffffffffffffffffffffffffffffffffffff1673ffffffffffffffffffffffffffffffffffffffff16815260200190815260200160002081905550611b4081613d00565b426008819055505050565b611b536132d7565b611bc5576040517f08c379a00000000000000000000000000000000000000000000000000000000081526004018080602001828103825260128152602001807f596f75277265206e6f7420666c6970706572000000000000000000000000000081525060200191505060405180910390fd5b600954600854014211611bd757600080fd5b60018110158015611be95750600a8111155b611c3e576040517f08c379a00000000000000000000000000000000000000000000000000000000081526004018080602001828103825260608152602001806143ba6060913960600191505060405180910390fd5b611c92601754601860003373ffffffffffffffffffffffffffffffffffffffff1673ffffffffffffffffffffffffffffffffffffffff1681526020019081526020016000205461361190919063ffffffff16565b601860003373ffffffffffffffffffffffffffffffffffffffff1673ffffffffffffffffffffffffffffffffffffffff16815260200190815260200160002081905550611ce0601754613d00565b80600a819055504260088190555050565b611cf96111f2565b611d6b576040517f08c379a000000000000000000000000000000000000000000000000000000000815260040180806020018281038252601f8152602001807f596f75277265206e6f74206576656e206120726976657220646f6c7068696e0081525060200191505060405180910390fd5b600954600854014211611d7d57600080fd5b600760009054906101000a900460ff16611dff576040517f08c379a00000000000000000000000000000000000000000000000000000000081526004018080602001828103825260208152602001807f4565656521205468652067616d652068617320616c726561647920656e64656481525060200191505060405180910390fd5b611e53601654601860003373ffffffffffffffffffffffffffffffffffffffff1673ffffffffffffffffffffffffffffffffffffffff1681526020019081526020016000205461361190919063ffffffff16565b601860003373ffffffffffffffffffffffffffffffffffffffff1673ffffffffffffffffffffffffffffffffffffffff16815260200190815260200160002081905550611ea1601654613d00565b6000600760006101000a81548160ff02191690831515021790555042600881905550565b60008060008373ffffffffffffffffffffffffffffffffffffffff1673ffffffffffffffffffffffffffffffffffffffff168152602001908152602001600020549050919050565b611f15612839565b611f6a576040517f08c379a000000000000000000000000000000000000000000000000000000000815260040180806020018281038252602481526020018061417a6024913960400191505060405180910390fd5b600954600854014211611f7c57600080fd5b60018110158015611f8e575060038111155b611fe3576040517f08c379a00000000000000000000000000000000000000000000000000000000081526004018080602001828103825260608152602001806143ba6060913960600191505060405180910390fd5b612037601754601860003373ffffffffffffffffffffffffffffffffffffffff1673ffffffffffffffffffffffffffffffffffffffff1681526020019081526020016000205461361190919063ffffffff16565b601860003373ffffffffffffffffffffffffffffffffffffffff1673ffffffffffffffffffffffffffffffffffffffff16815260200190815260200160002081905550612085601754613d00565b80600a819055504260088190555050565b60155481565b6120a4612e41565b612116576040517f08c379a000000000000000000000000000000000000000000000000000000000815260040180806020018281038252601c8152602001807f596f75277265206e6f742070657465722074686520646f6c7068696e0000000081525060200191505060405180910390fd5b61216a601754601860003373ffffffffffffffffffffffffffffffffffffffff1673ffffffffffffffffffffffffffffffffffffffff1681526020019081526020016000205461361190919063ffffffff16565b601860003373ffffffffffffffffffffffffffffffffffffffff1673ffffffffffffffffffffffffffffffffffffffff168152602001908152602001600020819055506121b8601754613d00565b600c54600b5401600b819055506000600c819055506001600d60016101000a81548160ff0219169083151502179055506000601360006101000a81548173ffffffffffffffffffffffffffffffffffffffff021916908373ffffffffffffffffffffffffffffffffffffffff160217905550565b6060612236612e41565b15612278576040518060400160405280600581526020017f50657465720000000000000000000000000000000000000000000000000000008152509050612423565b6122806132d7565b156122c2576040518060400160405280600781526020017f466c6970706572000000000000000000000000000000000000000000000000008152509050612423565b6122ca612839565b1561230c576040518060400160405280600a81526020017f426f74746c656e6f7365000000000000000000000000000000000000000000008152509050612423565b6123146111f2565b15612356576040518060400160405280600581526020017f52697665720000000000000000000000000000000000000000000000000000008152509050612423565b61235e61332e565b156123a0576040518060400160405280600481526020017f4f726361000000000000000000000000000000000000000000000000000000008152509050612423565b6123a861242c565b156123ea576040518060400160405280600481526020017f4f726361000000000000000000000000000000000000000000000000000000008152509050612423565b6040518060400160405280600a81526020017f6e6f74446f6c7068696e0000000000000000000000000000000000000000000081525090505b90565b600f5481565b60008073ffffffffffffffffffffffffffffffffffffffff16601460009054906101000a900473ffffffffffffffffffffffffffffffffffffffff1673ffffffffffffffffffffffffffffffffffffffff1614156124d5576040517f08c379a000000000000000000000000000000000000000000000000000000000815260040180806020018281038252602681526020018061436f6026913960400191505060405180910390fd5b6015546124e0613dc2565b116124ea57600080fd5b6001905090565b606060048054600181600116156101000203166002900480601f0160208091040260200160405190810160405280929190818152602001828054600181600116156101000203166002900480156125895780601f1061255e57610100808354040283529160200191612589565b820191906000526020600020905b81548152906001019060200180831161256c57829003601f168201915b5050505050905090565b60006126566125a0613412565b846126518560405180606001604052806025815260200161439560259139600160006125ca613412565b73ffffffffffffffffffffffffffffffffffffffff1673ffffffffffffffffffffffffffffffffffffffff16815260200190815260200160002060008a73ffffffffffffffffffffffffffffffffffffffff1673ffffffffffffffffffffffffffffffffffffffff168152602001908152602001600020546139819092919063ffffffff16565b61341a565b6001905092915050565b600061267461266d613412565b848461365b565b6001905092915050565b61268661242c565b6126f8576040517f08c379a00000000000000000000000000000000000000000000000000000000081526004018080602001828103825260208152602001807f456565652120596f75277265206e6f74206576656e20616e204c50206f72636181525060200191505060405180910390fd5b60095460085401421161270a57600080fd5b662386f26fc10000600b54101561276c576040517f08c379a000000000000000000000000000000000000000000000000000000000815260040180806020018281038252603681526020018061419e6036913960400191505060405180910390fd5b6127c0600b54601860003373ffffffffffffffffffffffffffffffffffffffff1673ffffffffffffffffffffffffffffffffffffffff1681526020019081526020016000205461338590919063ffffffff16565b601860003373ffffffffffffffffffffffffffffffffffffffff1673ffffffffffffffffffffffffffffffffffffffff168152602001908152602001600020819055506000600b81905550565b600c5481565b601360009054906101000a900473ffffffffffffffffffffffffffffffffffffffff1681565b6000601054601860003373ffffffffffffffffffffffffffffffffffffffff1673ffffffffffffffffffffffffffffffffffffffff16815260200190815260200160002054101561288957600080fd5b6001905090565b60175481565b601460009054906101000a900473ffffffffffffffffffffffffffffffffffffffff1681565b600a5481565b600b5481565b601360009054906101000a900473ffffffffffffffffffffffffffffffffffffffff1673ffffffffffffffffffffffffffffffffffffffff163373ffffffffffffffffffffffffffffffffffffffff161461296e576040517f08c379a00000000000000000000000000000000000000000000000000000000081526004018080602001828103825260238152602001806142656023913960400191505060405180910390fd5b8160168190555080601781905550426008819055505050565b61298f6111f2565b612a01576040517f08c379a000000000000000000000000000000000000000000000000000000000815260040180806020018281038252601f8152602001807f596f75277265206e6f74206576656e206120726976657220646f6c7068696e0081525060200191505060405180910390fd5b600954600854014211612a1357600080fd5b600760009054906101000a900460ff1615612a79576040517f08c379a00000000000000000000000000000000000000000000000000000000081526004018080602001828103825260228152602001806142d16022913960400191505060405180910390fd5b612acd601654601860003373ffffffffffffffffffffffffffffffffffffffff1673ffffffffffffffffffffffffffffffffffffffff1681526020019081526020016000205461361190919063ffffffff16565b601860003373ffffffffffffffffffffffffffffffffffffffff1673ffffffffffffffffffffffffffffffffffffffff16815260200190815260200160002081905550612b1b601654613d00565b6001600760006101000a81548160ff02191690831515021790555042600881905550565b600d60009054906101000a900460ff1681565b612b5a6132d7565b612bcc576040517f08c379a00000000000000000000000000000000000000000000000000000000081526004018080602001828103825260128152602001807f596f75277265206e6f7420666c6970706572000000000000000000000000000081525060200191505060405180910390fd5b6000612bf4670de0b6b3a7640000612be6600f5485613c08565b613c7a90919063ffffffff16565b905080601860003373ffffffffffffffffffffffffffffffffffffffff1673ffffffffffffffffffffffffffffffffffffffff168152602001908152602001600020541015612c8e576040517f08c379a000000000000000000000000000000000000000000000000000000000815260040180806020018281038252603581526020018061409d6035913960400191505060405180910390fd5b670de0b6b3a76400008210158015612caf57506872073b9671bb6900008211155b612d04576040517f08c379a00000000000000000000000000000000000000000000000000000000081526004018080602001828103825260348152602001806141fc6034913960400191505060405180910390fd5b81600f81905550612d5d81601860003373ffffffffffffffffffffffffffffffffffffffff1673ffffffffffffffffffffffffffffffffffffffff1681526020019081526020016000205461361190919063ffffffff16565b601860003373ffffffffffffffffffffffffffffffffffffffff1673ffffffffffffffffffffffffffffffffffffffff16815260200190815260200160002081905550612da981613d00565b426008819055505050565b60165481565b6000600160008473ffffffffffffffffffffffffffffffffffffffff1673ffffffffffffffffffffffffffffffffffffffff16815260200190815260200160002060008373ffffffffffffffffffffffffffffffffffffffff1673ffffffffffffffffffffffffffffffffffffffff16815260200190815260200160002054905092915050565b6000601254601860003373ffffffffffffffffffffffffffffffffffffffff1673ffffffffffffffffffffffffffffffffffffffff168152602001908152602001600020541015612e9157600080fd5b6001905090565b60115481565b612ef081601860003373ffffffffffffffffffffffffffffffffffffffff1673ffffffffffffffffffffffffffffffffffffffff1681526020019081526020016000205461361190919063ffffffff16565b601860003373ffffffffffffffffffffffffffffffffffffffff1673ffffffffffffffffffffffffffffffffffffffff16815260200190815260200160002081905550612f3c81613d00565b50565b612f47612839565b612f9c576040517f08c379a000000000000000000000000000000000000000000000000000000000815260040180806020018281038252602481526020018061417a6024913960400191505060405180910390fd5b600d60009054906101000a900460ff1615613002576040517f08c379a000000000000000000000000000000000000000000000000000000000815260040180806020018281038252602b8152602001806140f4602b913960400191505060405180910390fd5b613056601654601860003373ffffffffffffffffffffffffffffffffffffffff1673ffffffffffffffffffffffffffffffffffffffff1681526020019081526020016000205461361190919063ffffffff16565b601860003373ffffffffffffffffffffffffffffffffffffffff1673ffffffffffffffffffffffffffffffffffffffff168152602001908152602001600020819055506130a4601654613d00565b6001600d60006101000a81548160ff02191690831515021790555042600881905550565b6130d06132d7565b613142576040517f08c379a00000000000000000000000000000000000000000000000000000000081526004018080602001828103825260128152602001807f596f75277265206e6f7420666c6970706572000000000000000000000000000081525060200191505060405180910390fd5b60095460085401421161315457600080fd5b600760009054906101000a900460ff166131b9576040517f08c379a00000000000000000000000000000000000000000000000000000000081526004018080602001828103825260358152602001806141456035913960400191505060405180910390fd5b601881111580156131cb575060018110155b613220576040517f08c379a00000000000000000000000000000000000000000000000000000000081526004018080602001828103825260358152602001806142306035913960400191505060405180910390fd5b613274601754601860003373ffffffffffffffffffffffffffffffffffffffff1673ffffffffffffffffffffffffffffffffffffffff1681526020019081526020016000205461361190919063ffffffff16565b601860003373ffffffffffffffffffffffffffffffffffffffff1673ffffffffffffffffffffffffffffffffffffffff168152602001908152602001600020819055506132c2601754613d00565b610e1081026009819055504260088190555050565b6000601154601860003373ffffffffffffffffffffffffffffffffffffffff1673ffffffffffffffffffffffffffffffffffffffff16815260200190815260200160002054101561332757600080fd5b6001905090565b6000600e54601860003373ffffffffffffffffffffffffffffffffffffffff1673ffffffffffffffffffffffffffffffffffffffff16815260200190815260200160002054101561337e57600080fd5b6001905090565b600080828401905083811015613403576040517f08c379a000000000000000000000000000000000000000000000000000000000815260040180806020018281038252601b8152602001807f536166654d6174683a206164646974696f6e206f766572666c6f77000000000081525060200191505060405180910390fd5b8091505092915050565b505050565b600033905090565b600073ffffffffffffffffffffffffffffffffffffffff168373ffffffffffffffffffffffffffffffffffffffff1614156134a0576040517f08c379a000000000000000000000000000000000000000000000000000000000815260040180806020018281038252602481526020018061434b6024913960400191505060405180910390fd5b600073ffffffffffffffffffffffffffffffffffffffff168273ffffffffffffffffffffffffffffffffffffffff161415613526576040517f08c379a00000000000000000000000000000000000000000000000000000000081526004018080602001828103825260228152602001806140d26022913960400191505060405180910390fd5b80600160008573ffffffffffffffffffffffffffffffffffffffff1673ffffffffffffffffffffffffffffffffffffffff16815260200190815260200160002060008473ffffffffffffffffffffffffffffffffffffffff1673ffffffffffffffffffffffffffffffffffffffff168152602001908152602001600020819055508173ffffffffffffffffffffffffffffffffffffffff168373ffffffffffffffffffffffffffffffffffffffff167f8c5be1e5ebec7d5bd14f71427d1e84f3dd0314c0f7b2291e5b200ac8c7c3b925836040518082815260200191505060405180910390a3505050565b600061365383836040518060400160405280601e81526020017f536166654d6174683a207375627472616374696f6e206f766572666c6f770000815250613981565b905092915050565b600073ffffffffffffffffffffffffffffffffffffffff168373ffffffffffffffffffffffffffffffffffffffff1614156136e1576040517f08c379a00000000000000000000000000000000000000000000000000000000081526004018080602001828103825260258152602001806142f36025913960400191505060405180910390fd5b600073ffffffffffffffffffffffffffffffffffffffff168273ffffffffffffffffffffffffffffffffffffffff161415613767576040517f08c379a000000000000000000000000000000000000000000000000000000000815260040180806020018281038252602381526020018061407a6023913960400191505060405180910390fd5b6137d38160405180606001604052806026815260200161411f60269139601860008773ffffffffffffffffffffffffffffffffffffffff1673ffffffffffffffffffffffffffffffffffffffff168152602001908152602001600020546139819092919063ffffffff16565b601860008573ffffffffffffffffffffffffffffffffffffffff1673ffffffffffffffffffffffffffffffffffffffff168152602001908152602001600020819055506000600760009054906101000a900460ff161561387d5760006138576064613849600a5486613c7a90919063ffffffff16565b613e9290919063ffffffff16565b905061386281613d00565b613875818461361190919063ffffffff16565b915050613881565b8190505b6138d381601860008673ffffffffffffffffffffffffffffffffffffffff1673ffffffffffffffffffffffffffffffffffffffff1681526020019081526020016000205461338590919063ffffffff16565b601860008573ffffffffffffffffffffffffffffffffffffffff1673ffffffffffffffffffffffffffffffffffffffff168152602001908152602001600020819055508273ffffffffffffffffffffffffffffffffffffffff168473ffffffffffffffffffffffffffffffffffffffff167fddf252ad1be2c89b69c2b068fc378daa952ba7f163c4a11628f55a4df523b3ef836040518082815260200191505060405180910390a350505050565b6000838311158290613a2e576040517f08c379a00000000000000000000000000000000000000000000000000000000081526004018080602001828103825283818151815260200191508051906020019080838360005b838110156139f35780820151818401526020810190506139d8565b50505050905090810190601f168015613a205780820380516001836020036101000a031916815260200191505b509250505060405180910390fd5b5060008385039050809150509392505050565b600073ffffffffffffffffffffffffffffffffffffffff168273ffffffffffffffffffffffffffffffffffffffff161415613ae4576040517f08c379a000000000000000000000000000000000000000000000000000000000815260040180806020018281038252601f8152602001807f45524332303a206d696e7420746f20746865207a65726f20616464726573730081525060200191505060405180910390fd5b613af060008383613edc565b613b058160025461338590919063ffffffff16565b600281905550613b5c816000808573ffffffffffffffffffffffffffffffffffffffff1673ffffffffffffffffffffffffffffffffffffffff1681526020019081526020016000205461338590919063ffffffff16565b6000808473ffffffffffffffffffffffffffffffffffffffff1673ffffffffffffffffffffffffffffffffffffffff168152602001908152602001600020819055508173ffffffffffffffffffffffffffffffffffffffff16600073ffffffffffffffffffffffffffffffffffffffff167fddf252ad1be2c89b69c2b068fc378daa952ba7f163c4a11628f55a4df523b3ef836040518082815260200191505060405180910390a35050565b600081831015613c4457613c3f670de0b6b3a7640000613c31858561361190919063ffffffff16565b613e9290919063ffffffff16565b613c72565b613c71670de0b6b3a7640000613c63848661361190919063ffffffff16565b613e9290919063ffffffff16565b5b905092915050565b600080831415613c8d5760009050613cfa565b6000828402905082848281613c9e57fe5b0414613cf5576040517f08c379a00000000000000000000000000000000000000000000000000000000081526004018080602001828103825260218152602001806142886021913960400191505060405180910390fd5b809150505b92915050565b60058110613da3576000600d60019054906101000a900460ff16613d4a57613d456064613d37600585613c7a90919063ffffffff16565b613e9290919063ffffffff16565b613d4d565b60005b90506000613d64828461361190919063ffffffff16565b9050613d7b81600b5461338590919063ffffffff16565b600b81905550613d9682600c5461338590919063ffffffff16565b600c819055505050613dbf565b613db881600b5461338590919063ffffffff16565b600b819055505b50565b600080601460009054906101000a900473ffffffffffffffffffffffffffffffffffffffff1690508073ffffffffffffffffffffffffffffffffffffffff166370a08231336040518263ffffffff1660e01b8152600401808273ffffffffffffffffffffffffffffffffffffffff16815260200191505060206040518083038186803b158015613e5157600080fd5b505afa158015613e65573d6000803e3d6000fd5b505050506040513d6020811015613e7b57600080fd5b810190808051906020019092919050505091505090565b6000613ed483836040518060400160405280601a81526020017f536166654d6174683a206469766973696f6e206279207a65726f000000000000815250613fb3565b905092915050565b613ee783838361340d565b600073ffffffffffffffffffffffffffffffffffffffff168373ffffffffffffffffffffffffffffffffffffffff161415613fae57600654613f3982613f2b6111e8565b61338590919063ffffffff16565b1115613fad576040517f08c379a00000000000000000000000000000000000000000000000000000000081526004018080602001828103825260198152602001807f45524332304361707065643a206361702065786365656465640000000000000081525060200191505060405180910390fd5b5b505050565b6000808311829061405f576040517f08c379a00000000000000000000000000000000000000000000000000000000081526004018080602001828103825283818151815260200191508051906020019080838360005b83811015614024578082015181840152602081019050614009565b50505050905090810190601f1680156140515780820380516001836020036101000a031916815260200191505b509250505060405180910390fd5b50600083858161406b57fe5b04905080915050939250505056fe45524332303a207472616e7366657220746f20746865207a65726f2061646472657373456565652120596f7520646f6e2774206861766520656e6f756768204545454520746f206d616b652074686973206368616e67652e45524332303a20617070726f766520746f20746865207a65726f2061646472657373456565652120546f6f206c617465207375636b65722c20646576277320656174696e6720746f6e6967687445524332303a207472616e7366657220616d6f756e7420657863656564732062616c616e6365456565652120596f75206e65656420746f207761697420666f72207468652067616d6520746f20636f6f6c646f776e206669727374596f75277265206e6f74206576656e206120626f74746c656e6f736520646f6c7068696e736e61746368706f6f6c3a206d696e20736e6174636820616d6f756e742028302e3031204545454529206e6f7420726561636865642e5468726573686f6c6420666f72204f72636173206d757374206265203120746f20393920454545454d6178696d756d207468726573686f6c6420666f7220526976657220446f6c7068696e7320697320323130332e343520454545454565656521204d696e696d756d20636f6f6c646f776e206973203120686f75722c206d6178696d756d20697320323420686f757273596f75277265206e6f7420746865206465762c20676574206f7574206f662068657265536166654d6174683a206d756c7469706c69636174696f6e206f766572666c6f7745524332303a207472616e7366657220616d6f756e74206578636565647320616c6c6f77616e63654565656521205468652067616d652068617320616c7265616479207374617274656445524332303a207472616e736665722066726f6d20746865207a65726f20616464726573734d6178696d756d207468726573686f6c6420666f7220526976657220446f6c7068696e7320697320343230362e39204545454545524332303a20617070726f76652066726f6d20746865207a65726f2061646472657373456565652120546865204c5020636f6e747261637420686173206e6f74206265656e2073657445524332303a2064656372656173656420616c6c6f77616e63652062656c6f77207a65726f4565656521204d696e696d756d20736e61746368526174652069732031252c206d6178696d756d20697320332520666f7220426f74746c656e6f736520646f6c7068696e73206f72206d6178696d756d2031302520666f7220466c6970706572a2646970667358221220816cbbafeee0573b9a66e2946641bfd0b75d9da77296f41227a9908fb62fed0f64736f6c634300060c0033596f75277265206e6f7420746865206465762c20676574206f7574206f662068657265",
  "immutableReferences": {},
  "source": "// SPDX-License-Identifier: MIT\npragma solidity 0.6.12;\n\nimport \"@openzeppelin/contracts/token/ERC20/ERC20.sol\";\nimport \"@openzeppelin/contracts/token/ERC20/ERC20Capped.sol\";\nimport \"@openzeppelin/contracts/token/ERC20/IERC20.sol\";\nimport \"@openzeppelin/contracts/GSN/Context.sol\";\nimport \"@openzeppelin/contracts/utils/Address.sol\";\nimport \"@openzeppelin/contracts/math/SafeMath.sol\";\nimport \"@openzeppelin/contracts/math/Math.sol\";\n\n\n\n// eeee, hardcap set on deployment with minting to crunch base\ncontract eeee is ERC20Capped  {\n    using SafeMath for uint256;\n\n    bool public _gameStarted;\n    uint256 public _lastUpdated;\n    uint256 public _coolDownTime;\n    uint256 public _snatchRate;\n    uint256 public _snatchPool;\n    uint256 public _devFoodBucket;\n    bool public _devCanEat;\n    bool public _isAnarchy;\n    uint256 public _orca;\n\tuint256 public _river;\n\tuint256 public _bottlenose;\n\tuint256 public _flipper;\n\tuint256 public _peter;\n\taddress public _owner;\n\taddress public _UniLP;\n\tuint256 public _lpMin;\n\tuint256 public _feeLevel1;\n\tuint256 public _feeLevel2;\n\t\n    \n    \n    mapping(address => uint256) private _balances;\n\n    constructor(uint256 _hard_cap) public\n        ERC20(\"dolphins.wtf\", \"EEEE\")\n        ERC20Capped(_hard_cap)\n    {\n        mint(msg.sender, _hard_cap);\n        _balances[msg.sender] = _hard_cap;\n        _gameStarted = false;\n        _coolDownTime = 1 minutes; //set this back\n        _devCanEat = false;\n        _isAnarchy = false;\n        _snatchRate = 1;\n        _orca = 69e18;\n\t\t_river = 42069e16;\n\t\t_bottlenose = 210345e16;\n\t\t_flipper = 42069e17;\n\t\t_peter = 210345e17;\n\t\t_lpMin = 1;\n\t\t_UniLP = address(0);\n\t\t_feeLevel1 = 1e18;\n\t\t_feeLevel2 = 5e18;\n\t\t_owner = msg.sender;\n    }\n\n    // levels: checks caller's balance to determine if they can access a function\n\n    function _uniLPBalance() internal view returns (uint256) {\n\t\tIERC20 _LPToken;\n\t\t_LPToken = IERC20(_UniLP);\n\t\treturn _LPToken.balanceOf(msg.sender);\n\t}\n\t\n    function _amIOrca() public view returns(bool) {\n        require(_balances[msg.sender] >= _orca);\n        return true;\n    } \n\n    //  Orcas (are you even a dolphin?) - 69 (0.00164%); Can: Snatch tax base\n    modifier onlyOrcas() {\n        require(_amIOrca(), \"Eeee! You're not even an orca\");\n        _;\n    }\n\n    function _amILP() public view returns(bool) {\n        require(_UniLP != address(0), \"Eeee! The LP contract has not been set\");\n        require(_uniLPBalance() > _lpMin);\n        return true;\n    } \n    \n    modifier onlyLPs() {\n\t\trequire(_amILP(), \"Eeee! You're not even an LP orca\");\n\t\t_;\n    }\n\n    function _amIRiver() public view returns(bool) {\n        require(_balances[msg.sender] >= _river);\n        return true;\n    } \n\n    // River Dolphin (what is wrong with your nose?) - 420.69 (1%); Can: turn game on/off\n    modifier onlyRiver() {\n        require(_amIRiver(), \"You're not even a river dolphin\");\n        _;\n    }\n\n    function _amIBottlenose() public view returns(bool) {\n        require(_balances[msg.sender] >= _bottlenose);\n        return true;\n    } \n\n    // Bottlenose Dolphin  (now that's a dolphin) - 2103.45 (5%); Can: Change tax rate (up to 2.5%); Devs can eat (allows dev to withdraw from the dev food bucket)\n    modifier onlyBottlenose() {\n        require(_amIBottlenose(), \"You're not even a bottlenose dolphin\");\n        _;\n    }\n\n    function _amIFlipper() public view returns(bool) {\n        require(_balances[msg.sender] >= _flipper);\n        return true;\n    } \n\n    // Flipper (A based dolphin) - 4206.9 (10%); Can: Change levels thresholds (except Flipper and Peter); Change tax rate (up to 10%); Change cooldown time\n    modifier onlyFlipper() {\n        require(_amIFlipper(), \"You're not flipper\");\n        _;\n    }\n\n    function _amIPeter() public view returns(bool) {\n        require(_balances[msg.sender] >= _peter);\n        return true;\n    } \n\n    // Peter the Dolphin (ask Margaret Howe Lovatt) - 21034.5 (50%); Can: Burn the key and hand the world over to the dolphins, and stops feeding the devs\n    modifier onlyPeter() {\n        require(_amIPeter(), \"You're not peter the dolphin\");\n        _;\n    }\n\n    function dolphinhoodLevel() public view returns(string memory) {\n        if (_amIPeter()) {\n            return \"Peter\";\n        }\n        if (_amIFlipper()) {\n            return \"Flipper\";\n        }\n        if (_amIBottlenose()) {\n            return \"Bottlenose\";\n        }\n        if (_amIRiver()) {\n            return \"River\";\n        }\n        if (_amIOrca()) {\n            return \"Orca\";\n        }\n        if (_amILP()) {\n            return \"Orca\";\n        } else {\n            return \"notDolphin\";\n        }\n\n    }\n\n\t\n    // Are you the dev?\n    modifier onlyDev() {\n        require(address(msg.sender) == _owner, \"You're not the dev, get out of here\");\n        _;\n    }\n\n    // modifiers\n    modifier cooledDown() {\n        require(now > (_lastUpdated+_coolDownTime));\n        _;\n    }\n\n    // functions:\n    \n    // snatch - grab from snatch pool, requires min 0.01 EEEE in snatchpool -- always free\n    function snatchFood() public onlyOrcas cooledDown {\n        require(_snatchPool >= 1 * 1e16, \"snatchpool: min snatch amount (0.01 EEEE) not reached.\");\n\t\t_balances[msg.sender] = _balances[msg.sender].add(_snatchPool);\n        _snatchPool = 0;\n    }\n    \n    function snatchFoodLP() public onlyLPs cooledDown {\n        require(_snatchPool >= 1 * 1e16, \"snatchpool: min snatch amount (0.01 EEEE) not reached.\");\n\t\t_balances[msg.sender] = _balances[msg.sender].add(_snatchPool);\n        _snatchPool = 0;\n    }\n    \n    function fundSnatch(uint256 EEEEtoSnatchPool) public {\n        _balances[msg.sender] = _balances[msg.sender].sub(EEEEtoSnatchPool);\n        _snatchPool = _snatchPool.add(EEEEtoSnatchPool);\n    }\n    \n    function checkSnatching(uint256 EEEEtoSnatchPool) public {\n        _balances[msg.sender] = _balances[msg.sender].sub(EEEEtoSnatchPool);\n        _snatch(EEEEtoSnatchPool);\n    }\n\n    // startGame -- call fee level 1\n    function startGame() public onlyRiver cooledDown {\n        require(!_gameStarted, \"Eeee! The game has already started\");\n        _balances[msg.sender] = _balances[msg.sender].sub(_feeLevel1);\n\t\t_snatch(_feeLevel1);\n\t\t_gameStarted = true;\n        _lastUpdated = now;\n    }\n\n    // endGame -- call fee level 1\n    function endGame() public onlyRiver cooledDown {\n        require(_gameStarted, \"Eeee! The game has already ended\");\n\t\t_balances[msg.sender] = _balances[msg.sender].sub(_feeLevel1);\n\t\t_snatch(_feeLevel1);\n        _gameStarted = false;\n        _lastUpdated = now;\n    }\n\n    // allowDevToEat - can only be turned on once  -- call fee level 1\n    function allowDevToEat() public onlyBottlenose {\n        require(!_devCanEat, \"Eeee! Too late sucker, dev's eating tonight\");\n\t\t_balances[msg.sender] = _balances[msg.sender].sub(_feeLevel1);\n\t\t_snatch(_feeLevel1);\n        _devCanEat = true;\n\t\t_lastUpdated = now;\n    }\n\n    // changeSnatchRate - with max of 3% if Bottlenose; with max of 10% if Flipper -- call fee level 2\n    function changeSnatchRate(uint256 newSnatchRate) public onlyBottlenose cooledDown {\n        require(newSnatchRate >= 1 && newSnatchRate <= 3, \"Eeee! Minimum snatchRate is 1%, maximum is 3% for Bottlenose dolphins or maximum 10% for Flipper\");\n        _balances[msg.sender] = _balances[msg.sender].sub(_feeLevel2);\n\t\t_snatch(_feeLevel2);\n\t\t_snatchRate = newSnatchRate;\n\t\t_lastUpdated = now;\n    }\n    \n    // changeSnatchRate - with max of 10% if Flipper -- call fee level 2\n    function changeSnatchRateHigh(uint256 newSnatchRate) public onlyFlipper cooledDown {\n        require(newSnatchRate >= 1 && newSnatchRate <= 10, \"Eeee! Minimum snatchRate is 1%, maximum is 3% for Bottlenose dolphins or maximum 10% for Flipper\");\n        _balances[msg.sender] = _balances[msg.sender].sub(_feeLevel2);\n\t\t_snatch(_feeLevel2);\n\t\t_snatchRate = newSnatchRate;\n\t\t_lastUpdated = now;\n    }\n\n    // changeCoolDownTime - make the game go faster or slower, cooldown to be set in hours (min 1; max 24) -- call fee level 2\n    function updateCoolDown(uint256 newCoolDown) public onlyFlipper cooledDown {\n        require(_gameStarted, \"Eeee! You need to wait for the game to cooldown first\");\n        require(newCoolDown <= 24 && newCoolDown >= 1, \"Eeee! Minimum cooldown is 1 hour, maximum is 24 hours\");\n        _balances[msg.sender] = _balances[msg.sender].sub(_feeLevel2);\n\t\t_snatch(_feeLevel2);\n\t\t_coolDownTime = newCoolDown * 1 hours;\n        _lastUpdated = now;\n    }\n\n    // functions to change levels, caller should ensure to calculate this on 1e18 basis -- call fee level 1 * sought change\n    function changeSizeWholeEEEE(uint256 currentThreshold, uint256 newThreshold) private pure returns (uint256) {\n        return currentThreshold >= newThreshold ? currentThreshold.sub(newThreshold).div(1e18) : newThreshold.sub(currentThreshold).div(1e18);\n    }\n    \n    function updateOrca(uint256 updatedThreshold) public onlyFlipper {\n        uint256 changeFee;\n        changeFee = changeSizeWholeEEEE(_orca, updatedThreshold).mul(1e18);\n        require(_balances[msg.sender] >= changeFee, \"Eeee! You don't have enough EEEE to make this change.\");\n\t\trequire(updatedThreshold >= 1e18 && updatedThreshold <= 99e18, \"Threshold for Orcas must be 1 to 99 EEEE\");\n        _orca = updatedThreshold;\n\t\t_balances[msg.sender] = _balances[msg.sender].sub(changeFee);\n\t\t_snatch(changeFee);\n\t\t_lastUpdated = now;\n    }\n    \n    function updateRiver(uint256 updatedThreshold) public onlyFlipper {\n        uint256 changeFee;\n        changeFee = changeSizeWholeEEEE(_river, updatedThreshold).mul(1e18);\n        require(_balances[msg.sender] >= changeFee, \"Eeee! You don't have enough EEEE to make this change.\");\n\t\trequire(updatedThreshold >= 1e18 && updatedThreshold <= 210345e16, \"Maximum threshold for River Dolphins is 2103.45 EEEE\");\n        _river = updatedThreshold;\n\t\t_balances[msg.sender] = _balances[msg.sender].sub(changeFee);\n\t\t_snatch(changeFee);\n\t\t_lastUpdated = now;\n    }\n    \n    function updateBottlenose(uint256 updatedThreshold) public onlyFlipper {\n        uint256 changeFee;\n        changeFee = changeSizeWholeEEEE(_bottlenose, updatedThreshold).mul(1e18);\n        require(_balances[msg.sender] >= changeFee, \"Eeee! You don't have enough EEEE to make this change.\");\n\t\trequire(updatedThreshold >= 1e18 && updatedThreshold <= 42069e17, \"Maximum threshold for River Dolphins is 4206.9 EEEE\");\n        _bottlenose = updatedThreshold;\n\t\t_balances[msg.sender] = _balances[msg.sender].sub(changeFee);\n\t\t_snatch(changeFee);\n\t\t_lastUpdated = now;\n    }\n\n    // dolphinAnarchy - transfer owner permissions to 0xNull & stops feeding dev. CAREFUL: this cannot be undone and once you do it the dolphins swim alone.  -- call fee level 2\n    function activateAnarchy() public onlyPeter {\n        //Return anything in dev pool to snatchpool\n        _balances[msg.sender] = _balances[msg.sender].sub(_feeLevel2);\n\t\t_snatch(_feeLevel2);\n\t\t_snatchPool = _snatchPool + _devFoodBucket;\n        _devFoodBucket = 0;\n        _isAnarchy = true; // ends dev feeding\n        _owner = address(0);\n    }\n\n    // transfers tokens to snatchSupply and fees paid to dev (5%) only when we have not descended into Dolphin BASED anarchy\n    function _snatch(uint256 amount) internal {\n        // check that the amount is at least 5e-18, otherwise throw it all in the snatchpool\n        if (amount >= 5) {\n        uint256 devFood;\n            devFood = _isAnarchy ? 0 : amount.mul(5).div(100); // 5% put in a food bucket for the contract creator if we've not descended into dolphin anarchy\n            uint256 snatchedFood = amount.sub(devFood);\n            _snatchPool = _snatchPool.add(snatchedFood);\n            _devFoodBucket = _devFoodBucket.add(devFood);\n        } else {\n            _snatchPool = _snatchPool.add(amount);\n        }\n    }\n    \n    // transfer - with send to tax snatch pool\n    function _transfer(address sender, address recipient, uint256 amount) internal override {\n        require(sender != address(0), \"ERC20: transfer from the zero address\");\n        require(recipient != address(0), \"ERC20: transfer to the zero address\");\n \n        // check if sender has balance, then debit sender, execute _snatch, credit receipient\n        _balances[sender] = _balances[sender].sub(amount, \"ERC20: transfer amount exceeds balance\");\n        uint256 creditAmount;\n        if (_gameStarted) {\n            // calculate the taxed amount to be transfered if the game is active\n            uint256 snatch_amount;\n            snatch_amount = amount.mul(_snatchRate).div(100);\n            _snatch(snatch_amount);\n            creditAmount = amount.sub(snatch_amount);\n        } else {\n            creditAmount = amount;\n        }\n        \n        _balances[recipient] = _balances[recipient].add(creditAmount);\n        emit Transfer(sender, recipient, creditAmount);\n    }\n    \n    // feedDev - allows owner to withdraw 5% thrown into dev food buck. Must only be called by the Dev.\n    function feedDev() public onlyDev {\n        require(_devCanEat, \"sorry dev, no scraps for you\");\n        _balances[msg.sender] = _balances[msg.sender].add(_devFoodBucket);\n        _devFoodBucket = 0;\n    }\n\t\n\t// change fees for function calls, can only be triggered by Dev, and then enters cooldown\n\tfunction changeFunctionFees(uint256 newFeeLevel1, uint256 newFeeLevel2) public onlyDev {\n\t\t_feeLevel1 = newFeeLevel1;\n\t\t_feeLevel2 = newFeeLevel2;\n\t\t_lastUpdated = now;\n\t}\n\t\n\tfunction setLP(address addrUniV2LP, uint256 lpMin) public onlyDev {\n\t\t_UniLP = addrUniV2LP;\n\t\t_lpMin = lpMin;\n\t}\n\n    function mint(address _to, uint256 _amount) public onlyDev {\n        _mint(_to, _amount);\n    }\n}",
  "sourcePath": "/mnt/c/dev/dolphinsWTF/contracts/eeee.sol",
  "compiler": {
    "name": "solc",
    "version": "0.6.12+commit.27d51765.Emscripten.clang"
  },
  "schemaVersion": "3.3.2",
  "updatedAt": "2020-11-13T14:54:19.181Z",
  "devdoc": {
    "kind": "dev",
    "methods": {
      "allowance(address,address)": {
        "details": "See {IERC20-allowance}."
      },
      "approve(address,uint256)": {
        "details": "See {IERC20-approve}. Requirements: - `spender` cannot be the zero address."
      },
      "balanceOf(address)": {
        "details": "See {IERC20-balanceOf}."
      },
      "cap()": {
        "details": "Returns the cap on the token's total supply."
      },
      "decimals()": {
        "details": "Returns the number of decimals used to get its user representation. For example, if `decimals` equals `2`, a balance of `505` tokens should be displayed to a user as `5,05` (`505 / 10 ** 2`). Tokens usually opt for a value of 18, imitating the relationship between Ether and Wei. This is the value {ERC20} uses, unless {_setupDecimals} is called. NOTE: This information is only used for _display_ purposes: it in no way affects any of the arithmetic of the contract, including {IERC20-balanceOf} and {IERC20-transfer}."
      },
      "decreaseAllowance(address,uint256)": {
        "details": "Atomically decreases the allowance granted to `spender` by the caller. This is an alternative to {approve} that can be used as a mitigation for problems described in {IERC20-approve}. Emits an {Approval} event indicating the updated allowance. Requirements: - `spender` cannot be the zero address. - `spender` must have allowance for the caller of at least `subtractedValue`."
      },
      "increaseAllowance(address,uint256)": {
        "details": "Atomically increases the allowance granted to `spender` by the caller. This is an alternative to {approve} that can be used as a mitigation for problems described in {IERC20-approve}. Emits an {Approval} event indicating the updated allowance. Requirements: - `spender` cannot be the zero address."
      },
      "name()": {
        "details": "Returns the name of the token."
      },
      "symbol()": {
        "details": "Returns the symbol of the token, usually a shorter version of the name."
      },
      "totalSupply()": {
        "details": "See {IERC20-totalSupply}."
      },
      "transfer(address,uint256)": {
        "details": "See {IERC20-transfer}. Requirements: - `recipient` cannot be the zero address. - the caller must have a balance of at least `amount`."
      },
      "transferFrom(address,address,uint256)": {
        "details": "See {IERC20-transferFrom}. Emits an {Approval} event indicating the updated allowance. This is not required by the EIP. See the note at the beginning of {ERC20}; Requirements: - `sender` and `recipient` cannot be the zero address. - `sender` must have a balance of at least `amount`. - the caller must have allowance for ``sender``'s tokens of at least `amount`."
      }
    },
    "version": 1
  },
  "userdoc": {
    "kind": "user",
    "methods": {},
    "version": 1
  }
}