{
  "contractName": "snatchFeeder",
  "abi": [
    {
      "inputs": [
        {
          "internalType": "contract eeee",
          "name": "dolphinToken",
          "type": "address"
        }
      ],
      "stateMutability": "nonpayable",
      "type": "constructor"
    },
    {
      "anonymous": false,
      "inputs": [
        {
          "indexed": true,
          "internalType": "address",
          "name": "user",
          "type": "address"
        },
        {
          "indexed": false,
          "internalType": "uint256",
          "name": "amount",
          "type": "uint256"
        }
      ],
      "name": "Deposit",
      "type": "event"
    },
    {
      "anonymous": false,
      "inputs": [
        {
          "indexed": true,
          "internalType": "address",
          "name": "user",
          "type": "address"
        },
        {
          "indexed": false,
          "internalType": "uint256",
          "name": "amount",
          "type": "uint256"
        }
      ],
      "name": "FundSnatch",
      "type": "event"
    },
    {
      "anonymous": false,
      "inputs": [
        {
          "indexed": true,
          "internalType": "address",
          "name": "previousOwner",
          "type": "address"
        },
        {
          "indexed": true,
          "internalType": "address",
          "name": "newOwner",
          "type": "address"
        }
      ],
      "name": "OwnershipTransferred",
      "type": "event"
    },
    {
      "inputs": [],
      "name": "_coolDownTime",
      "outputs": [
        {
          "internalType": "uint256",
          "name": "",
          "type": "uint256"
        }
      ],
      "stateMutability": "view",
      "type": "function",
      "constant": true
    },
    {
      "inputs": [],
      "name": "_eeee",
      "outputs": [
        {
          "internalType": "contract eeee",
          "name": "",
          "type": "address"
        }
      ],
      "stateMutability": "view",
      "type": "function",
      "constant": true
    },
    {
      "inputs": [],
      "name": "_feedAmount",
      "outputs": [
        {
          "internalType": "uint256",
          "name": "",
          "type": "uint256"
        }
      ],
      "stateMutability": "view",
      "type": "function",
      "constant": true
    },
    {
      "inputs": [],
      "name": "_feedStock",
      "outputs": [
        {
          "internalType": "uint256",
          "name": "",
          "type": "uint256"
        }
      ],
      "stateMutability": "view",
      "type": "function",
      "constant": true
    },
    {
      "inputs": [],
      "name": "_lastUpdated",
      "outputs": [
        {
          "internalType": "uint256",
          "name": "",
          "type": "uint256"
        }
      ],
      "stateMutability": "view",
      "type": "function",
      "constant": true
    },
    {
      "inputs": [],
      "name": "_snatchingStarted",
      "outputs": [
        {
          "internalType": "bool",
          "name": "",
          "type": "bool"
        }
      ],
      "stateMutability": "view",
      "type": "function",
      "constant": true
    },
    {
      "inputs": [],
      "name": "owner",
      "outputs": [
        {
          "internalType": "address",
          "name": "",
          "type": "address"
        }
      ],
      "stateMutability": "view",
      "type": "function",
      "constant": true
    },
    {
      "inputs": [],
      "name": "renounceOwnership",
      "outputs": [],
      "stateMutability": "nonpayable",
      "type": "function"
    },
    {
      "inputs": [
        {
          "internalType": "address",
          "name": "newOwner",
          "type": "address"
        }
      ],
      "name": "transferOwnership",
      "outputs": [],
      "stateMutability": "nonpayable",
      "type": "function"
    },
    {
      "inputs": [
        {
          "internalType": "uint256",
          "name": "_amount",
          "type": "uint256"
        }
      ],
      "name": "deposit",
      "outputs": [],
      "stateMutability": "nonpayable",
      "type": "function"
    },
    {
      "inputs": [],
      "name": "fundSnatch",
      "outputs": [],
      "stateMutability": "nonpayable",
      "type": "function"
    },
    {
      "inputs": [],
      "name": "startSnatching",
      "outputs": [],
      "stateMutability": "nonpayable",
      "type": "function"
    },
    {
      "inputs": [],
      "name": "endSnatching",
      "outputs": [],
      "stateMutability": "nonpayable",
      "type": "function"
    }
  ],
  "bytecode": "0x608060405234801561001057600080fd5b506040516111283803806111288339818101604052602081101561003357600080fd5b8101908080519060200190929190505050600061005461016c60201b60201c565b9050806000806101000a81548173ffffffffffffffffffffffffffffffffffffffff021916908373ffffffffffffffffffffffffffffffffffffffff1602179055508073ffffffffffffffffffffffffffffffffffffffff16600073ffffffffffffffffffffffffffffffffffffffff167f8be0079c531659141344cd1fd0a4f28419497f9722a3daafe3b4186f6b6457e060405160405180910390a35080600160006101000a81548173ffffffffffffffffffffffffffffffffffffffff021916908373ffffffffffffffffffffffffffffffffffffffff160217905550610e106002819055506709935f581f0500006003819055506000600460006101000a81548160ff02191690831515021790555050610174565b600033905090565b610fa5806101836000396000f3fe608060405234801561001057600080fd5b50600436106100cf5760003560e01c8063715018a61161008c5780639e8e9e30116100665780639e8e9e30146101d4578063b6b55f25146101de578063c208d6e81461020c578063f2fde38b1461022a576100cf565b8063715018a61461018c5780638da5cb5b14610196578063967aa777146101ca576100cf565b8063040a4e4c146100d4578063123dda3f146100f45780632f9d74a71461011257806332a912861461011c57806356b7c6ad146101505780635c0ebd621461016e575b600080fd5b6100dc61026e565b60405180821515815260200191505060405180910390f35b6100fc610281565b6040518082815260200191505060405180910390f35b61011a610287565b005b61012461036c565b604051808273ffffffffffffffffffffffffffffffffffffffff16815260200191505060405180910390f35b610158610392565b6040518082815260200191505060405180910390f35b610176610398565b6040518082815260200191505060405180910390f35b61019461039e565b005b61019e610524565b604051808273ffffffffffffffffffffffffffffffffffffffff16815260200191505060405180910390f35b6101d261054d565b005b6101dc610849565b005b61020a600480360360208110156101f457600080fd5b8101908080359060200190929190505050610989565b005b610214610aec565b6040518082815260200191505060405180910390f35b61026c6004803603602081101561024057600080fd5b81019080803573ffffffffffffffffffffffffffffffffffffffff169060200190929190505050610af2565b005b600460009054906101000a900460ff1681565b60025481565b61028f610cfd565b73ffffffffffffffffffffffffffffffffffffffff1660008054906101000a900473ffffffffffffffffffffffffffffffffffffffff1673ffffffffffffffffffffffffffffffffffffffff161461034f576040517f08c379a00000000000000000000000000000000000000000000000000000000081526004018080602001828103825260208152602001807f4f776e61626c653a2063616c6c6572206973206e6f7420746865206f776e657281525060200191505060405180910390fd5b6000600460006101000a81548160ff021916908315150217905550565b600160009054906101000a900473ffffffffffffffffffffffffffffffffffffffff1681565b60055481565b60065481565b6103a6610cfd565b73ffffffffffffffffffffffffffffffffffffffff1660008054906101000a900473ffffffffffffffffffffffffffffffffffffffff1673ffffffffffffffffffffffffffffffffffffffff1614610466576040517f08c379a00000000000000000000000000000000000000000000000000000000081526004018080602001828103825260208152602001807f4f776e61626c653a2063616c6c6572206973206e6f7420746865206f776e657281525060200191505060405180910390fd5b600073ffffffffffffffffffffffffffffffffffffffff1660008054906101000a900473ffffffffffffffffffffffffffffffffffffffff1673ffffffffffffffffffffffffffffffffffffffff167f8be0079c531659141344cd1fd0a4f28419497f9722a3daafe3b4186f6b6457e060405160405180910390a360008060006101000a81548173ffffffffffffffffffffffffffffffffffffffff021916908373ffffffffffffffffffffffffffffffffffffffff160217905550565b60008060009054906101000a900473ffffffffffffffffffffffffffffffffffffffff16905090565b600460009054906101000a900460ff166105b2576040517f08c379a0000000000000000000000000000000000000000000000000000000008152600401808060200182810382526024815260200180610e986024913960400191505060405180910390fd5b600254600654014211610610576040517f08c379a000000000000000000000000000000000000000000000000000000000815260040180806020018281038252603d815260200180610ee2603d913960400191505060405180910390fd5b60006005541161066b576040517f08c379a0000000000000000000000000000000000000000000000000000000008152600401808060200182810382526022815260200180610f1f6022913960400191505060405180910390fd5b600354600554111561072857600160009054906101000a900473ffffffffffffffffffffffffffffffffffffffff1673ffffffffffffffffffffffffffffffffffffffff16631ef7a59d6003546040518263ffffffff1660e01b815260040180828152602001915050600060405180830381600087803b1580156106ee57600080fd5b505af1158015610702573d6000803e3d6000fd5b5050505061071d600354600554610d0590919063ffffffff16565b6005819055506107f0565b600160009054906101000a900473ffffffffffffffffffffffffffffffffffffffff1673ffffffffffffffffffffffffffffffffffffffff16631ef7a59d6005546040518263ffffffff1660e01b815260040180828152602001915050600060405180830381600087803b15801561079f57600080fd5b505af11580156107b3573d6000803e3d6000fd5b505050506107ce600554600554610d0590919063ffffffff16565b6005819055506000600460006101000a81548160ff0219169083151502179055505b426006819055503373ffffffffffffffffffffffffffffffffffffffff167fe3dbf4f79751c7c3499ece9738d06d4f9c7724458f7a5a1eb6719828a5e96a0f6005546040518082815260200191505060405180910390a2565b610851610cfd565b73ffffffffffffffffffffffffffffffffffffffff1660008054906101000a900473ffffffffffffffffffffffffffffffffffffffff1673ffffffffffffffffffffffffffffffffffffffff1614610911576040517f08c379a00000000000000000000000000000000000000000000000000000000081526004018080602001828103825260208152602001807f4f776e61626c653a2063616c6c6572206973206e6f7420746865206f776e657281525060200191505060405180910390fd5b60006005541161096c576040517f08c379a000000000000000000000000000000000000000000000000000000000815260040180806020018281038252602f815260200180610f41602f913960400191505060405180910390fd5b6001600460006101000a81548160ff021916908315150217905550565b6000811115610a9b57600160009054906101000a900473ffffffffffffffffffffffffffffffffffffffff1673ffffffffffffffffffffffffffffffffffffffff166323b872dd3330846040518463ffffffff1660e01b8152600401808473ffffffffffffffffffffffffffffffffffffffff1681526020018373ffffffffffffffffffffffffffffffffffffffff1681526020018281526020019350505050602060405180830381600087803b158015610a4357600080fd5b505af1158015610a57573d6000803e3d6000fd5b505050506040513d6020811015610a6d57600080fd5b810190808051906020019092919050505050610a9481600554610d4f90919063ffffffff16565b6005819055505b3373ffffffffffffffffffffffffffffffffffffffff167fe1fffcc4923d04b559f4d29a8bfc6cda04eb5b0d3c460751c2402c5c5cc9109c826040518082815260200191505060405180910390a250565b60035481565b610afa610cfd565b73ffffffffffffffffffffffffffffffffffffffff1660008054906101000a900473ffffffffffffffffffffffffffffffffffffffff1673ffffffffffffffffffffffffffffffffffffffff1614610bba576040517f08c379a00000000000000000000000000000000000000000000000000000000081526004018080602001828103825260208152602001807f4f776e61626c653a2063616c6c6572206973206e6f7420746865206f776e657281525060200191505060405180910390fd5b600073ffffffffffffffffffffffffffffffffffffffff168173ffffffffffffffffffffffffffffffffffffffff161415610c40576040517f08c379a0000000000000000000000000000000000000000000000000000000008152600401808060200182810382526026815260200180610ebc6026913960400191505060405180910390fd5b8073ffffffffffffffffffffffffffffffffffffffff1660008054906101000a900473ffffffffffffffffffffffffffffffffffffffff1673ffffffffffffffffffffffffffffffffffffffff167f8be0079c531659141344cd1fd0a4f28419497f9722a3daafe3b4186f6b6457e060405160405180910390a3806000806101000a81548173ffffffffffffffffffffffffffffffffffffffff021916908373ffffffffffffffffffffffffffffffffffffffff16021790555050565b600033905090565b6000610d4783836040518060400160405280601e81526020017f536166654d6174683a207375627472616374696f6e206f766572666c6f770000815250610dd7565b905092915050565b600080828401905083811015610dcd576040517f08c379a000000000000000000000000000000000000000000000000000000000815260040180806020018281038252601b8152602001807f536166654d6174683a206164646974696f6e206f766572666c6f77000000000081525060200191505060405180910390fd5b8091505092915050565b6000838311158290610e84576040517f08c379a00000000000000000000000000000000000000000000000000000000081526004018080602001828103825283818151815260200191508051906020019080838360005b83811015610e49578082015181840152602081019050610e2e565b50505050905090810190601f168015610e765780820380516001836020036101000a031916815260200191505b509250505060405180910390fd5b506000838503905080915050939250505056fe796f75206d757374207761697420666f7220736e61746368696e6720746f20626567696e4f776e61626c653a206e6577206f776e657220697320746865207a65726f2061646472657373796f75206d7573742077616974206f6e6520686f757220666f72207468652066756e64536e61746368206665617475726520746f20636f6f6c646f776e5468652066756e64732068617665206265656e2066756c6c7920736e617463686564596f75206d757374206465706f7369742065656565206265666f7265207374617274696e6720736e61746368696e67a2646970667358221220e0dc794a15e4aeccde534c779bde00fdae916c4fd2f66fe333fdb025da258dcc64736f6c634300060c0033",
  "immutableReferences": {},
  "source": "\n// SPDX-License-Identifier: MIT\npragma solidity 0.6.12;\n\n// Adapted from SushiSwap's MasterChef contract\nimport \"@openzeppelin/contracts/token/ERC20/IERC20.sol\";\nimport \"@openzeppelin/contracts/token/ERC20/SafeERC20.sol\";\nimport \"@openzeppelin/contracts/utils/EnumerableSet.sol\";\nimport \"@openzeppelin/contracts/math/SafeMath.sol\";\nimport \"@openzeppelin/contracts/math/Math.sol\";\nimport \"@openzeppelin/contracts/access/Ownable.sol\";\nimport \"./eeee.sol\";\n\n// snatchFeeder is one of the elements of dolphins.wtf.\n// It can be funded, started and stopped (e.g. by her majesty the Cetacean Queen's devs)\n// A call to the snatchFeeder can be made *by anyone* to send eeee to the snatchpool\n// Once received by the snatchPool, no one can feed from the snatchPool during the cooldown period (1 hour)\n// Calls to the snatchFeeder can only be made once per hour.\n//\n//////////////////////////////////////////////////////////////////////\n//                                       __                         //\n//                                   _.-~  ) ___ snatchFeeder ____  //\n//                        _..--~~~~,'   ,-/     _                   //\n//                     .-'. . . .'   ,-','    ,' )                  //\n//                   ,'. . . _   ,--~,-'__..-'  ,'                  //\n//                 ,'. . .  (@)' ---~~~~      ,'                    //\n//                /. . . . '~~             ,-'                      //\n//               /. . . . .             ,-'                         //\n//              ; . . . .  - .        ,'                            //\n//             : . . . .       _     /                              //\n//            . . . . .          `-.:                               //\n//           . . . ./  - .          )                               //\n//          .  . . |  _____..---.._/ ____ dolphins.wtf ____         //\n//~---~~~~-~~---~~~~----~~~~-~~~~-~~---~~~~----~~~~~~---~~~~-~~---~~//\n//                                                                  //\n//////////////////////////////////////////////////////////////////////\n\ncontract snatchFeeder is Ownable {\n    using SafeMath for uint256;\n\n    eeee    public _eeee;\n    uint256 public _coolDownTime;\n    uint256 public _feedAmount;\n    bool    public _snatchingStarted;\n    uint256 public _feedStock;\n    uint256 public _lastUpdated;\n\n    event Deposit(address indexed user, uint256 amount);\n    event FundSnatch(address indexed user, uint256 amount);\n\n    constructor (eeee dolphinToken) public {\n        _eeee = dolphinToken;\n        _coolDownTime = 1 hours;\n        _feedAmount = 69e16; //0.69 EEEE released per snatch\n        _snatchingStarted = false;\n    }\n\n    modifier snatchingStarted() {\n        require(_snatchingStarted, \"you must wait for snatching to begin\");\n        _;\n    }\n\n    modifier cooledDown() {\n        require(now > (_lastUpdated+_coolDownTime), \"you must wait one hour for the fundSnatch feature to cooldown\");\n        _;\n    }\n\n    function deposit(uint256 _amount) public {\n        if(_amount > 0) {\n            _eeee.transferFrom(address(msg.sender), address(this), _amount);\n            _feedStock = _feedStock.add(_amount);\n        }\n        emit Deposit(msg.sender, _amount);\n    }\n\n    function fundSnatch() public snatchingStarted cooledDown {\n        require(_feedStock > 0, 'The funds have been fully snatched');\n        if(_feedStock > _feedAmount) {\n            _eeee.fundSnatch(_feedAmount);\n            _feedStock = _feedStock.sub(_feedAmount);\n        } else {\n            // if the amount is below the normal feed level then send the remaining to the snatch pool and turn off snatching\n            _eeee.fundSnatch(_feedStock);\n            _feedStock = _feedStock.sub(_feedStock);\n            _snatchingStarted = false;\n        }\n        _lastUpdated = now;\n        emit FundSnatch(msg.sender, _feedStock);\n    }\n\n    function startSnatching() public onlyOwner {\n        require(_feedStock > 0, \"You must deposit eeee before starting snatching\");\n        _snatchingStarted = true;\n    }\n\n    function endSnatching() public onlyOwner {\n        _snatchingStarted = false;\n    }\n\n\n}",
  "sourcePath": "/mnt/c/dev/dolphinsWTF/contracts/snatchFeeder.sol",
  "compiler": {
    "name": "solc",
    "version": "0.6.12+commit.27d51765.Emscripten.clang"
  },
  "schemaVersion": "3.3.2",
  "updatedAt": "2020-11-20T11:04:51.695Z",
  "networkType": "ethereum",
  "devdoc": {
    "kind": "dev",
    "methods": {
      "owner()": {
        "details": "Returns the address of the current owner."
      },
      "renounceOwnership()": {
        "details": "Leaves the contract without owner. It will not be possible to call `onlyOwner` functions anymore. Can only be called by the current owner. NOTE: Renouncing ownership will leave the contract without an owner, thereby removing any functionality that is only available to the owner."
      },
      "transferOwnership(address)": {
        "details": "Transfers ownership of the contract to a new account (`newOwner`). Can only be called by the current owner."
      }
    },
    "version": 1
  },
  "userdoc": {
    "kind": "user",
    "methods": {},
    "version": 1
  }
}